:0400000063EF00F0BA
:0C000800FACFADF0FBCFAEF0A9EF0BF08B
:10001800D8CF1CF0E8CF1DF0E0CF1EF0FACF1FF0CC
:10002800FBCF20F0E9CF21F0EACF22F0E1CF23F097
:10003800E2CF24F0D9CF25F0DACF26F0F3CF27F09E
:10004800F4CF28F0F6CF29F0F7CF2AF0F8CF2BF02D
:10005800F5CF2CF09EAC03D09E9C68EC0FF09EA0D0
:1000680003D09E90E8EC0FF09EB80BEC0DF09EAA22
:1000780003D09E9A17EC09F02CC0F5FF2BC0F8FFAF
:100088002AC0F7FF29C0F6FF28C0F4FF27C0F3FFF6
:1000980026C0DAFF25C0D9FF24C0E2FF23C0E1FF54
:1000A80022C0EAFF21C0E9FF20C0FBFF1FC0FAFF02
:1000B8001EC0E0FF1DC0E8FF1CC0D8FF10003FEFC6
:1000C8000DF00001966F000E00010001AC6F0001F9
:1000D80096510001966F000E00010001A56F000106
:1000E80096510001966F000E00010001AB6F0001F0
:1000F80096510001966F000E00010001A86F0001E3
:1001080096510001966F000E00010001A66F0001D4
:100118009651C6AC29D0C69C000120EE0DF0000116
:10012800C551D9260001C651DA22050EDF6E00013D
:10013800966F010E00010001A66F000196510001A3
:1001480020EE0FF00001C551D9260001C651DA2270
:10015800DF2A000120EE0EF00001C551D92600016A
:10016800C651DA22040EDF6EC7A00AD0C9CFA7F0A5
:100178000001966F010E00010001AC6F000196515D
:1001880000010001A667CED1B7D1C7A6CBD1000127
:100198000001AC51B3EC08F0000120EE0DF00001B5
:1001A800C551D9260001C651DA22080EDF62BAD13C
:1001B8000001966F000E00010001AC6F000196511E
:1001C8000001966F010E00010001A86F87D1C7A832
:1001D80030D0000120EE0CF00001C551D9260001F5
:1001E800C651DA22DF2A00010001AC51D8B479D116
:1001F800C7BA09D00001966F010E00010001AB6F6C
:10020800000196516ED1000120EE0FF00001C5519A
:10021800D9260001C651DA22DF2A000120EE0EF0AD
:100228000001C551D9260001C651DA22060EDF6E3B
:1002380058D100010001AC51D8B474D1000120EEAE
:100248000CF00001C551D9260001C651DA22DF2A77
:10025800C7BA19D0C7B40BD0000120EE0DF00001C9
:10026800C551D9260001C651DA22070E76D0000101
:1002780020EE0DF00001C551D9260001C651DA2241
:10028800080EDF6E1DD1000120EE0FF00001C551F0
:10029800D9260001C651DA22DF2A000120EE0DF02E
:1002A8000001C551D9260001C651DA22050EDF6EBC
:1002B800000120EE0EF00001C551D9260001C651FB
:1002C800DA22060E4AD0000120EE1BF00001C551CB
:1002D800D9260001C651DA22DF500001966F0001CD
:1002E80020EE1AF00001C551D9260001C651DA22C4
:1002F800DF500001965DD8B0F4D0000120EE1BF06D
:100308000001C551D9260001C651DA22DF5000018B
:10031800966F00019651010D100EF326000EF4227F
:10032800F35000010001C525D96EF4500001000109
:10033800C621DA6EDF50C96E000120EE1BF0000105
:10034800C551D9260001C651DA22DF2A0001966F6D
:10035800010E00010001A56FC1D0DF6EE3D0C7A870
:1003680062D0000120EE0CF00001C551D926000131
:10037800C651DA22DF2A00010001AC51D8B44AD0B4
:10038800C7AA27D0000120EE0AF00001C551D926DE
:100398000001C651DA22DF500001966F0001965124
:1003A800010DF35000010001C525D96EF45000017C
:1003B8000001C621DA6E0001A7C0DFFF000120EEB0
:1003C8000AF00001C551D9260001C651DA22DF2AF8
:1003D80021D0000120EE0FF00001C551D9260001FF
:1003E800C651DA22DF2A000120EE0EF00001C551C5
:1003F800D9260001C651DA22060EDF6E000120EE72
:100408000DF00001C551D9260001C651DA22050EAA
:10041800DF6E67D00001966F010E00010001AB6F1F
:10042800000196515ED000010001AC51D8B47AD0D9
:10043800000120EE0CF00001C551D9260001C6517B
:10044800DA22DF2AC7AA27D0000120EE0AF000012D
:10045800C551D9260001C651DA22DF500001966F36
:1004680000019651010DF35000010001C525D96E18
:10047800F45000010001C621DA6E0001A7C0DFFFB9
:10048800000120EE0AF00001C551D9260001C6512D
:10049800DA22DF2A47D0C7A4B6D6000120EE0DF035
:1004A8000001C551D9260001C651DA22080EDF6EB7
:1004B8000001966F010E00010001AB6F000196511B
:1004C8000001966F010E00010001A86F000196510E
:1004D8000001966F000E00010001AC6F00019651FB
:1004E80021D0000120EE0DF00001C551D9260001F0
:1004F800C651DA22050E31D7000120EE0DF00001B9
:10050800C551D9260001C651DA22DF50050AD8B4F0
:100518003CD6030AD8B45BD6010AD8B420D70F0A50
:10052800D8B4D1D600010001AC6705D000010001A4
:10053800A551D8B402D0C6A8C688000120EE0AF09A
:100548000001C551D9260001C651DA22080EDF6420
:1005580024D000010001AB6720D0000120EE0DF08F
:100568000001C551D9260001C651DA22050EDF6EF9
:10057800000120EE0FF00001C551D9260001C65137
:10058800DA22DF2A000120EE0EF00001C551D9263B
:100598000001C651DA22070EDF6E00010001AB51DF
:1005A800D8B448D0000120EE0CF00001C551D9267E
:1005B8000001C651DA22000110EE0AF00001C5510F
:1005C800E1260001C651E222E7500001966F0001C2
:1005D8009651010DF35000010001C525E16EF4505C
:1005E80000010001C621E26EDFCFE7FF0001966F30
:1005F800280E00010001926F0001965100010001D0
:10060800C6C094F000010001C5C093F0000120EEBF
:100618000AF00001C551D9260001C651DA22DF507F
:100628000001976F00019729E8EC0EF0000120EE19
:100638000AF04BD0000120EE0FF00001C551D92679
:100648000001C651DA22DF50D8B447D0000120EEAD
:100658000FF00001C551D9260001C651DA22DF503A
:1006680000010001A26F000120EE0EF00001C5514B
:10067800D9260001C651DA22DF5000010001A36F1C
:10068800000120EE0CF00001C551D9260001C65129
:10069800DA22DF5000010001A46F0001966F290ED5
:1006A80000010001926F000196510001000E000147
:1006B8000001946F0001A20E00010001936F030E68
:1006C800E8EC0EF0000120EE0FF00001C551D9262C
:1006D8000001C651DA22000EDF6E00010001A851A8
:1006E800D8B41200000E00010001AA6F000E00012C
:1006F800A96FAA0EC5C0D9FFC6C0DAFFDF621CD039
:10070800000E00010001AA6F050E0001A96F20EE7E
:10071800BBF010EE98F0050EDECFE6FFE82EFCD712
:100728000001000E2E6E0001980E2D6E00010001D2
:10073800A95139EC08F022D0BA0EC5C0D9FFC6C0FD
:10074800DAFFDF621BD0000E00010001AA6F050E60
:100758000001A96F20EEC0F010EE9DF0050EDECF6F
:10076800E6FFE82EFCD70001000E2E6E00019D0E5C
:100778002D6E00010001A95139EC08F00001966FB7
:10078800000E00010001A86F000196511200820EB0
:10079800D36E9B9C0101010E01010101876F0101CC
:1007A800C00E01010101866F89EC0FF00101010EF5
:1007B80001010101876F0101CD0E01010101866F61
:1007C800D6EC0CF00101010E01010101876F010156
:1007D800BC0E01010101866FBBEC0FF09FEC0CF021
:1007E800000E936E000E8A6E000E806E000E896EEB
:1007F8000F0E926ED50E1AEC0FF0850E96EC0EF0D9
:100808009F9C9D8C9F909F9A9F989F86BE0E2FECD1
:100818000FF09D86000E01010101876F260E010170
:10082800866FFC0ED9EC0AF0AB8E9468FAEC0FF0E8
:100838000101AA6F0C0E01010101866F0101AA5185
:100848000101AB6F0B0E01010101876F0101AB5173
:10085800530E67EC0BF08F0E79EC0FF0EAC1ACF198
:10086800EBC1ADF1EAEC0BF00101010E0101010150
:100878009F6F0101BE0E010101019E6F0101010E72
:1008880001010101A16F0101AF0E01010101A06F7A
:100898000A0E55EC0EF001010101BF6F01010101C3
:1008A800BFBF4DD03CD00101010E01010101876F8E
:1008B8000101BA0E01010101866F01010101BEC1EA
:1008C80088F101010101896B01010101BF51010199
:1008D80001018A6F01018B6B01018ABF8B0701013E
:1008E800010E010101018D6F0101AF0E010101012E
:1008F8008C6FB2EC0FF023D0AFC1AEF120D0010164
:10090800010E01010101876F0101AF0E0101010113
:10091800866F01010101BF51D7EC09F010D0010128
:100928000101BE510A0AD8B4BED7220AD8B4E4D706
:10093800010AD8B4E1D7040AD8B4E1D7030A0101FF
:10094800010E010101019F6F0101BE0E01010101AC
:100958009E6F0101010E01010101A16F0101AF0E9E
:1009680001010101A06F0A0E34EC0EF00101010132
:10097800BF6F01010101BFBF75D772D00101010E20
:1009880001010101A16F0101BC0E01010101A06F6C
:1009980001010101BEC1A2F101010101A36B010125
:1009A8000101BF5101010101A46F0101A56B010102
:1009B800A4BFA5070101010E01010101A76F0101F3
:1009C800AF0E01010101A66F66EC0CF04BD70101D7
:1009D8000101AF51BA0AD8A41ED00101AA6F050EB1
:1009E80001010101866F0101AA510101010E0101F6
:1009F8000101886F0101AF0E01010101876F01013B
:100A0800AB6FBE0E01010101896F0101AB51050EEB
:100A1800F0EC05F023D001010101AF51AA0AD8A4D6
:100A28001DD00101AA6F050E01010101866F0101A8
:100A3800AA510101010E01010101886F0101AF0EE8
:100A480001010101876F0101AB6F9E0E01010101D8
:100A5800896F0101AB51010EF0EC05F08A9402D7C1
:100A680001010101BE510B0AD8B488D7150AD8B4C0
:100A7800AED7010AD8B4ABD7F5D6010120EE42F0C3
:100A880001019051D92601019151DA22DF5001016B
:100A98000101996F0101010199510D0DF3500101F7
:100AA80001019025010101019C6FF4500101010130
:100AB800912101019D6F010E9CC1D9FF9DC1DAFFF3
:100AC800DF6288D0010120EE01F001019C51D92696
:100AD80001019D51DA22DF5001010101925DD8B078
:100AE80002D0FD0E1200010120EE01F001019C511F
:100AF800D92601019D51DA22DF500101976F0101CA
:100B08009751010101019A6F01019B6B01010101DC
:100B180096C187F10101010195C186F1030E01011A
:100B280001019C250101976F000E010101019D2122
:100B38000101986F97C188F198C189F19AC18AF12A
:100B48009BC18BF172EC0DF0010120EE42F0010126
:100B58009051D92601019151DA22010110EE42F09B
:100B680001019051E12601019151E222E750010172
:100B7800976F010E0101972501010101866F01019F
:100B88000101876B000E8723000E01010101896FA7
:100B9800050E0101886FB2EC07F0010101018651D1
:100BA800DF6E010120EE02F001019C51D9260101FE
:100BB8009D51DA2293C1E1FF94C1E2FFDFCFE7FF45
:100BC8009CC1D9FF9DC1DAFF000EDF6E0101010152
:100BD8009A511200FC0E1200E8CF8CF1000120EEB1
:100BE8001AF00001C551D9260001C651DA22000EBB
:100BF800DF6E42D0000120EE1AF00001C551D9265F
:100C08000001C651DA22DF5001018A6F01018A51C1
:100C1800010DF350010101018725D96EF45001013E
:100C280001018821DA6E000110EE1AF00001C551A9
:100C3800E1260001C651E222E75001018B6F010154
:100C48008B51010D100EF326000EF422F350000113
:100C58000001C525E16EF45000010001C621E26ED5
:100C6800DFCFE7FF000120EE1AF00001C551D926B9
:100C78000001C651DA22DF2A000120EE1AF0000135
:100C8800C551D9260001C651DA22DF5001018A6F09
:100C9800010101018C5101018A5DD8A0ABD7000187
:100CA80020EE1CF00001C551D9260001C651DA22F8
:100CB800010189C1DFFF000120EE1AF00001C551D2
:100CC800D9260001C651DA2201018CC1DFFF0001DB
:100CD80020EE0AF00001C551D9260001C651DA22DA
:100CE800010186C1DFFF000120EE0DF00001C551B2
:100CF800D9260001C651DA220A0EDF6E000120EE65
:100D08001BF00001C551D9260001C651DA22000E98
:100D1800DF6EC58012000101010192C197F1010146
:100D28000101986B010120EE41F001019051D92693
:100D380001019151DA22DF5001010101996F01018E
:100D4800010199510D0DF350010101019025010197
:100D580001019A6FF45001010101912101019B6F7A
:100D68009AC1D9FF9BC1DAFFDF50D8B402D0FF0E79
:100D78001200010120EE01F001019A51D92601016A
:100D88009B51DA22010192C1DFFF010120EE02F03E
:100D980001019A51D92601019B51DA22010193C11F
:100DA800DFFF030E010101019A2501010101866F90
:100DB800000E010101019B210101876F0101010161
:100DC80095C189F10101010194C188F197C18AF1A6
:100DD80098C18BF172EC0DF0010120EE41F0010198
:100DE8009051D92601019151DA22010110EE41F00A
:100DF80001019051E12601019151E222E7500101E0
:100E0800966F010E0101962501010101866F01010E
:100E18000101876B000E8723000E01010101896F14
:100E2800050E0101886FB2EC07F00101010186513E
:100E3800DF6E9AC1D9FF9BC1DAFF010EDF6E010E8A
:100E480012000001000188C08DF0000100018E6BC6
:100E5800000120EE41F000018651D926000187519A
:100E6800DA22DF50000100018F6F000100018F516D
:100E78000D0DF35000010001862500010001906F5F
:100E8800F4500001000187210001916F90C0D9FF43
:100E980091C0DAFFDF50D8B402D0FF0E1200000173
:100EA80020EE01F000019051D92600019151DA227B
:100EB800000188C0DFFF000120EE02F00001905120
:100EC800D92600019151DA22000189C0DFFF030E03
:100ED80000010001902500010001806F000E000153
:100EE800000191210001816F000100018BC083F096
:100EF800000100018AC082F08DC084F08EC085F0A8
:100F0800A1EC0DF0000120EE41F000018651D92638
:100F180000018751DA22000110EE41F000018651EC
:100F2800E12600018751E222E75000018C6F010E93
:100F380000018C252D6E2E6A000E2E22000E306EBA
:100F4800050E2F6E31EC0AF02D50DF6E90C0D9FFE0
:100F580091C0DAFF010EDF6E010E120001018A6FE7
:100F6800000E010101018C6F01018A51010101018B
:100F78008751800AF36E800EF35C000ED8B4865D4C
:100F8800D8B00FD001010101866D0101871FD8B0CB
:100F9800872B01018A6F010E010101018C6F01018C
:100FA8008A51010101018951800AF36E800EF35CB8
:100FB800000ED8B4885DD8B007D001010101886D52
:100FC8000101891FD8B0892B0101010189518811BC
:100FD800D8B43AD001018A6F010E010101018B6F6B
:100FE80001018A5109D0010101010101D890883716
:100FF8008937010101018B2B0101010189AFF3D769
:1010080001010101885101010101865D0101010110
:101018008951010101018759D8A00CD001010101B2
:10102800885101010101865F010101018951010116
:101038000101875B010101010101D89089338833DF
:10104800010101018B2FDCD7010101018C51D8B4BA
:1010580007D001010101866D0101871FD8B0872BD8
:1010680086C186F187C187F11200E8CF31F000010F
:1010780020EE1AF00001C551D9260001C651DA2226
:10108800000EDF6E3AD0000120EE1AF00001C551C3
:10109800D9260001C651DA22DF502F6E2F50010DDC
:1010A800F3502D24D96EF4502E20DA6E000110EE84
:1010B8001AF00001C551E1260001C651E222E750AD
:1010C800306E3050010D100EF326000EF422F3504E
:1010D80000010001C525E16EF45000010001C621A0
:1010E800E26EDFCFE7FF000120EE1AF00001C551E4
:1010F800D9260001C651DA22DF2A000120EE1AF0B3
:101108000001C551D9260001C651DA22DF502F6EE1
:1011180031502F5CD8A0B7D7000120EE1AF000019B
:10112800C551D9260001C651DA2231C0DFFF0001BE
:1011380020EE1BF00001C551D9260001C651DA2264
:10114800010EDF6E000120EE10F00001C551D92616
:101158000001C651DA22DF50C96EC6881200E8CFF6
:101168002DF0000120EE0CF00001C551D926000138
:10117800C651DA22010EDF6E000120EE0AF00001EE
:10118800C551D9260001C651DA22000EDF6E2D5056
:10119800D8B43DD0C7AA21D0000120EE0DF000013F
:1011A800C551D9260001C651DA22050EDF6E0001AD
:1011B80020EE0FF00001C551D9260001C651DA22F0
:1011C800DF2A000120EE0EF00001C551D9260001EA
:1011D800C651DA22050EDF6E1200C7A40CD000013A
:1011E80020EE0DF00001C551D9260001C651DA22C2
:1011F800080EDF6E1200000120EE0DF00001C5514F
:10120800D9260001C651DA22070EDF6E120000014E
:1012180020EE0DF00001C551D9260001C651DA2291
:10122800060EDF6E12009EAA4ED020EE05F0525038
:10123800D9265350DA22DF501B6E1B50010DF35094
:101248005224D96EF4505320DA6E98EC0FF0DF6E0A
:1012580020EE05F05250D9265350DA22DF2AC90E63
:101268004E5C000E4F58D8A00CD020EE05F052501E
:10127800D9265350DA22010EDF6E000E4F6E000E93
:101288004E6E20EE05F05250D9265350DA22050E44
:10129800DF6219D01B6E1F0E176E1B5053C019F05A
:1012A80052C018F020EE05F05250D9265350DA22D9
:1012B800DF5043EC0FF020EE05F05250D926535082
:1012C800DA22000EDF6E51A61200AB98AB881B6EB7
:1012D8001E0E176E1B50000E196E000E186E000EB3
:1012E80043EC0FF012000DC012F0136A20EE41F02B
:1012F8000B50D9260C50DA22DF50146E14500D0D05
:10130800F3500B24156EF4500C20166E15C0D9FF3F
:1013180016C0DAFFDF50D8B402D0FF0E120020EE5C
:1013280001F01550D9261650DA220DC0DFFF20EE45
:1013380002F01550D9261650DA220EC0DFFF030E30
:101348001524016E000E1620026E10C004F00FC0A6
:1013580003F012C005F013C006F076EC0EF020EE94
:1013680041F00B50D9260C50DA2210EE41F00B5008
:10137800E1260C50E222E750116E010E1124016E95
:10138800026A000E0222000E046E050E036E8BEC3C
:101398000AF00150DF6E15C0D9FF16C0DAFF010E42
:1013A800DF6E010E1200E8CF8AF120EE0BF05250EA
:1013B800D9265350DA22000EDF6E35D020EE0BF01E
:1013C8005250D9265350DA22DF500101886F0101AB
:1013D8008851010DF350010101018625D96EF450A1
:1013E800010101018721DA6E10EE0BF05250E1265F
:1013F8005350E222E7500101896F01018951010D23
:10140800060EF326000EF422F3505224E16EF45037
:101418005320E26EDFCFE7FF20EE0BF05250D926C3
:101428005350DA22DF2A20EE0BF05250D9265350BF
:10143800DA22DF500101886F010101018A5101019F
:10144800885DD8A0BBD720EE0CF05250D926535057
:10145800DA22000EDF6E9D881200316E000E000148
:101468000001816F31502E50800AF36E800EF35CBC
:10147800000ED8B42D5CD8B00AD02D6C2E1ED8B072
:101488002E2A316E010E00010001816F315030505B
:10149800800AF36E800EF35C000ED8B42F5CD8B0CF
:1014A80004D02F6C301ED8B0302A30502F10D8B44A
:1014B80020D0316E010E00010001806F315006D03E
:1014C800D8902F36303600010001802B30AEF8D787
:1014D8002F502D5C30502E58D8A004D02F502D5EA0
:1014E80030502E5AD89030322F3200010001802F10
:1014F800EFD7000100018151D8B404D02D6C2E1E05
:10150800D8B02E2A2DC02DF02EC02EF01200056E58
:10151800000E076E05500250800AF36E800EF35CD1
:10152800000ED8B4015CD8B008D0016C021ED8B047
:10153800022A056E010E076E05500450800AF36EEC
:10154800800EF35C000ED8B4035CD8B004D0036CF2
:10155800041ED8B0042A04500310D8B41AD0056E5B
:10156800010E066E055004D0D89003360436062ABC
:1015780004AEFAD70350015C04500258D8A004D036
:101588000350015E0450025AD89004320332062EEA
:10159800F1D70750D8B404D0016C021ED8B0022A83
:1015A80001C001F002C002F01200E8CF8BF1000E7A
:1015B800AC6E000EAB6E010101018BB1AC8801016C
:1015C80001018BA302D0AC8CAB8C010101018BB55E
:1015D800AC8E010101018BA702D0AB8801D0AB8A88
:1015E800010101018BB9AC849E98010101018BBBFB
:1015F800AB86010101018BAD02D09D8A01D09D9A75
:101608009E9A010101018BAF02D09D8801D09D985F
:1016180086C1AFFF010187C188F188C189F1010145
:101628008A6B01018951B06EAC8AAB8E949C948E02
:10163800ACA81200ACBE1200948C1200010101018A
:1016480089518811D8B43AD001018A6F010E01017D
:1016580001018B6F01018A5109D0010101010101CA
:10166800D89088378937010101018B2B01010101CD
:1016780089AFF3D701010101885101010101865D9C
:10168800010101018951010101018759D8A00CD03C
:1016980001010101885101010101865F0101010178
:1016A800895101010101875B010101010101D89004
:1016B80089338833010101018B2FDCD786C186F17C
:1016C80087C187F11200E8CF8AF1000EC26E000EC2
:1016D800C06E01010101D89086313C0BC26E86C1F3
:1016E80088F10101883BF00E8817300E0101881738
:1016F8000101010187510F0B01018811C16E8AC1D7
:1017080088F10101D89088370101D8908837380EC0
:10171800010188178AC189F10101893B0F0E8917D8
:10172800070E01018917010101018A51800B01018E
:10173800891101018811C06E0101010186AF03D032
:101748009E9C9D8CF28CC2801200E9CFAFF0EACF4C
:10175800B0F0E1CFB1F0E2CFB2F0D9CFB3F0DACF49
:10176800B4F0F3CFB5F0F4CFB6F0F6CFB7F0F7CFCB
:10177800B8F0F8CFB9F0F5CFBAF09EA603D09E9690
:10178800FEEC0FF0F2A403D0F294D6EC0FF0C8EC04
:101798000DF0BAC0F5FFB9C0F8FFB8C0F7FFB7C081
:1017A800F6FFB6C0F4FFB5C0F3FFB4C0DAFFB3C0AC
:1017B800D9FFB2C0E2FFB1C0E1FFB0C0EAFFAFC0DD
:1017C800E9FFAEC0FBFFADC0FAFF110012EC0EF04E
:1017D800010101018B5101018A11D8B412000101E4
:1017E8008C6F010E506E01018C510101010E010137
:1017F8000101876F0101000E01010101866FCDEC27
:101808000EF00009D8B407D001018C6F000E506E9D
:1018180001018C5112000101010E01010101876FC4
:101828000101430E01010101866FCDEC0EF00009A4
:10183800D8B407D001018C6F000E506E01018C5195
:1018480012000A0EA7EC0FF0D0D7010120EE41F0EC
:1018580001018651D92601018751DA22000EDF6E77
:10186800010120EE42F001018651D926010187517C
:10187800DA22000EDF6E0101886F000E01010101FE
:10188800896F01018851040E01010101896501D0A8
:1018980012000101010189510D0DF35001010101EF
:1018A8008625D96EF450010101018721DA6E000EF8
:1018B800DF6E01010101892B040E01010101896517
:1018C800E8D71200A0C1D9FFA1C1DAFFDE2A000EB5
:1018D800DD22A0C1D9FFA1C1DAFF0101DECF86F167
:1018E8000101DDCF87F1000E01010101896F0A0EA8
:1018F8000101886F22EC0BF0010101018651090AF0
:1019080001018711D8A412000101A86F140E01016A
:1019180001019C6F0101A85101010101A1C19EF1C2
:1019280001010101A0C19DF1020EB2EC0EF001010E
:101938000101A96F120001018A6F000E506E0101AA
:101948008A510101010E01010101876F0101430E56
:1019580001010101866F29EC0CF00101010E010162
:101968000101876F0101000E01010101866F29EC59
:101978000CF00201020E01010101876F0201430E02
:1019880001010101866F29EC0CF00201020E010130
:101998000101876F0201000E01010101866F29EC28
:1019A8000CF012000101000187C1C6F0010100011D
:1019B80086C1C5F0000120EE0AF00001C551D92604
:1019C8000001C651DA22000EDF6E000120EE0CF095
:1019D8000001C551D9260001C651DA22000EDF6E7A
:1019E800000120EE0DF00001C551D9260001C651B5
:1019F800DA22050EDF6E000120EE0FF00001C5515E
:101A0800D9260001C651DA22000EDF6E1200ACA200
:101A1800120020EE0CF05250D9265350DA22DF5033
:101A2800016E20EE0BF05250D9265350DA22DF50C7
:101A3800015CD8B01ED020EE0CF05250D92653507D
:101A4800DA22DF50016E0150010D060EF326000E5A
:101A5800F422F3505224D96EF4505320DA6EDF503A
:101A6800AD6E20EE0CF05250D9265350DA22DF2A00
:101A780012009D98120002EE00F0860EEE6AE8064B
:101A8800FDE101EE00F0860EEE6AE806FDE100EEEB
:101A980032F0200EEE6AE806FDE1080EF66E200E22
:101AA800F76E000EF86E0900F5CFEAF10900F5CFE0
:101AB800EBF1EA0EF66E1F0EF76E000EF86E00EEF2
:101AC800BBF010EE0AF00900F5CFEEFFE550E1504B
:101AD800FAE1000EF86E0001CBEF03F001010101FD
:101AE80089C18FF10101010188C18EF10101010154
:101AF80087C18DF10101010186C18CF112D08EC11F
:101B0800D9FF8FC1DAFF8CC1E1FF8DC1E2FFDFCFC2
:101B1800E7FF010101018E4B8F2B010101018C4B65
:101B28008D2B010101018A07D8A08B0701018A29A1
:101B3800D8B48B29D8B41200E2D7000183C030F0A2
:101B4800000182C02FF0000181C02EF0000180C08A
:101B58002DF00ED02FC0D9FF30C0DAFF2DC0E1FF25
:101B68002EC0E2FFDFCFE7FF2F4A302A2D4A2E2A68
:101B7800000100018407D8A0850700018429D8B492
:101B88008529D8B41200E6D7506601D0120003ECBC
:101B98000FF030502F10D8A41200EFEC0FF02E5099
:101BA8002D10D8B412000101010E2E6E0101000E95
:101BB8002D6E56EC0FF00009D8A412000101010E99
:101BC8002E6E0101430E2D6E56EC0FF00009D8B4AD
:101BD80001EC10F01200F2AC08D0000E0101010176
:101BE800896F000E0101886F1200C4EC0FF001012B
:101BF8000101875101018611D8B408D0000E0101F6
:101C08000101896F000E0101886F1200000E0101A9
:101C18000101896F010E0101886F1200EFEC0DF0D0
:101C280001010101895101018811D8A411D0C4EC26
:101C38000FF001010101875101018611D8A408D0D4
:101C4800000E010101018B6F010E01018A6F120064
:101C5800000E010101018B6F000E01018A6F120055
:101C6800E8CFA2F10101010E01010101916F01010B
:101C7800430E01010101906FA2C192F1010101011E
:101C88009FC194F1010101019EC193F1010101017C
:101C9800A1C196F101010101A0C195F141EC05F046
:101CA8001200E8CFA2F10101010E01010101916FBB
:101CB8000101000E01010101906FA2C192F1010121
:101CC80001019FC194F1010101019EC193F101013C
:101CD8000101A1C196F101010101A0C195F141ECF9
:101CE80005F0120004C00AF003C009F002C008F0B1
:101CF80001C007F00ED009C0D9FF0AC0DAFF07C03B
:101D0800E1FF08C0E2FFDFCFE7FF094A0A2A074AD6
:101D1800082A0506D8A006060528D8B40628D8B487
:101D28001200E9D7E8CF86F10101010186517E0B47
:101D3800CD6E0101010186AD02D0CD8E01D0CD9EC0
:101D4800000ECF6E000ECE6E9E900101010186AF8F
:101D580002D09D8001D09D90CD801200E8CF9FF1E8
:101D68000201020E01010101916F0201000E010141
:101D78000101906F9FC192F19CC193F10101010192
:101D88009EC195F1010101019DC194F18FEC06F00E
:101D98001200010120EE42F001018651D92601010D
:101DA8008751DA22DF500101886F010188510D0D3A
:101DB800F350010101018625D96EF450010101019A
:101DC8008721DA6EDF501200E8CF95F00101010E8D
:101DD80000010001876F0101000E00010001866FFC
:101DE80095C088F092C089F00001000194C08BF082
:101DF8000001000193C08AF025EC07F01200F2AC54
:101E080005D0000E306E000E2F6E1200EFEC0FF0B2
:101E18002E502D10D8B405D0000E306E000E2F6E47
:101E28001200000E306E010E2F6E1200E8CF86F100
:101E38000101010186517F0BD56E000ED76E000E91
:101E4800D66EF2940101010186AF02D0F28A01D068
:101E5800F29AD58E1200E8CF86F19486948886C1CE
:101E6800C8FF000EC76E000EC66E000EC56E0E0EC1
:101E7800C612C78E94869488C580C68A1200E8CF99
:101E88001AF00101010E0C6E0101430E0B6E1AC00F
:101E98000DF017C00EF019C010F018C00FF077EC55
:101EA80009F0120020EE42F02D50D9262E50DA22E9
:101EB800DF502F6E2F500D0DF3502D24D96EF45096
:101EC8002E20DA6EDF5012001B0E325CD8B002D022
:101ED8003228326E3250010D320EF324D96E000EC4
:101EE800F420DA6EC4CFDFFF1200E8CF87F1C2CF4B
:101EF80086F1C30E0101861701010101D8908731CF
:101F08003C0B01018611C26E1200010187C153F01A
:101F1800010186C152F020EE05F05250D9265350E7
:101F2800DA22000EDF6E1200F20E5116ABAC03D0AF
:101F38005190ABB05180ABB45184ABB25186AECFA7
:101F480001F001501200E8CF86F1FA0E00F0E82EF9
:101F5800FDD701010101862FF8D712000101010107
:101F68008DC18FF1010101018CC18EF1120086C172
:101F7800D9FF87C1DAFF000EDE6E000EDD6E12009B
:101F8800000EF2AE010E01010101866F0101876B9F
:101F9800120001C003F002C004F004C0CFFF03C068
:101FA800CEFF1200000E2E6E000E2D6EDFEC0FF02D
:101FB8004E4A4F2A12002DC02FF02EC030F030C0EC
:101FC800D7FF2FC0D6FF1200000E026E000E016E62
:101FD800CDEC0FF01200000EF2AE010E2D6E2E6A3F
:101FE800120001010203060304040000D08EF28EE1
:101FF800F28C120065EC00F01200D38E0300120080
:022008000102D3
:067FF80080F4C5FFFFF15B
:00000001FF
