:0400000063EF00F0BA
:0C000800FACF7FF0FBCF80F057EF09F03B
:10001800D8CF1CF0E8CF1DF0E0CF1EF0FACF1FF0CC
:10002800FBCF20F0E9CF21F0EACF22F0E1CF23F097
:10003800E2CF24F0D9CF25F0DACF26F0F3CF27F09E
:10004800F4CF28F0F6CF29F0F7CF2AF0F8CF2BF02D
:10005800F5CF2CF09EAC03D09E9C4FEC0DF09EA0EB
:1000680003D09E9053EC0EF09EB86BEC0BF09EAA5A
:1000780003D09E9A5AEC07F02CC0F5FF2BC0F8FF6E
:100088002AC0F7FF29C0F6FF28C0F4FF27C0F3FFF6
:1000980026C0DAFF25C0D9FF24C0E2FF23C0E1FF54
:1000A80022C0EAFF21C0E9FF20C0FBFF1FC0FAFF02
:1000B8001EC0E0FF1DC0E8FF1CC0D8FF100056EFAF
:1000C8000AF0000120EE0DF00001CF51D926000101
:1000D800D051DA22DF50050AD8B41200B5D1000198
:1000E80020EE1CF00001CF51D9260001D051DA22B0
:1000F800DF5000017A6F00017AA10BD0000120EED9
:100108000DF00001CF51D9260001D051DA22070E97
:100118000AD0000120EE0DF00001CF51D9260001D0
:10012800D051DA22090EDF6E000120EE0BF000013B
:10013800CF51D9260001D051DA22000EDF6E00011E
:1001480020EE1CF00001CF51D9260001D051DA224F
:10015800DF50C96E1200C5BC70D0000120EE1BF044
:100168000001CF51D9260001D051DA22DF50000119
:100178007A6F00017A51010D100EF326000EF42259
:10018800F35000010001CF25D96EF45000010001A1
:10019800D021DA6EDF50C96E000120EE1AF000019E
:1001A800CF51D9260001D051DA22DF5000017A6FF1
:1001B8007B6B000120EE1BF00001CF51D926000116
:1001C800D051DA22DF5000017C6F7D6B010E0001F7
:1001D8007C27000E7D2300017D51800A00017E6F7F
:1001E80000017A5100017C5D00017B51800A000109
:1001F8007E59D8B016D0000120EE1BF00001CF5177
:10020800D9260001D051DA22DF2A000120EE0DF0B4
:100218000001CF51D9260001D051DA22090EDF6E34
:100228001200000120EE0DF00001CF51D926000187
:10023800D051DA220D0EDF6E1200C582000120EEC9
:100248000DF00001CF51D9260001D051DA220A0E53
:10025800DF6E1200C5BC0DD0C586000120EE0DF082
:100268000001CF51D9260001D051DA220C0EDF6EE1
:100278001200000120EE04F00001CF51D926000140
:10028800D051DA22780EDF6201D08A8400017A6FB9
:100298002E0E00010001766F00017A510001000165
:1002A800D0C078F000010001CFC077F0000E6AECF2
:1002B8000DF08A94000120EE0AF00001CF51D926F2
:1002C8000001D051DA22000EDF6E000120EE0DF0A1
:1002D8000001CF51D9260001D051DA22050EDF6E78
:1002E80012008A828A92000120EE0BF00001CF51A1
:1002F800D9260001D051DA22DF5000017A6F0001BF
:1003080020EE0AF00001CF51D9260001D051DA229F
:10031800DF5000017A5DD8B030D0000120EE0BF03C
:100328000001CF51D9260001D051DA22DF50000157
:100338007A6F00017A51010DF35000010001CF25B9
:10034800D96EF45000010001D021DA6EC9CFDFFF69
:10035800000120EE0BF00001CF51D9260001D05149
:10036800DA22DF2A000120EE0DF00001CF51D92654
:100378000001D051DA22070EDF6E000120EE0BF0EB
:100388000001CF51D9260001D051DA22000110EE28
:100398000AF00001CF51E1260001D051E222E750D6
:1003A800DF622AD0000120EE0DF00001CF51D926DE
:1003B8000001D051DA220B0EDF6E00017A6F2D0E8C
:1003C80000010001766F00017A5100010001D0C0E0
:1003D80078F000010001CFC077F0000120EE0AF0AC
:1003E8000001CF51D9260001D051DA22DF506AEC42
:1003F8000DF0C58AC5881200C59AC588120000018B
:1004080020EE0DF00001CF51D9260001D051DA229B
:10041800050EDF6E000120EE0AF00001CF51D9264B
:100428000001D051DA22DF509FEC0BF01200C58496
:10043800000120EE0DF00001CF51D9260001D05166
:10044800DA22050EDF6E1200000120EE0DF0000129
:10045800CF51D9260001D051DA22DF50070AD8B48B
:10046800F9D60E0AD8B477D6030AD8B438D6010A12
:10047800D8B4DDD7070AD8B434D7010AD8A41200F3
:10048800BED7E00ED36E9B8C0101010E0001000166
:100498008E6F01019C0E000100018D6FE8EC0DF0DC
:1004A8000101010E000100018E6F0101A90E00017A
:1004B80000018D6F01EC0BF00101010E000100013C
:1004C8008E6F0101980E000100018D6F26EC0EF071
:1004D800CAEC0AF09368000E8A6E000E806E000E59
:1004E800896E0F0E926ED50EA0EC0DF00001B16F63
:1004F800000E000100018D6F0001B1519B0ED9EC77
:100508000CF09F9C9D8C9F90F1849F9A9F989F864A
:10051800C8EC0DF09D86000E000100018E6F260EBE
:1005280000018D6FEC0E9AEC09F0AC8E946860ECCB
:100538000EF00001B16F0C0E000100018D6F00017B
:10054800B151000E000100018F6F0B0E00018E6F7C
:10055800530E74EC08F08F0ED8EC0DF0C6C186F17E
:10056800C7C187F1C8C189F1C9C18AF10101010E6A
:10057800000100018E6F0101890E000100018D6FDD
:10058800020E1AEC08F0DAEC09F00101010E000184
:100598000001A66F01019A0E00010001A56F01017B
:1005A800010E00010001A86F01018B0E000100017E
:1005B800A76F0A0EB8EC0CF0010101019B6F010155
:1005C80001019BBF4DD03CD00101010E000100018B
:1005D8008E6F0101960E000100018D6F010100016F
:1005E8009AC18FF000010001906B010101019B513C
:1005F80000010001916F0001926B000191BF920709
:100608000101010E00010001946F01018B0E000130
:100618000001936F1DEC0EF023D08BC188F120D020
:100628000101010E000100018E6F01018B0E000116
:1006380000018D6F010101019B511AEC08F010D0E7
:10064800010101019A510A0AD8B4BED7220AD8B4C6
:10065800E4D7010AD8B4E1D7040AD8B4E1D7030A29
:100668000101010E00010001A66F01019A0E0001AF
:100678000001A56F0101010E00010001A86F010131
:100688008B0E00010001A76F0A0E97EC0CF0010118
:1006980001019B6F010101019BBF75D772D0010158
:1006A800010E00010001A86F0101980E0001000170
:1006B800A76F010100019AC1A9F000010001AA6B0E
:1006C800010101019B5100010001AB6F0001AC6BFE
:1006D8000001ABBFAC070101010E00010001AE6FC4
:1006E80001018B0E00010001AD6F91EC0AF04BD7B0
:1006F800010101018B51BA0AD8A41ED00001B16FC3
:10070800050E000100018D6F0001B1510101010EBC
:10071800000100018F6F01018B0E000100018E6F37
:100728000001B26FBE0E00010001906F0001B251CE
:10073800050E81EC04F023D0010101018B51AA0AB6
:10074800D8A41DD00001B16F050E000100018D6F06
:100758000001B1510101010E000100018F6F01017B
:100768008B0E000100018E6F0001B26F9E0E00011A
:100778000001906F0001B251010E81EC04F08A94DF
:1007880002D7010101019A510B0AD8B488D7150A7A
:10079800D8B4AED7010AD8B4ABD7F5D6000120EE4D
:1007A80042F000019751D92600019851DA22DF5012
:1007B80000010001A06F00010001A0510D0DF350D0
:1007C80000010001972500010001A36FF45000010A
:1007D800000198210001A46F010EA3C0D9FFA4C095
:1007E800DAFFDF6288D0000120EE01F00001A3519A
:1007F800D9260001A451DA22DF5000010001995DD9
:10080800D8B002D0FD0E1200000120EE01F0000168
:10081800A351D9260001A451DA22DF5000019E6FAE
:1008280000019E5100010001A16F0001A26B0001AF
:1008380000019DC08EF0000100019CC08DF0030EE8
:1008480000010001A32500019E6F000E00010001B8
:10085800A42100019F6F9EC08FF09FC090F0A1C09F
:1008680091F0A2C092F0D1EC0BF0000120EE42F022
:1008780000019751D92600019851DA22000110EEA3
:1008880042F000019751E12600019851E222E75019
:1008980000019E6F010E00019E25000100018D6F71
:1008A800000100018E6B000E8E23000E0001000176
:1008B800906F050E00018F6F4CEC06F000010001EF
:1008C8008D51DF6E000120EE02F00001A351D92600
:1008D8000001A451DA229AC0E1FF9BC0E2FFDFCFFA
:1008E800E7FFA3C0D9FFA4C0DAFF000EDF6E000146
:1008F8000001A1511200FC0E1200E8CF93F0000194
:1009080020EE1AF00001CF51D9260001D051DA2289
:10091800000EDF6E42D0000120EE1AF00001CF5128
:10092800D9260001D051DA22DF500001916F000171
:100938009151010DF350000100018E25D96EF4503C
:10094800000100018F21DA6E000110EE1AF000019B
:10095800CF51E1260001D051E222E7500001926F09
:1009680000019251010D100EF326000EF422F350EF
:1009780000010001CF25E16EF45000010001D021F3
:10098800E26EDFCFE7FF000120EE1AF00001CF5141
:10099800D9260001D051DA22DF2A000120EE1AF010
:1009A8000001CF51D9260001D051DA22DF500001D1
:1009B800916F0001000193510001915DD8A0ABD760
:1009C800000120EE1CF00001CF51D9260001D051C2
:1009D800DA22000190C0DFFF000120EE1AF00001CA
:1009E800CF51D9260001D051DA22000193C0DFFF90
:1009F800000120EE0AF00001CF51D9260001D051A4
:100A0800DA2200018DC0DFFF000120EE0DF00001A9
:100A1800CF51D9260001D051DA220A0EDF6E00012B
:100A280020EE1BF00001CF51D9260001D051DA2267
:100A3800000EDF6EC58012000001000199C09EF013
:100A4800000100019F6B000120EE41F00001975169
:100A5800D92600019851DA22DF5000010001A06F69
:100A680000010001A0510D0DF35000010001972570
:100A780000010001A16FF45000010001982100015C
:100A8800A26FA1C0D9FFA2C0DAFFDF50D8B402D04C
:100A9800FF0E1200000120EE01F00001A151D9263D
:100AA8000001A251DA22000199C0DFFF000120EE07
:100AB80002F00001A151D9260001A251DA22000159
:100AC8009AC0DFFF030E00010001A125000100010B
:100AD8008D6F000E00010001A22100018E6F000140
:100AE80000019CC090F0000100019BC08FF09EC0E7
:100AF80091F09FC092F0D1EC0BF0000120EE41F094
:100B080000019751D92600019851DA22000110EE10
:100B180041F000019751E12600019851E222E75087
:100B280000019D6F010E00019D25000100018D6FE0
:100B3800000100018E6B000E8E23000E00010001E3
:100B4800906F050E00018F6F4CEC06F0000100015C
:100B58008D51DF6EA1C0D9FFA2C0DAFF010EDF6E92
:100B6800010E1200000100016CC071F000010001CB
:100B7800726B000120EE41F000016A51D926000194
:100B88006B51DA22DF5000010001736F0001000190
:100B980073510D0DF350000100016A250001000199
:100BA800746FF450000100016B210001756F74C06F
:100BB800D9FF75C0DAFFDF50D8B402D0FF0E12009B
:100BC800000120EE01F000017451D9260001755191
:100BD800DA2200016CC0DFFF000120EE02F0000104
:100BE8007451D92600017551DA2200016DC0DFFF6A
:100BF800030E00010001742500010001606F000E62
:100C08000001000175210001616F000100016FC042
:100C180063F0000100016EC062F071C064F072C040
:100C280065F000EC0CF0000120EE41F000016A5183
:100C3800D92600016B51DA22000110EE41F00001C3
:100C48006A51E12600016B51E222E7500001706F02
:100C5800010E0001702500010001606F0001000114
:100C6800616B000E6123000E00010001636F050E29
:100C78000001626FD3EC06F0000100016051DF6EE5
:100C880074C0D9FF75C0DAFF010EDF6E010E1200C5
:100C98000001916F000E00010001936F0001915156
:100CA800000100018E51800AF36E800EF35C000E85
:100CB800D8B48D5DD8B00FD0000100018D6D000152
:100CC8008E1FD8B08E2B0001916F010E000100011C
:100CD800936F00019151000100019051800AF36E59
:100CE800800EF35C000ED8B48F5DD8B007D0000139
:100CF80000018F6D0001901FD8B0902B00010001FA
:100D080090518F11D8B43AD00001916F010E0001B3
:100D18000001926F0001915109D00001000100010A
:100D2800D8908F37903700010001922B0001000105
:100D380090AFF3D7000100018F51000100018D5DD4
:100D4800000100019051000100018E59D8A00CD07B
:100D5800000100018F51000100018D5F00010001B9
:100D68009051000100018E5B000100010001D89044
:100D780090338F3300010001922FDCD7000100016E
:100D88009351D8B407D0000100018D6D00018E1F6A
:100D9800D8B08E2B8DC08DF08EC08EF01200000161
:100DA800646F000E00010001666F000164510001CC
:100DB80000016151800AF36E800EF35C000ED8B416
:100DC800605DD8B00FD000010001606D0001611FA7
:100DD800D8B0612B0001646F010E00010001666F3D
:100DE80000016451000100016351800AF36E800E16
:100DF800F35C000ED8B4625DD8B007D000010001E2
:100E0800626D0001631FD8B0632B000100016351BC
:100E18006211D8B43AD00001646F010E00010001DC
:100E2800656F0001645109D0000100010001D890EC
:100E38006237633700010001652B0001000163AFD1
:100E4800F3D700010001625100010001605D00015B
:100E580000016351000100016159D8A00CD00001C4
:100E68000001625100010001605F0001000163514F
:100E780000010001615B000100010001D8906333AB
:100E8800623300010001652FDCD7000100016651C3
:100E9800D8B407D000010001606D0001611FD8B00F
:100EA800612B60C060F061C061F012009EAA4ED054
:100EB80020EE05F03D50D9263E50DA22DF501B6E59
:100EC8001B50010DF3503D24D96EF4503E20DA6ECC
:100ED800F7EC0DF0DF6E20EE05F03D50D9263E50C0
:100EE800DA22DF2AC90E395C000E3A58D8A00CD095
:100EF80020EE05F03D50D9263E50DA22010EDF6E75
:100F0800000E3A6E000E396E20EE05F03D50D926DF
:100F18003E50DA22050EDF6219D01B6E1F0E176EC7
:100F28001B503EC019F03DC018F020EE05F03D50B2
:100F3800D9263E50DA22DF50B5EC0DF020EE05F050
:100F48003D50D9263E50DA22000EDF6E3CA6120034
:100F5800AC98AC881B6E1E0E176E1B50000E196ED7
:100F6800000E186E000EB5EC0DF012000DC012F058
:100F7800136A20EE41F00B50D9260C50DA22DF50CC
:100F8800146E14500D0DF3500B24156EF4500C20F4
:100F9800166E15C0D9FF16C0DAFFDF50D8B402D0DC
:100FA800FF0E120020EE01F01550D9261650DA2255
:100FB8000DC0DFFF20EE02F01550D9261650DA22B8
:100FC8000EC0DFFF030E1524016E000E1620026E00
:100FD80010C004F00FC003F012C005F013C006F0F3
:100FE800F9EC0CF020EE41F00B50D9260C50DA2227
:100FF80010EE41F00B50E1260C50E222E750116E42
:10100800010E1124016E026A000E0222000E046E07
:10101800050E036EC4EC08F00150DF6E15C0D9FF51
:1010280016C0DAFF010EDF6E010E1200E8CF91F054
:1010380020EE0BF03D50D9263E50DA22000EDF6E2E
:1010480035D020EE0BF03D50D9263E50DA22DF5045
:1010580000018F6F00018F51010DF3500001000155
:101068008D25D96EF450000100018E21DA6E10EE44
:101078000BF03D50E1263E50E222E7500001906F10
:1010880000019051010D060EF326000EF422F350D4
:101098003D24E16EF4503E20E26EDFCFE7FF20EE04
:1010A8000BF03D50D9263E50DA22DF2A20EE0BF015
:1010B8003D50D9263E50DA22DF5000018F6F0001E3
:1010C8000001915100018F5DD8A0BBD720EE0CF034
:1010D8003D50D9263E50DA22000EDF6E9D88120060
:1010E800E8CF93F0000EC26E000EC16E8DC090F076
:1010F800060E0001916F0001D89090370001912FE2
:10110800FAD7C00E0001901700010001D8908D3168
:101118003C0B00019011C26E93C090F00001D89072
:1011280090370001D8909037380E0001901793C07F
:1011380091F00001913B0F0E9117070E00019117D6
:10114800000100019351800B0001911100019011E1
:10115800C16E8EC048FF00018FC090F090C091F022
:101168000001926B000191510F010F01496F0001BD
:1011780000018DAF03D09E9C9D8CF28CC280120022
:10118800056E000E076E05500250800AF36E800E41
:10119800F35C000ED8B4015CD8B008D0016C021E14
:1011A800D8B0022A056E010E076E05500450800A59
:1011B800F36E800EF35C000ED8B4035CD8B004D094
:1011C800036C041ED8B0042A04500310D8B41AD0F3
:1011D800056E010E066E055004D0D890033604360D
:1011E800062A04AEFAD70350015C04500258D8A06E
:1011F80004D00350015E0450025AD89004320332DE
:10120800062EF1D70750D8B404D0016C021ED8B00E
:10121800022A01C001F002C002F012000001000120
:1012280090518F11D8B43AD00001916F010E00018E
:101238000001926F0001915109D0000100010001E5
:10124800D8908F37903700010001922B00010001E0
:1012580090AFF3D7000100018F51000100018D5DAF
:10126800000100019051000100018E59D8A00CD056
:10127800000100018F51000100018D5F0001000194
:101288009051000100018E5B000100010001D8901F
:1012980090338F3300010001922FDCD78DC08DF081
:1012A8008EC08EF01200E9CF81F0EACF82F0E1CF54
:1012B80083F0E2CF84F0D9CF85F0DACF86F0F3CF90
:1012C80087F0F4CF88F0F6CF89F0F7CF8AF0F8CF1F
:1012D8008BF0F5CF8CF09EA603D09E9664EC0EF0B2
:1012E800F2A405D0F294808006EC0EF0809036ECE3
:1012F8000BF08CC0F5FF8BC0F8FF8AC0F7FF89C0E0
:10130800F6FF88C0F4FF87C0F3FF86C0DAFF85C008
:10131800D9FF84C0E2FF83C0E1FF82C0EAFF81C039
:10132800E9FF80C0FBFF7FC0FAFF1100E8CF92F011
:10133800000EAD6E000EAC6E0001000192B1AD88DA
:101348000001000192A302D0AD8CAC8C0001000119
:1013580092B5AD8E0001000192A702D0AC8801D0F1
:10136800AC8A0001000192B9AD840001000192BB72
:10137800AC860001000192AD02D09D8A01D09D9AF1
:101388000001000192AF02D09D8801D09D988DC0C8
:10139800B0FF00018EC08FF08FC090F00001916BFC
:1013A800000190517F6EAD8AAC8E120075EC0CF086
:1013B80000010001925100019111D8B412000001FE
:1013C800936F010E3B6E000193510101010E000164
:1013D80000018E6F0101000E000100018D6F34ECD9
:1013E8000DF00009D8B407D00001936F000E3B6ED2
:1013F8000001935112000101010E000100018E6FDE
:101408000101430E000100018D6F34EC0DF000095D
:10141800D8B407D00001936F000E3B6E00019351C2
:1014280012000A0E12EC0EF0D0D7000120EE41F0A7
:1014380000018D51D92600018E51DA22000EDF6E8F
:10144800000120EE42F000018D51D92600018E5195
:10145800DA22000EDF6E00018F6F000E000100011E
:10146800906F00018F51040E00010001906501D0BA
:1014780012000001000190510D0DF3500001000110
:101488008D25D96EF450000100018E21DA6E000E10
:10149800DF6E00010001902B040E00010001906531
:1014A800E8D7120002EE00F0860EEE6AE806FDE1CB
:1014B80001EE00F0860EEE6AE806FDE100EEB3F0FC
:1014C8001C0EEE6AE806FDE13C6A3B6A3A6A396A34
:1014D800D40EF66E1C0EF76E000EF86E01EEC6F016
:1014E80010EE04F00900F5CFEEFFE550E150FAE107
:1014F800B40EF66E1C0EF76E000EF86E00EE2DF0B0
:1015080010EE0CF00900F5CFEEFFE550E150FAE1DE
:10151800000EF86E000145EF02F0A7C0D9FFA8C081
:10152800DAFFDE2A000EDD22A7C0D9FFA8C0DAFF45
:101538000001DECF8DF00001DDCF8EF0000E00013E
:101548000001906F0A0E00018F6F12EC09F0000184
:1015580000018D51090A00018E11D8A41200000162
:10156800AF6F140E00010001A36F0001AF5100011D
:101578000001A8C0A5F000010001A7C0A4F0020E58
:1015880019EC0DF000010001B06F12000001916F1D
:10159800000E3B6E000191510101010E0001000196
:1015A8008E6F0101430E000100018D6F19EC0AF0E6
:1015B8000101010E000100018E6F0101000E000102
:1015C80000018D6F19EC0AF00201020E0001000102
:1015D8008E6F0201430E000100018D6F19EC0AF0B5
:1015E8000201020E000100018E6F0201000E0001CF
:1015F80000018D6F19EC0AF01200000100018EC085
:10160800D0F0000100018DC0CFF0000120EE0AF0FB
:101618000001CF51D9260001D051DA22000EDF6E29
:10162800000120EE0CF00001CF51D9260001D05165
:10163800DA22000EDF6E000120EE0DF00001CF511E
:10164800D9260001D051DA22050EDF6E000120EE06
:101658000FF00001CF51D9260001D051DA22000E37
:10166800DF6E12003B6601D0120052EC0CF0000154
:101678000001635100016211D8A412004AEC0EF077
:1016880000010001615100016011D8B4120001018C
:10169800010E00010001616F0101000E000100014F
:1016A800606F85EC0DF00009D8A412000101010E4D
:1016B80000010001616F0101430E00010001606F2C
:1016C80085EC0DF00009D8B467EC0EF01200ADA25D
:1016D800120020EE0CF03D50D9263E50DA22DF50A1
:1016E800016E20EE0BF03D50D9263E50DA22DF5035
:1016F800015CD8B01ED020EE0CF03D50D9263E50EB
:10170800DA22DF50016E0150010D060EF326000E9D
:10171800F422F3503D24D96EF4503E20DA6EDF50A7
:10172800AE6E20EE0CF03D50D9263E50DA22DF2A6C
:1017380012009D981200E8CF60F0000120EE0DF035
:101748000001CF51D9260001D051DA22050EDF62FF
:101758001200000120EE1CF00001CF51D926000133
:10176800D051DA22000EDB80000120EE0AF00001E1
:10177800CF51D9260001D051DA22000160C0DFFF25
:10178800000120EE0DF00001CF51D9260001D05103
:10179800DA220A0EDF6EC58212000001000190C035
:1017A80096F0000100018FC095F0000100018EC085
:1017B80094F0000100018DC093F012D095C0D9FFBC
:1017C80096C0DAFF93C0E1FF94C0E2FFDFCFE7FFE6
:1017D80000010001954B962B00010001934B942BBF
:1017E800000100019107D8A0920700019129D8B4FF
:1017F8009229D8B41200E2D70001000163C069F051
:101808000001000162C068F00001000161C067F0DA
:101818000001000160C066F012D068C0D9FF69C03D
:10182800DAFF66C0E1FF67C0E2FFDFCFE7FF000134
:101838000001684B692B00010001664B672B000112
:1018480000016407D8A0650700016429D8B4652998
:10185800D8B41200E2D7F2AC08D0000E00010001A3
:10186800906F000E00018F6F12002FEC0EF0000138
:1018780000018E5100018D11D8B408D0000E00016E
:101888000001906F000E00018F6F1200000E000122
:101898000001906F010E00018F6F1200F2AC08D0AA
:1018A800000E00010001636F000E0001626F12005C
:1018B8004AEC0EF000010001615100016011D8B43A
:1018C80008D0000E00010001636F000E0001626F76
:1018D8001200000E00010001636F010E0001626F2B
:1018E80012002FEC0CF000010001905100018F1143
:1018F800D8A411D02FEC0EF0000100018E51000188
:101908008D11D8A408D0000E00010001926F010EBD
:101918000001916F1200000E00010001926F000E8D
:101928000001916F1200E8CFA9F00101010E00013A
:101938000001986F0101430E00010001976FA9C0D3
:1019480099F000010001A6C09BF000010001A5C0AC
:101958009AF000010001A8C09DF000010001A7C095
:101968009CF0D2EC03F01200E8CFA9F00101010EBF
:1019780000010001986F0101000E00010001976F3E
:10198800A9C099F000010001A6C09BF00001000168
:10199800A5C09AF000010001A8C09DF00001000157
:1019A800A7C09CF0D2EC03F01200E8CF8FF0000142
:1019B80000018D51F30B9A6E8FC08EF07F0E0001DF
:1019C8008E170001D8908E35CD6E000ECF6E000EAA
:1019D800CE6E9E90000100018FAF02D09D8001D095
:1019E8009D909ABE9A86CD80120004C00AF003C06A
:1019F80009F002C008F001C007F00ED009C0D9FFF5
:101A08000AC0DAFF07C0E1FF08C0E2FFDFCFE7FF47
:101A1800094A0A2A074A082A0506D8A006060528F8
:101A2800D8B40628D8B41200E9D7E8CFA6F0020146
:101A3800020E00010001986F0201000E0001000172
:101A4800976FA6C099F0A3C09AF000010001A5C045
:101A58009CF000010001A4C09BF020EC05F01200EE
:101A6800000120EE42F000018D51D92600018E516F
:101A7800DA22DF5000018F6F00018F510D0DF350F6
:101A8800000100018D25D96EF450000100018E215E
:101A9800DA6EDF5012001B0E00010001B35DD8B0F2
:101AA80006D000010001B32900010001B36F000155
:101AB8000001B351010D0001B30EF324D96E0001EA
:101AC800000EF420DA6EC4CFDFFF1200E8CF79F001
:101AD8000101010E000100016B6F0101000E000100
:101AE80000016A6F79C06CF076C06DF000010001EA
:101AF80078C06FF00001000177C06EF0B6EC05F019
:101B08001200000120EE42F000016051D9260001C8
:101B18006151DA22DF500001626F000162510D0D40
:101B2800F350000100016025D96EF4500001000156
:101B38006121DA6EDF501200E8CF8DF0000100015C
:101B48008D517F0BD56E000ED76E000ED66EF294B7
:101B5800000100018DAF02D0F28A01D0F29AD58E31
:101B68001200E8CF1AF00101010E0C6E0101430EBC
:101B78000B6E1AC00DF017C00EF019C010F018C087
:101B88000FF0BAEC07F01200000EC76E000EC66E1A
:101B9800000EC56E948694881D0EC86EC650F00B54
:101BA8000809C66EC68A1200E8CF8EF0C2CF8DF043
:101BB800C30E00018D1700010001D8908E313C0B37
:101BC80000018D11C26E120000018EC03EF00001AE
:101BD8008DC03DF020EE05F03D50D9263E50DA226A
:101BE800000EDF6E1200F20E3C16ACAC03D03C9037
:101BF800ACB03C80ACB43C84ACB23C86AFCF01F016
:101C080001501200000E00010001616F000E00017A
:101C1800606F41EC0EF0394A3A2A1200E8CF8DF095
:101C2800FA0E00F0E82EFDD7000100018D2FF8D73D
:101C380012000001000194C096F00001000193C059
:101C480095F012008DC0D9FF8EC0DAFF000EDE6E4F
:101C5800000EDD6E1200000EF2AE010E0001000152
:101C68008D6F00018E6B120001C003F002C004F0FA
:101C780004C0CFFF03C0CEFF120060C062F061C095
:101C880063F063C0D7FF62C0D6FF1200000EF2AE49
:101C9800010E00010001606F0001616B1200000E6F
:101CA800026E000E016E38EC0EF012000101020304
:101CB8000603040400009F1FD08EF28EF28C1200DF
:101CC80065EC00F01200D38E0300120001029F1F82
:08FFF8008AF795FFF2F9FFF111
:00000001FF
