:0400000063EF00F0BA
:0C000800FACF7FF0FBCF80F013EF0AF07E
:10001800D8CF1CF0E8CF1DF0E0CF1EF0FACF1FF0CC
:10002800FBCF20F0E9CF21F0EACF22F0E1CF23F097
:10003800E2CF24F0D9CF25F0DACF26F0F3CF27F09E
:10004800F4CF28F0F6CF29F0F7CF2AF0F8CF2BF02D
:10005800F5CF2CF09EAC03D09E9CD8EC0EF09EA061
:1000680003D09E909CEC0DF09EB8EEEC0BF09EAA8F
:1000780003D09E9A5BEC08F02CC0F5FF2BC0F8FF6C
:100088002AC0F7FF29C0F6FF28C0F4FF27C0F3FFF6
:1000980026C0DAFF25C0D9FF24C0E2FF23C0E1FF54
:1000A80022C0EAFF21C0E9FF20C0FBFF1FC0FAFF02
:1000B8001EC0E0FF1DC0E8FF1CC0D8FF1000D3EF32
:1000C8000AF0E00ED36E9B8C0101010E00010001C5
:1000D8008E6F0101B10E000100018D6F52EC0EF020
:1000E8000101010E000100018E6F0101C00E000127
:1000F80000018D6F84EC0BF00101010E000100017D
:100108008E6F0101970E000100018D6F9BEC0EF0C0
:100118004DEC0BF09368000E8A6E000E806E000E98
:10012800896E000E926ED50E0AEC0EF00001AA6FD1
:10013800000E000100018D6F0001AA519B0E5CECBE
:100148000DF09F9C9D8C9F90F1849F9A9F989F860D
:1001580032EC0EF09D86000E000100018E6F260E17
:1001680000018D6FEC0E54EC0AF0AC8E9468CEEC66
:100178000EF00001AA6F0C0E000100018D6F000146
:10018800AA51000E000100018F6F0B0E00018E6F47
:10019800530E75EC09F08F0E42EC0EF0EFC18CF1A6
:1001A800F0C18DF1000E01010101B06F000E0101D7
:1001B800AF6F89928994899694EC0AF00101010E37
:1001C80000010001A66F0101AE0E00010001A56F3C
:1001D8000101010E00010001A86F0101A00E00013C
:1001E8000001A76F0A0E3BEC0DF001010101AD6F94
:1001F80001010101ADBF93D182D10101010E0001BE
:1002080000018E6F0101950E000100018D6F010143
:100218000001AEC18FF000010001906B01010101E6
:10022800AD5100010001916F0001926B000191BF77
:1002380092070101010E00010001946F0101A00E57
:1002480000010001936F92EC0EF069D1A0C194F106
:1002580066D101010101A051040AD8A40CD0010102
:100268000101A105D8A407D0000E01010101B06F5A
:10027800000E0101AF6F21EEDDF011EE8EF0060EDB
:10028800DECFE6FFE82EFCD721EEE3F011EE9AF080
:10029800060EDECFE6FFE82EFCD701010101A0051E
:1002A800D8A41AD101010101B051AF11D8A40ED0C0
:1002B8000101010E000100018E6F0101A00E000175
:1002C80000018D6F060E1BEC09F029D10101010117
:1002D800AF51030AB011D8A42CD0010121EEA3F02C
:1002E800590EDF641CD10001AA6F060E000100013F
:1002F8008D6F0001AA510101010E000100018F6FED
:1003080001018E0E000100018E6F0001AB6FBE0E61
:1003180000010001906F0001AB51060E18EC06F0C9
:10032800000E01010101B06F000E0101AF6F89924B
:1003380031D001010101AF05B011D8A4F0D0210ED0
:1003480001010101A15DD8B027D00001AA6F060EF6
:10035800000100018D6F0001AA510101010E000189
:1003680000018F6F01018E0E000100018E6F0001E8
:10037800AB6FBE0E00010001906F0001AB51060E7D
:1003880018EC06F0000E01010101B06F000E01012A
:10039800AF6F8982899444D0010121EEA2F0590EF1
:1003A800DF640AD0000E01010101B06F030E0101E4
:1003B800AF6F898289848ED0200E01010101A25D70
:1003C800D8B006D0010121EEA3F01F0EDF642AD0B9
:1003D800ABC19BF101010101AC510A0F01010101FF
:1003E8009C6F0001AA6F060E000100018D6F0001CD
:1003F800AA510101010E000100018F6F01019A0E3F
:10040800000100018E6F0001AB6FBE0E00010001FC
:10041800906F0001AB51060E18EC06F0898235D0BA
:1004280089867DD0010121EEA2F01E0EDF6406D080
:100438001F0E01010101A35DD8B029D001010101FE
:10044800AB510A0F010101019B6FACC19CF1000186
:10045800AA6F060E000100018D6F0001AA5101016B
:10046800010E000100018F6F01019A0E00010001C9
:100478008E6F0001AB6FBE0E00010001906F00018E
:10048800AB51060E18EC06F089928984C9D7ABC126
:100498009BF1ACC19CF10001AA6F060E000100019E
:1004A8008D6F0001AA510101010E000100018F6F3B
:1004B80001019A0E000100018E6F0001AB6FBE0EA4
:1004C80000010001906F0001AB51060E18EC06F018
:1004D80089828994899623D001010101A051D8B459
:1004E8001ED00101010E000100018E6F0101A00E56
:1004F800000100018D6F060E1BEC09F010D0010100
:100508000101AE510A0AD8B478D6220AD8B49ED6C8
:10051800010AD8B49BD6040AD8B49BD6030A0101B1
:10052800010E00010001A66F0101AE0E00010001DD
:10053800A56F0101010E00010001A86F0101A00EC5
:1005480000010001A76F0A0E1AEC0DF0010101016C
:10055800AD6F01010101ADBF2FD6CAD08980F1C1AD
:1005680099F101010101AF05B011D8B407D001011B
:100578000101AF51030AB011D8A41DD00001AA6F20
:10058800060E000100018D6F0001AA510101010E44
:10059800000100018F6F0101990E000100018E6FAB
:1005A8000001AB6F9E0E00010001906F0001AB517E
:1005B800010E18EC06F08990FFD501010101A05148
:1005C800BA0AD8B40CD001010101A051CA0AD8B4A2
:1005D80006D001010101A051BC0AD8A464D00101D0
:1005E8000101A051BA0AD8B406D001010101A051F5
:1005F800BC0AD8A43AD021EEE9F011EE86F0060E36
:10060800DECFE6FFE82EFCD70101010E0001000154
:100618008E6F0101860E000100018D6F060E1BEC26
:1006280009F0A1C1ABF1A2C1ACF101010101A051D6
:10063800BA0AD8A40AD0000E01010101B06F020E57
:100648000101AF6F899289840FD001010101A05186
:10065800BC0AD8A40AD0000E01010101B06F010E36
:100668000101AF6F8982899489960001AA6F060EED
:10067800000100018D6F0001AA510101010E000166
:1006880000018F6F0101A00E000100018E6F0001B3
:10069800AB6FBE0E00010001906F0001AB51060E5A
:1006A80018EC06F023D001010101A051AA0AD8A430
:1006B8001DD00001AA6F060E000100018D6F000118
:1006C800AA510101010E000100018F6F0101A00E66
:1006D800000100018E6F0001AB6F9E0E000100014A
:1006E800906F0001AB51010E18EC06F08A9464D5A6
:1006F80001010101AE510B0AD8B430D7150AD8B49C
:100708005CD7010AD8B459D757D5000120EE0DF0AF
:100718000001C851D9260001C951DA22DF50050A63
:10072800D8B41200B5D1000120EE1CF00001C85168
:10073800D9260001C951DA22DF5000017A6F000181
:100748007AA10BD0000120EE0DF00001C851D92686
:100758000001C951DA22070E0AD0000120EE0DF07F
:100768000001C851D9260001C951DA22090EDF6EED
:10077800000120EE0BF00001C851D9260001C95133
:10078800DA22000EDF6E000120EE1CF00001C851D5
:10079800D9260001C951DA22DF50C96E1200C5BC42
:1007A80070D0000120EE1BF00001C851D9260001CD
:1007B800C951DA22DF5000017A6F00017A51010D28
:1007C800100EF326000EF422F35000010001C82594
:1007D800D96EF45000010001C921DA6EDF50C96EEC
:1007E800000120EE1AF00001C851D9260001C951B4
:1007F800DA22DF5000017A6F7B6B000120EE1BF0DC
:100808000001C851D9260001C951DA22DF50000180
:100818007C6F7D6B010E00017C27000E7D2300019B
:100828007D51800A00017E6F00017A5100017C5DD4
:1008380000017B51800A00017E59D8B016D0000112
:1008480020EE1BF00001C851D9260001C951DA2257
:10085800DF2A000120EE0DF00001C851D926000161
:10086800C951DA22090EDF6E1200000120EE0DF0E8
:100878000001C851D9260001C951DA220D0EDF6ED8
:100888001200C582000120EE0DF00001C851D926E2
:100898000001C951DA220A0EDF6E1200C5BC0DD064
:1008A800C586000120EE0DF00001C851D9260001CF
:1008B800C951DA220C0EDF6E1200000120EE04F09E
:1008C8000001C851D9260001C951DA22780EDF6229
:1008D80001D08A8400017A6F2E0E00010001766F24
:1008E80000017A5100010001C9C078F0000100013F
:1008F800C8C077F0000ED4EC0DF08A94000120EE09
:100908000AF00001C851D9260001C951DA22000EA7
:10091800DF6E000120EE0DF00001C851D92600015C
:10092800C951DA22050EDF6E12008A828A9200010E
:1009380020EE0BF00001C851D9260001C951DA2276
:10094800DF5000017A6F000120EE0AF00001C85163
:10095800D9260001C951DA22DF5000017A5DD8B0EA
:1009680030D0000120EE0BF00001C851D92600015B
:10097800C951DA22DF5000017A6F00017A51010D66
:10098800F35000010001C825D96EF45000010001A0
:10099800C921DA6EC9CFDFFF000120EE0BF000019C
:1009A800C851D9260001C951DA22DF2A000120EEF8
:1009B8000DF00001C851D9260001C951DA22070EED
:1009C800DF6E000120EE0BF00001C851D9260001AE
:1009D800C951DA22000110EE0AF00001C851E126DF
:1009E8000001C951E222E750DF622AD0000120EE5F
:1009F8000DF00001C851D9260001C951DA220B0EA9
:100A0800DF6E00017A6F2D0E00010001766F000184
:100A18007A5100010001C9C078F000010001C8C086
:100A280077F0000120EE0AF00001C851D926000134
:100A3800C951DA22DF50D4EC0DF0C58AC5881200FE
:100A4800C59AC5881200000120EE0DF00001C851BA
:100A5800D9260001C951DA22050EDF6E000120EE09
:100A68000AF00001C851D9260001C951DA22DF5025
:100A780022EC0CF01200C584000120EE0DF00001FC
:100A8800C851D9260001C951DA22050EDF6E1200BD
:100A9800000120EE0DF00001C851D9260001C9510E
:100AA800DA22DF50070AD8B4F9D60E0AD8B477D6B6
:100AB800030AD8B438D6010AD8B4DDD7070AD8B49F
:100AC80034D7010AD8A41200BED7000120EE42F0A4
:100AD80000019751D92600019851DA22DF50000110
:100AE8000001A06F00010001A0510D0DF35000019D
:100AF8000001972500010001A36FF45000010001D7
:100B080098210001A46F010EA3C0D9FFA4C0DAFF89
:100B1800DF6288D0000120EE01F00001A351D92640
:100B28000001A451DA22DF5000010001995DD8B01C
:100B380002D0FD0E1200000120EE01F00001A351C9
:100B4800D9260001A451DA22DF5000019E6F00016E
:100B58009E5100010001A16F0001A26B000100017C
:100B68009DC08EF0000100019CC08DF0030E0001B5
:100B78000001A32500019E6F000E00010001A421C1
:100B880000019F6F9EC08FF09FC090F0A1C091F0B0
:100B9800A2C092F054EC0CF0000120EE42F00001EB
:100BA8009751D92600019851DA22000110EE42F03F
:100BB80000019751E12600019851E222E750000117
:100BC8009E6F010E00019E25000100018D6F00013E
:100BD80000018E6B000E8E23000E00010001906F45
:100BE800050E00018F6F4DEC07F0000100018D51DB
:100BF800DF6E000120EE02F00001A351D9260001AA
:100C0800A451DA229AC0E1FF9BC0E2FFDFCFE7FFE1
:100C1800A3C0D9FFA4C0DAFF000EDF6E00010001F7
:100C2800A1511200FC0E1200E8CF93F0000120EE53
:100C38001AF00001C851D9260001C951DA22000E64
:100C4800DF6E42D0000120EE1AF00001C851D9260B
:100C58000001C951DA22DF500001916F0001915162
:100C6800010DF350000100018E25D96EF4500001EA
:100C780000018F21DA6E000110EE1AF00001C85150
:100C8800E1260001C951E222E7500001926F0001FC
:100C98009251010D100EF326000EF422F3500001BC
:100CA8000001C825E16EF45000010001C921E26E7F
:100CB800DFCFE7FF000120EE1AF00001C851D92666
:100CC8000001C951DA22DF2A000120EE1AF00001E2
:100CD800C851D9260001C951DA22DF500001916FAD
:100CE8000001000193510001915DD8A0ABD700012C
:100CF80020EE1CF00001C851D9260001C951DA22A2
:100D0800000190C0DFFF000120EE1AF00001C85179
:100D1800D9260001C951DA22000193C0DFFF000182
:100D280020EE0AF00001C851D9260001C951DA2283
:100D380000018DC0DFFF000120EE0DF00001C85159
:100D4800D9260001C951DA220A0EDF6E000120EE11
:100D58001BF00001C851D9260001C951DA22000E42
:100D6800DF6EC5801200000100016CC071F0000147
:100D78000001726B000120EE41F000016A51D92692
:100D880000016B51DA22DF5000010001736F00018E
:100D9800000173510D0DF350000100016A25000197
:100DA8000001746FF450000100016B210001756FA0
:100DB80074C0D9FF75C0DAFFDF50D8B402D0FF0E77
:100DC8001200000120EE01F000017451D926000143
:100DD8007551DA2200016CC0DFFF000120EE02F03D
:100DE80000017451D92600017551DA2200016DC045
:100DF800DFFF030E00010001742500010001606F90
:100E0800000E0001000175210001616F0001000161
:100E18006FC063F0000100016EC062F071C064F041
:100E280072C065F083EC0CF0000120EE41F0000187
:100E38006A51D92600016B51DA22000110EE41F007
:100E480000016A51E12600016B51E222E7500001DE
:100E5800706F010E0001702500010001606F000134
:100E68000001616B000E6123000E00010001636F39
:100E7800050E0001626FD4EC07F00001000160511B
:100E8800DF6E74C0D9FF75C0DAFF010EDF6E010E88
:100E980012000001916F000E00010001936F000124
:100EA8009151000100018E51800AF36E800EF35CAF
:100EB800000ED8B48D5DD8B00FD0000100018D6D43
:100EC80000018E1FD8B08E2B0001916F010E00011A
:100ED8000001936F00019151000100019051800AB7
:100EE800F36E800EF35C000ED8B48F5DD8B007D0D7
:100EF800000100018F6D0001901FD8B0902B0001F8
:100F0800000190518F11D8B43AD00001916F010EB1
:100F180000010001926F0001915109D00001000108
:100F28000001D8908F37903700010001922B000103
:100F3800000190AFF3D7000100018F5100010001BB
:100F48008D5D000100019051000100018E59D8A06B
:100F58000CD0000100018F51000100018D5F0001DC
:100F680000019051000100018E5B000100010001A9
:100F7800D89090338F3300010001922FDCD7000105
:100F880000019351D8B407D0000100018D6D000114
:100F98008E1FD8B08E2B8DC08DF08EC08EF01200B3
:100FA8000001646F000E00010001666F00016451CA
:100FB800000100016151800AF36E800EF35C000E9F
:100FC800D8B4605DD8B00FD000010001606D000199
:100FD800611FD8B0612B0001646F010E0001000190
:100FE800666F00016451000100016351800AF36ECD
:100FF800800EF35C000ED8B4625DD8B007D0000153
:101008000001626D0001631FD8B0632B000100016D
:1010180063516211D8B43AD00001646F010E000127
:101028000001656F0001645109D000010001000151
:10103800D8906237633700010001652B0001000179
:1010480063AFF3D700010001625100010001605D48
:10105800000100016351000100016159D8A00CD0C2
:1010680000010001625100010001605F0001000100
:10107800635100010001615B000100010001D8908B
:101088006333623300010001652FDCD700010001E2
:101098006651D8B407D000010001606D0001611FDE
:1010A800D8B0612B60C060F061C061F012009EAAE8
:1010B8004ED020EE06F03F50D9264050DA22DF50BD
:1010C8001B6E1B50010DF3503F24D96EF450402085
:1010D800DA6E61EC0EF0DF6E20EE06F03F50D92696
:1010E8004050DA22DF2A210E395C4E0E3A58D8A039
:1010F8000CD020EE06F03F50D9264050DA22010EDF
:10110800DF6E000E3A6E000E396E20EE06F03F508C
:10111800D9264050DA22060EDF6219D01B6E1F0E48
:10112800176E1B5040C019F03FC018F020EE06F0B3
:101138003F50D9264050DA22DF501FEC0EF020EE47
:1011480006F03F50D9264050DA22000EDF6E3EA648
:101158001200AC98AC881B6E1E0E176E1B50000E4A
:10116800196E000E186E000E1FEC0EF012000DC066
:1011780012F0136A20EE41F00B50D9260C50DA22F7
:10118800DF50146E14500D0DF3500B24156EF450EF
:101198000C20166E15C0D9FF16C0DAFFDF50D8B480
:1011A80002D0FF0E120020EE01F01550D92616507D
:1011B800DA220DC0DFFF20EE02F01550D9261650B6
:1011C800DA220EC0DFFF030E1524016E000E162072
:1011D800026E10C004F00FC003F012C005F013C077
:1011E80006F07CEC0DF020EE41F00B50D9260C50A7
:1011F800DA2210EE41F00B50E1260C50E222E750C3
:10120800116E010E1124016E026A000E0222000EF8
:10121800046E050E036EC5EC09F00150DF6E15C0B3
:10122800D9FF16C0DAFF010EDF6E010E1200E8CFFB
:1012380091F020EE0DF03F50D9264050DA22000EF2
:10124800DF6E35D020EE0DF03F50D9264050DA221F
:10125800DF5000018F6F00018F51010DF350000125
:1012680000018D25D96EF450000100018E21DA6E3F
:1012780010EE0DF03F50E1264050E222E750000109
:10128800906F00019051010D070EF326000EF42215
:10129800F3503F24E16EF4504020E26EDFCFE7FFC9
:1012A80020EE0DF03F50D9264050DA22DF2A20EEFA
:1012B8000DF03F50D9264050DA22DF5000018F6FE1
:1012C80000010001915100018F5DD8A0BBD720EE2D
:1012D8000EF03F50D9264050DA22000EDF6E9D886E
:1012E8001200E8CF93F0000EC26E000EC16E8DC0E2
:1012F80090F0060E0001916F0001D8909037000120
:10130800912FFAD7C00E0001901700010001D89064
:101318008D313C0B00019011C26E93C090F000011A
:10132800D89090370001D8909037380E0001901768
:1013380093C091F00001913B0F0E9117070E000129
:101348009117000100019351800B000191110001D8
:101358009011C16E8EC048FF00018FC090F090C000
:1013680091F00001926B000191510F010F01496F3B
:10137800000100018DAF03D09E9C9D8CF28CC28031
:101388001200056E000E076E05500250800AF36EBB
:10139800800EF35C000ED8B4015CD8B008D0016CA4
:1013A800021ED8B0022A056E010E076E05500450C1
:1013B800800AF36E800EF35C000ED8B4035CD8B0DC
:1013C80004D0036C041ED8B0042A04500310D8B407
:1013D8001AD0056E010E066E055004D0D89003365B
:1013E8000436062A04AEFAD70350015C04500258AA
:1013F800D8A004D00350015E0450025AD890043299
:101408000332062EF1D70750D8B404D0016C021E5F
:10141800D8B0022A01C001F002C002F01200E9CFE0
:1014280081F0EACF82F0E1CF83F0E2CF84F0D9CF28
:1014380085F0DACF86F0F3CF87F0F4CF88F0F6CFD7
:1014480089F0F7CF8AF0F8CF8BF0F5CF8CF09EA615
:1014580003D09E96D2EC0EF0F2A403D0F29470EC76
:101468000EF0B9EC0BF08CC0F5FF8BC0F8FF8AC00A
:10147800F7FF89C0F6FF88C0F4FF87C0F3FF86C076
:10148800DAFF85C0D9FF84C0E2FF83C0E1FF82C0D4
:10149800EAFF81C0E9FF80C0FBFF7FC0FAFF1100AF
:1014A800E8CF92F0000EAD6E000EAC6E00010001A8
:1014B80092B1AD880001000192A302D0AD8CAC8C32
:1014C8000001000192B5AD8E0001000192A702D083
:1014D800AC8801D0AC8A0001000192B9AD8400014A
:1014E800000192BBAC860001000192AD02D09D8A3A
:1014F80001D09D9A0001000192AF02D09D8801D0D1
:101508009D988DC0B0FF00018EC08FF08FC090F005
:101518000001916B000190517F6EAD8AAC8E120074
:10152800F8EC0CF000010001925100019111D8B4BF
:1015380012000001936F010E3D6E000193510101ED
:10154800010E000100018E6F0101000E0001000173
:101558008D6FB9EC0DF00009D8B407D00001936F76
:10156800000E3D6E0001935112000101010E0001B1
:1015780000018E6F0101430E000100018D6FB9EC6F
:101588000DF00009D8B407D00001936F000E3D6E2E
:101598000001935112000A0E7CEC0EF0D0D702EE37
:1015A80000F0860EEE6AE806FDE101EE00F0860E18
:1015B800EE6AE806FDE100EEACF01C0EEE6AE80605
:1015C800FDE13E6A3D6A3C6A3B6A3A6A396A0E0E38
:1015D800F66E1D0EF76E000EF86E01EEDDF010EEE1
:1015E80015F00900F5CFEEFFE550E150FAE1900E55
:1015F800F66E1D0EF76E000EF86E00EE2DF010EE72
:101608000CF00900F5CFEEFFE550E150FAE1000ECD
:10161800F86E000165EF00F0000120EE41F00001D6
:101628008D51D92600018E51DA22000EDF6E00019D
:1016380020EE42F000018D51D92600018E51DA22A8
:10164800000EDF6E00018F6F000E00010001906F29
:1016580000018F51040E00010001906501D01200B5
:101668000001000190510D0DF350000100018D257E
:10167800D96EF450000100018E21DA6E000EDF6E83
:1016880000010001902B040E000100019065E8D7CD
:1016980012000001916F000E3D6E00019151010191
:1016A800010E000100018E6F0101430E00010001CF
:1016B8008D6F10EC0BF00101010E000100018E6F1F
:1016C8000101000E000100018D6F10EC0BF002010A
:1016D800020E000100018E6F0201430E000100019D
:1016E8008D6F10EC0BF00201020E000100018E6FED
:1016F8000201000E000100018D6F10EC0BF01200CA
:10170800000100018EC0C9F0000100018DC0C8F0C1
:10171800000120EE0AF00001C851D9260001C95184
:10172800DA22000EDF6E000120EE0CF00001C85135
:10173800D9260001C951DA22000EDF6E000120EE21
:101748000DF00001C851D9260001C951DA22050E51
:10175800DF6E000120EE0FF00001C851D92600010C
:10176800C951DA22000EDF6E12003D6601D0120068
:10177800D5EC0CF000010001635100016211D8A4FE
:101788001200BFEC0EF00001000161510001601170
:10179800D8B412000101010E00010001616F0101BE
:1017A800000E00010001606FEFEC0DF00009D8A4F5
:1017B80012000101010E00010001616F0101430ED9
:1017C80000010001606FEFEC0DF00009D8B4D5EC12
:1017D8000EF01200ADA2120020EE0EF03F50D926F6
:1017E8004050DA22DF50016E20EE0DF03F50D9262E
:1017F8004050DA22DF50015CD8B01ED020EE0EF047
:101808003F50D9264050DA22DF50016E0150010DB9
:10181800070EF326000EF422F3503F24D96EF4503D
:101828004020DA6EDF50AE6E20EE0EF03F50D92623
:101838004050DA22DF2A12009D981200E8CF60F0AB
:10184800000120EE0DF00001C851D9260001C95150
:10185800DA22050EDF621200000120EE1CF0000102
:10186800C851D9260001C951DA22000EDB800001D7
:1018780020EE0AF00001C851D9260001C951DA2228
:10188800000160C0DFFF000120EE0DF00001C8512B
:10189800D9260001C951DA220A0EDF6EC58212006C
:1018A8000001000190C096F0000100018FC095F082
:1018B800000100018EC094F0000100018DC093F07A
:1018C80012D095C0D9FF96C0DAFF93C0E1FF94C04B
:1018D800E2FFDFCFE7FF00010001954B962B0001E7
:1018E8000001934B942B000100019107D8A09207A7
:1018F80000019129D8B49229D8B41200E2D7000186
:10190800000163C069F00001000162C068F00001D5
:10191800000161C067F00001000160C066F012D0EC
:1019280068C0D9FF69C0DAFF66C0E1FF67C0E2FF9F
:10193800DFCFE7FF00010001684B692B00010001C0
:10194800664B672B000100016407D8A065070001FA
:101958006429D8B46529D8B41200E2D7F2AC08D00B
:10196800000E00010001906F000E00018F6F120041
:10197800A4EC0EF0000100018E5100018D11D8B4C5
:1019880008D0000E00010001906F000E00018F6F5B
:101998001200000E00010001906F010E00018F6F10
:1019A8001200F2AC08D0000E00010001636F000EB7
:1019B8000001626F1200BFEC0EF0000100016151DE
:1019C80000016011D8B408D0000E00010001636F57
:1019D800000E0001626F1200000E00010001636F2B
:1019E800010E0001626F1200B2EC0CF00001000160
:1019F800905100018F11D8A411D0A4EC0EF0000171
:101A080000018E5100018D11D8A408D0000E0001EC
:101A18000001926F010E0001916F1200000E00018B
:101A28000001926F000E0001916F1200E8CFA9F03B
:101A38000101010E00010001986F0101430E000130
:101A48000001976FA9C099F000010001A6C09BF0A2
:101A580000010001A5C09AF000010001A8C09DF096
:101A680000010001A7C09CF069EC05F01200E8CF66
:101A7800A9F00101010E00010001986F0101000E9B
:101A880000010001976FA9C099F000010001A6C0EC
:101A98009BF000010001A5C09AF000010001A8C058
:101AA8009DF000010001A7C09CF069EC05F0120050
:101AB800E8CF8FF0000100018D51F30B9A6E8FC0B3
:101AC8008EF07F0E00018E170001D8908E35CD6EF6
:101AD800000ECF6E000ECE6E9E90000100018FAFFB
:101AE80002D09D8001D09D909ABE9A86CD8012002A
:101AF80004C00AF003C009F002C008F001C007F0F2
:101B08000ED009C0D9FF0AC0DAFF07C0E1FF08C03C
:101B1800E2FFDFCFE7FF094A0A2A074A082A050633
:101B2800D8A006060528D8B40628D8B41200E9D7E4
:101B38003B4A3C2A3B50020A3C10D8A40FD01B6EEB
:101B48000B0E176E1B50000E196E000E186E000E4D
:101B58001FEC0EF0000E3C6E000E3B6E000E026E87
:101B6800000E016EADEC0EF01200000120EE42F006
:101B780000018D51D92600018E51DA22DF50000173
:101B88008F6F00018F510D0DF350000100018D255D
:101B9800D96EF450000100018E21DA6EDF50120078
:101BA800E8CF79F00101010E000100016B6F01011E
:101BB800000E000100016A6F79C06CF076C06DF00C
:101BC8000001000178C06FF00001000177C06EF0DD
:101BD800B7EC06F01200000120EE42F0000160515F
:101BE800D92600016151DA22DF500001626F00013D
:101BF80062510D0DF350000100016025D96EF450BB
:101C0800000100016121DA6EDF501200E8CF8DF08B
:101C1800000100018D517F0BD56E000ED76E000EAE
:101C2800D66EF294000100018DAF02D0F28A01D085
:101C3800F29AD58E1200E8CF1AF00101010E0C6E4F
:101C48000101430E0B6E1AC00DF017C00EF019C03B
:101C580010F018C00FF0BBEC08F01200000EC76EB1
:101C6800000EC66E000EC56E948694881D0EC86E52
:101C7800C650F00B0809C66EC68A1200E8CF8EF06F
:101C8800C2CF8DF0C30E00018D1700010001D8905E
:101C98008E313C0B00018D11C26E120000018EC006
:101CA80040F000018DC03FF020EE06F03F50D926ED
:101CB8004050DA22000EDF6E1200F20E3E16ACAC77
:101CC80003D03E90ACB03E80ACB43E84ACB23E860D
:101CD800AFCF01F001501200000E00010001616F4A
:101CE800000E0001606FB6EC0EF0394A3A2A120075
:101CF800E8CF8DF0FA0E00F0E82EFDD700010001C4
:101D08008D2FF8D71200BC0000000000BC000000B6
:101D180000000300000000000102AA000001000109
:101D280094C096F00001000193C095F012008DC098
:101D3800D9FF8EC0DAFF000EDE6E000EDD6E1200D7
:101D4800000EF2AE010E000100018D6F00018E6BD6
:101D5800120001C003F002C004F004C0CFFF03C0AA
:101D6800CEFF120060C062F061C063F063C0D7FFAD
:101D780062C0D6FF1200000EF2AE010E0001000193
:101D8800606F0001616B1200010102030603040485
:101D980000009F1FD08EF28EF28C120089EC03F0A7
:0A1DA8001200D38E03001200120097
:08FFF8008AF795FFF2F9FFF111
:00000001FF
