:040000006CEF00F0B1
:0C000800FACFC2F0FBCFC3F08FEF12F074
:10001800D8CF43F0E8CF44F0E0CF45F0FACF46F030
:10002800FBCF47F0E9CF48F0EACF49F0E1CF4AF0FB
:10003800E2CF4BF0D9CF4CF0DACF4DF0F3CF4EF002
:10004800F4CF4FF0F6CF50F0F7CF51F0F8CF52F091
:10005800F5CF53F09EAC03D09E9C11EC07F09EA008
:1000680005D09E9080820CEC14F08092F2A405D00A
:10007800F29480803BEC14F080909EB8A9EC13F0C9
:100088009EAA03D09E9AAFEC0DF053C0F5FF52C064
:10009800F8FF51C0F7FF50C0F6FF4FC0F4FF4EC045
:1000A800F3FF4DC0DAFF4CC0D9FF4BC0E2FF4AC096
:1000B800E1FF49C0EAFF48C0E9FF47C0FBFF46C06F
:1000C800FAFF45C0E0FF44C0E8FF43C0D8FF100076
:1000D8006DEF10F000019A6F000E00010001C16F72
:1000E80000019A5100019A6F000E00010001B46FDF
:1000F80000019A5100019A6F000E00010001BE6FC5
:1001080000019A5100019A6F000E00010001BD6FB5
:1001180000019A5100019A6F000E00010001B56FAD
:1001280000019A51C6AC29D0C69C010120EE0DF001
:100138000101C551D9260101C651DA22050EDF6E2B
:1001480000019A6F010E00010001B56F00019A517C
:10015800010120EE0FF00101C551D9260101C65158
:10016800DA22DF2A010120EE0EF00101C551D9265D
:100178000101C651DA22040EDF6EC7A00AD0C9CF2A
:10018800BCF000019A6F010E00010001C16F00016F
:100198009A5100010001B567CED1B7D1C7A6CBD11E
:1001A80000010001C15149EC0DF0010120EE0DF0F4
:1001B8000101C551D9260101C651DA22080EDF62B4
:1001C800BAD100019A6F000E00010001C16F000151
:1001D8009A5100019A6F010E00010001BD6F87D18D
:1001E800C7A830D0010120EE0CF00101C551D92675
:1001F8000101C651DA22DF2A00010001C151D8B439
:1002080079D1C7BA09D000019A6F010E0001000127
:10021800BE6F00019A516ED1010120EE0FF001016D
:10022800C551D9260101C651DA22DF2A010120EE83
:100238000EF00101C551D9260101C651DA22060E78
:10024800DF6E58D100010001C151D8B474D1010149
:1002580020EE0CF00101C551D9260101C651DA2260
:10026800DF2AC7BA19D0C7B40BD0010120EE0DF0B0
:100278000101C551D9260101C651DA22070E76D0EF
:10028800010120EE0DF00101C551D9260101C65129
:10029800DA22080EDF6E1DD1010120EE0FF00101F8
:1002A800C551D9260101C651DA22DF2A010120EE03
:1002B8000DF00101C551D9260101C651DA22050EFA
:1002C800DF6E010120EE0EF00101C551D9260101B2
:1002D800C651DA22060E4AD0010120EE1BF00101B8
:1002E800C551D9260101C651DA22DF5000019A6FA3
:1002F800010120EE1AF00101C551D9260101C651AC
:10030800DA22DF5000019A5DD8B0F4D0010120EE66
:100318001BF00101C551D9260101C651DA22DF506F
:1003280000019A6F00019A51010D100EF326000E7C
:10033800F422F35001010101C525D96EF4500101E1
:100348000101C621DA6EDF50C96E010120EE1BF0F3
:100358000101C551D9260101C651DA22DF2A00015F
:100368009A6F010E00010001B46FC1D0DF6EE3D0B7
:10037800C7A862D0010120EE0CF00101C551D926B1
:100388000101C651DA22DF2A00010001C151D8B4A7
:100398004AD0C7AA27D0010120EE0AF00101C551B1
:1003A800D9260101C651DA22DF5000019A6F0001F7
:1003B8009A51010DF35001010101C525D96EF45080
:1003C80001010101C621DA6E0001BCC0DFFF010195
:1003D80020EE0AF00101C551D9260101C651DA22E1
:1003E800DF2A21D0010120EE0FF00101C551D926E5
:1003F8000101C651DA22DF2A010120EE0EF00101C7
:10040800C551D9260101C651DA22060EDF6E010157
:1004180020EE0DF00101C551D9260101C651DA229D
:10042800050EDF6E67D000019A6F010E0001000112
:10043800BE6F00019A515ED000010001C151D8B4CD
:100448007AD0010120EE0CF00101C551D926010135
:10045800C651DA22DF2AC7AA27D0010120EE0AF006
:100468000101C551D9260101C651DA22DF50000128
:100478009A6F00019A51010DF35001010101C52540
:10048800D96EF45001010101C621DA6E0001BCC029
:10049800DFFF010120EE0AF00101C551D926010153
:1004A800C651DA22DF2A47D0C7A4B6D6010120EE0A
:1004B8000DF00101C551D9260101C651DA22080EF5
:1004C800DF6E00019A6F010E00010001BE6F00018E
:1004D8009A5100019A6F010E00010001BD6F0001E1
:1004E8009A5100019A6F000E00010001C16F0001CE
:1004F8009A5121D0010120EE0DF00101C551D926F4
:100508000101C651DA22050E31D7010120EE0DF0A6
:100518000101C551D9260101C651DA22DF50050A69
:10052800D8B43CD6030AD8B45BD6010AD8B420D7CD
:100538000F0AD8B4D1D600010001C16705D0000167
:100548000001B451D8B402D0C6A8C688010120EE73
:100558000AF00101C551D9260101C651DA22080E57
:10056800DF6424D000010001BE6720D0010120EE25
:100578000DF00101C551D9260101C651DA22050E37
:10058800DF6E010120EE0FF00101C551D9260101EE
:10059800C651DA22DF2A010120EE0EF00101C55111
:1005A800D9260101C651DA22070EDF6E00010001CB
:1005B800BE51D8B448D0010120EE0CF00101C5515C
:1005C800D9260101C651DA22010110EE0AF0010113
:1005D800C551E1260101C651E222E75000019A6F98
:1005E80000019A51010DF35001010101C525E16E89
:1005F800F45001010101C621E26EDFCFE7FF0001DF
:100608009A6F280E00010001966F00019A510101AE
:100618000001C6C198F001010001C5C197F00101B0
:1006280020EE0AF00101C551D9260101C651DA228E
:10063800DF5000019B6F00019B29DFEC15F00101E1
:1006480020EE0AF04BD0010120EE0FF00101C55158
:10065800D9260101C651DA22DF50D8B447D00101AA
:1006680020EE0FF00101C551D9260101C651DA2249
:10067800DF5000010001B16F010120EE0EF0010111
:10068800C551D9260101C651DA22DF500001000107
:10069800B26F010120EE0CF00101C551D92601010C
:1006A800C651DA22DF5000010001B36F00019A6FD2
:1006B800290E00010001966F00019A510001000EF9
:1006C80000010001986F0001B10E00010001976F51
:1006D800030EDFEC15F0010120EE0FF00101C5510A
:1006E800D9260101C651DA22000EDF6E0001000191
:1006F800BD51D8B41200000E00010001C06F060EF3
:100708000001BF6FAA0EC5C1D9FFC6C1DAFFDF62FB
:1007180045D000019A6F010E00010001AE6F000183
:100728009A5100019A6F170E00010001AF6F000186
:100738009A51AEC0B6F067C1B7F068C1B8F069C1E8
:10074800B9F000010001B75100010001B82500010E
:100758000001B92500010001B06F00010001B0518E
:1007680000010001AF1500010001BA6F00019A6F86
:10077800000E00010001BB6F00019A510001000E3C
:1007880000010001816F0001B60E00010001806FB9
:1007980000010001BF51D1EC0AF0E3D0C5C1D9FF77
:1007A800C6C1DAFFDF50BA0AD8B407D0BD0EC5C13A
:1007B800D9FFC6C1DAFFDF625CD020EED0F010EEC0
:1007C8009CF0060EDECFE6FFE82EFCD70001000EF7
:1007D80000010001816F00019C0E00010001806F83
:1007E80000010001BF51D1EC0AF000019A6F000E20
:1007F80000010001DE6F00019A5100019A6F000E9E
:1008080000010001DD6F00019A51010120EE02F0A4
:100818000101C551D9260101C651DA22DF50000174
:100828000001856F010120EE03F00101C551D926B1
:100838000101C651DA22DF5000010001866F010173
:1008480020EE04F00101C551D9260101C651DA2272
:10085800DF5000010001876F010120EE01F0010166
:10086800C551D9260101C651DA22DF50C9EC0EF074
:1008780078D0CA0EC5C1D9FFC6C1DAFFDF621FD062
:1008880020EEE0F010EEA8F0060EDECFE6FFE82E30
:10089800FCD7DFC0A9F0DDC0AAF0DEC0ABF00001D4
:1008A800000E00010001816F0001A80E0001000187
:1008B800806F00010001BF51D1EC0AF052D0BC0E8C
:1008C800C5C1D9FFC6C1DAFFDF624BD020EED6F032
:1008D80010EEA2F0060EDECFE6FFE82EFCD70001F0
:1008E800000E00010001816F0001A20E000100014D
:1008F800806F00010001BF51D1EC0AF0010120EE28
:1009080002F00101C551D9260101C651DA22DF5092
:1009180000010001856F010120EE03F00101C551BE
:10092800D9260101C651DA22DF5000010001866F85
:10093800010120EE04F00101C551D9260101C6517B
:10094800DA22DF5000010001876F010120EE01F07B
:100958000101C551D9260101C651DA22DF50C9EC7F
:100968000EF000019A6F000E00010001BD6F00013A
:100978009A511200820ED36E9B9C0101010E010157
:100988000101016F01013A0E01010101006F61ECE3
:1009980016F00101010E01010101016F0101490E6B
:1009A80001010101006F74EC13F00101010E010156
:1009B8000101016F0101360E01010101006F9FEC79
:1009C80016F004EC13F09368000E8A6E000E806E29
:1009D800000E896E000E926EEF0E15EC16F0C70E23
:1009E8008DEC15F094689F9C9D8C9F90F1949F9A34
:1009F8009F989F86BE0E2AEC16F09D86000E010178
:100A08000101016F260E0101006FFC0EB6EC10F01B
:100A1800AB8E9468DEEC16F00101246F0C0E010118
:100A28000101006F010124510101256F0B0E010125
:100A38000101016F01012551530ED1EC11F08F0E08
:100A480051EC16F0C7C126F1C8C127F18CEC11F0A2
:100A58000101010E01010101196F0101380E0101A7
:100A68000101186F0101010E010101011B6F010154
:100A7800290E010101011A6F0A0E4CEC15F0010153
:100A88000101396F0101010139BF4DD03CD001018D
:100A9800010E01010101016F0101340E0101010183
:100AA800006F0101010138C102F101010101036B6D
:100AB80001010101395101010101046F0101056BB7
:100AC800010104BF05070101010E01010101076FC2
:100AD8000101290E01010101066F96EC16F023D0E1
:100AE80029C128F120D00101010E01010101016F86
:100AF8000101290E01010101006F010101013951B4
:100B08006FEC0EF010D00101010138510A0AD8B477
:100B1800BED7220AD8B4E4D7010AD8B4E1D7040A68
:100B2800D8B4E1D7030A0101010E01010101196FCF
:100B38000101380E01010101186F0101010E0101C7
:100B480001011B6F0101290E010101011A6F0A0E33
:100B58002BEC15F001010101396F0101010139BFC9
:100B680075D772D00101010E010101011B6F01014E
:100B7800360E010101011A6F0101010138C11CF192
:100B8800010101011D6B010101013951010101013F
:100B98001E6F01011F6B01011EBF1F070101010E1E
:100BA80001010101216F0101290E01010101206FDD
:100BB800CBEC12F04BD7010101012951BA0AD8A494
:100BC8001ED00101246F050E01010101006F010112
:100BD80024510101010E01010101026F0101290ED9
:100BE80001010101016F0101256FBE0E0101010123
:100BF800036F01012551050E7FEC08F023D0010198
:100C080001012951AA0AD8A41DD00101246F050E9B
:100C180001010101006F010124510101010E0101CF
:100C28000101026F0101290E01010101016F01019A
:100C3800256F9E0E01010101036F01012551010E6F
:100C48007FEC08F08A9402D70101010138510B0AA0
:100C5800D8B488D7150AD8B4AED7010AD8B4ABD758
:100C6800F5D61AC01EF01F6A206A19341E3601E331
:100C78001F801E50236E1DC01EF01F6A206A1C3480
:100C88001E3601E31F801E50226E2350D8B40CD0AC
:100C98002250235CD8B00FD02350000822241E6EA7
:100CA800190E1E5CD8A007D01BC018F01CC019F084
:100CB8001DC01AF012002250D8B40CD02350225C68
:100CC800D8B00FD02250000823241E6E190E1E5CC7
:100CD800D8A007D018C018F019C019F01AC01AF017
:100CE80012001E6E060E216E1E501ABE218E1DBEEB
:100CF800218C198EFF0E1816FF0E1916000E1A16E3
:100D08001C8EFF0E1B16FF0E1C16000E1D16225001
:100D1800235CD8B01AD0D8901B361C361D36220654
:100D280022502318D8B40DD0210621C01EF0070E7A
:100D38001E16D8B406D0EFD7D8901A321932183206
:100D4800232A22502362F8D71DD02350225CD8B022
:100D580019D0D890183619361A3623062250231877
:100D6800D8B40DD0210621C01EF0070E1E16D8B427
:100D780006D0EFD7D8901D321C321B32222A2250BF
:100D88002362F8D721AE0CD0FF0E181AFF0E191ADD
:100D9800FF0E1A1A010E1826000E1922000E1A222A
:100DA80021AC0CD0FF0E1B1AFF0E1C1AFF0E1D1AC9
:100DB800010E1B26000E1C22000E1D221E6E000EA8
:100DC800216E1E5018501B2619501C221A501D2225
:100DD8001DAE10D0FF0E1B1AFF0E1C1AFF0E1D1A97
:100DE800010E1B26000E1C22000E1D221E6E010E77
:100DF800216E1E501BC001F01CC002F01DC003F084
:100E080023C004F021C005F07DEC0FF001C018F0FC
:100E180002C019F003C01AF01200030E010101010B
:100E2800665DD8B007D00101010166290101010101
:100E3800666F06D0336E010E01010101666F3350F3
:100E4800C4CF3AF03B6A9A0E116E590E126E400EDC
:100E5800136E3AC009F03BC00AF099EC14F009C0CF
:100E68000EF00AC00FF00BC010F0DFEC0BF00EC054
:100E780024F00FC025F010C026F0000E276E800E5B
:100E8800286E430E296ED6EC0CF024C03CF025C029
:100E98003DF026C03EF0000E016E000E026E3F0EC1
:100EA800036E3CC004F03DC005F03EC006F0FFEC08
:100EB80010F0D8B045D0000E246EC00E256E410E3D
:100EC800266ECD0E1B6ECC0E1C6EBD0E1D6E3CC06C
:100ED80018F03DC019F03EC01AF035EC06F018C005
:100EE80027F019C028F01AC029F0D6EC0CF024C05D
:100EF80037F025C038F026C039F0000E1B6E000E02
:100F08001C6E3F0E1D6E37C018F038C019F039C07E
:100F18001AF035EC06F018C009F019C00AF01AC02A
:100F28000BF05BEC0CF009C033F00AC034F00BC0D6
:100F380035F00CC036F033C041F034C042F004D074
:100F4800000E426EFE0E416E010166C101F0026A9A
:100F5800000E046E030E036E1FEC10F001C03FF08C
:100F680002C040F040503F10D8A406D041C069F1FB
:100F78008F0E7FEC16F012003F044010D8A406D064
:100F880041C067F1970E7FEC16F0120041C068F17E
:100F98009F0E7FEC16F01200010120EE42F00101D5
:100FA8000A51D92601010B51DA22DF500101010152
:100FB800136F0101010113510D0DF35001010101DE
:100FC8000A2501010101166FF450010101010B21ED
:100FD8000101176F010E16C1D9FF17C1DAFFDF62D1
:100FE80088D0010120EE01F001011651D926010136
:100FF8001751DA22DF50010101010C5DD8B002D08F
:10100800FD0E1200010120EE01F001011651D92652
:1010180001011751DA22DF500101116F010111514D
:1010280001010101146F0101156B0101010110C1DA
:1010380001F1010101010FC100F1030E01010101DC
:1010480016250101116F000E01010101172101018F
:10105800126F11C102F112C103F114C104F115C1DB
:1010680005F1DDEC13F0010120EE42F001010A5117
:10107800D92601010B51DA22010110EE42F00101DB
:101088000A51E12601010B51E222E7500101116FDB
:10109800010E0101112501010101006F010101018A
:1010A800016B000E0123000E01010101036F050E03
:1010B8000101026F4AEC0AF0010101010051DF6EE3
:1010C800010120EE02F001011651D9260101175144
:1010D800DA220DC1E1FF0EC1E2FFDFCFE7FF16C143
:1010E800D9FF17C1DAFF000EDF6E010101011451AB
:1010F8001200FC0E1200E8CF06F1010120EE1AF0F2
:101108000101C551D9260101C651DA22000EDF6E50
:1011180042D0010120EE1AF00101C551D926010182
:10112800C651DA22DF500101046F01010451010D9B
:10113800F350010101010125D96EF45001010101AB
:101148000221DA6E010110EE1AF00101C551E12603
:101158000101C651E222E7500101056F0101055165
:10116800010D100EF326000EF422F35001010101C7
:10117800C525E16EF45001010101C621E26EDFCF01
:10118800E7FF010120EE1AF00101C551D92601013E
:10119800C651DA22DF2A010120EE1AF00101C551F9
:1011A800D9260101C651DA22DF500101046F01017D
:1011B800010106510101045DD8A0ABD7010120EE61
:1011C8001CF00101C551D9260101C651DA220101DD
:1011D80003C1DFFF010120EE1AF00101C551D92634
:1011E8000101C651DA22010106C1DFFF010120EE2B
:1011F8000AF00101C551D9260101C651DA220101BF
:1012080000C1DFFF010120EE0DF00101C551D92613
:101218000101C651DA220A0EDF6E010120EE1BF031
:101228000101C551D9260101C651DA22000EDF6E2F
:10123800C5801200010101010CC111F10101010178
:10124800126B010120EE41F001010A51D92601017A
:101258000B51DA22DF5001010101136F0101010175
:1012680013510D0DF350010101010A25010101017E
:10127800146FF450010101010B210101156F14C114
:10128800D9FF15C1DAFFDF50D8B402D0FF0E120023
:10129800010120EE01F001011451D9260101155177
:1012A800DA2201010CC1DFFF010120EE02F0010189
:1012B8001451D92601011551DA2201010DC1DFFFB0
:1012C800030E01010101142501010101006F000E47
:1012D8000101010115210101016F010101010FC186
:1012E80003F1010101010EC102F111C104F112C1A2
:1012F80005F1DDEC13F0010120EE41F001010A5186
:10130800D92601010B51DA22010110EE41F0010149
:101318000A51E12601010B51E222E7500101106F49
:10132800010E0101102501010101006F01010101F8
:10133800016B000E0123000E01010101036F050E70
:101348000101026F4AEC0AF0010101010051DF6E50
:1013580014C1D9FF15C1DAFF010EDF6E010E1200AC
:10136800000100018CC091F000010001926B0001A6
:1013780020EE41F000018A51D92600018B51DA2272
:10138800DF5000010001936F0001000193510D0D22
:10139800F350000100018A2500010001946FF45008
:1013A800000100018B210001956F94C0D9FF95C001
:1013B800DAFFDF50D8B402D0FF0E1200000120EE91
:1013C80001F000019451D92600019551DA2200015B
:1013D8008CC0DFFF000120EE02F000019451D926F5
:1013E80000019551DA2200018DC0DFFF030E0001D4
:1013F8000001942500010001806F000E000100012A
:1014080095210001816F000100018FC083F0000168
:1014180000018EC082F091C084F092C085F06AEC21
:1014280014F0000120EE41F000018A51D926000194
:101438008B51DA22000110EE41F000018A51E126B9
:1014480000018B51E222E7500001906F010E00016C
:10145800902500010001806F00010001816B000EE2
:101468008123000E00010001836F050E0001826FC9
:1014780058EC0BF0000100018051DF6E94C0D9FFD9
:1014880095C0DAFF010EDF6E010E12000101046F34
:10149800000E01010101066F010104510101010162
:1014A8000151800AF36E800EF35C000ED8B4005D23
:1014B800D8B00FD001010101006D0101011FD8B0A2
:1014C800012B0101046F010E01010101066F0101E9
:1014D8000451010101010351800AF36E800EF35C8F
:1014E800000ED8B4025DD8B007D001010101026D29
:1014F8000101031FD8B0032B01010101035102119F
:10150800D8B43AD00101046F010E01010101056F41
:101518000101045109D0010101010101D8900237EC
:10152800033701010101052B0101010103AFF3D7C5
:1015380001010101025101010101005D01010101E7
:101548000351010101010159D8A00CD00101010189
:10155800025101010101005F010101010351010173
:101568000101015B010101010101D890033302333C
:1015780001010101052FDCD7010101010651D8B491
:1015880007D001010101006D0101011FD8B0012B35
:1015980000C100F101C101F11200E8CF84F001019E
:1015A80020EE1AF00101C551D9260101C651DA22EF
:1015B800000EDF6E42D0010120EE1AF00101C55184
:1015C800D9260101C651DA22DF500001826F0001DD
:1015D8008251010DF350000100018025D96EF450AD
:1015E800000100018121DA6E010110EE1AF00101FB
:1015F800C551E1260101C651E222E7500001836F7F
:1016080000018351010D100EF326000EF422F35051
:1016180001010101C525E16EF45001010101C62156
:10162800E26EDFCFE7FF010120EE1AF00101C5519C
:10163800D9260101C651DA22DF2A010120EE1AF06B
:101648000101C551D9260101C651DA22DF50000136
:10165800826F0001000184510001825DD8A0ABD7E0
:10166800010120EE1AF00101C551D9260101C65128
:10167800DA22000184C0DFFF010120EE1BF0010126
:10168800C551D9260101C651DA22010EDF6E0101CA
:1016980020EE10F00101C551D9260101C651DA2208
:1016A800DF50C96EC68812000001846F000E000169
:1016B8000001866F00018451000100018151800AF8
:1016C800F36E800EF35C000ED8B4805DD8B00FD0F6
:1016D80000010001806D0001811FD8B0812B00013D
:1016E800846F010E00010001866F00018451000122
:1016F80000018351800AF36E800EF35C000ED8B4AB
:10170800825DD8B007D000010001826D0001831FFF
:10171800D8B0832B0001000183518211D8B43AD08C
:101728000001846F010E00010001856F00018451E2
:1017380009D0000100010001D890823783370001E9
:101748000001852B0001000183AFF3D700010001E0
:10175800825100010001805D0001000183510001F8
:1017680000018159D8A00CD000010001825100016C
:101778000001805F00010001835100010001815BCD
:10178800000100010001D890833382330001000179
:10179800852FDCD7000100018651D8B407D000019D
:1017A8000001806D0001811FD8B0812B80C080F0BE
:1017B80081C081F0120010C014F0156A166A0F3447
:1017C800143601E315801450176E176607D0000E03
:1017D8000E6E000E0F6E000E106E120013C014F085
:1017E800156A166A1234143601E3158014501C6EFB
:1017F8001C6607D0000E0E6E000E0F6E000E106EE7
:1018080012001C507B0F172610C01CF013501C1A16
:10181800800E1C160F8E128EFF0E1116FF0E12165A
:10182800000E1316000E186E000E196E000E1A6EBA
:10183800146E070E1B6E14500EA006D011501826F9
:101848001250192213501A22D89010320F320E3229
:10185800D8901136123613361B2EEED7146E090E99
:101868001B6E14500EA006D01150182612501922C3
:1018780013501A22D89010320F320E32D8901A32E2
:10188800193218321B2EEED718C001F019C002F019
:101898001AC003F017C004F01CC005F07DEC0FF06F
:1018A80001C00EF002C00FF003C010F012000BC010
:1018B8000DF00E6A0F6A0A340D3601E30E800D50E2
:1018C800176E176609D0000E096E000E0A6E000E1C
:1018D8000B6E000E0C6E1200170E0D6E09C00EF086
:1018E8000AC00FF00BC010F00D28116E04D0D8906C
:1018F80010320F320E32112EFAD70E50126E0A8E97
:10190800FF0E0916FF0E0A16000E0B160950136E6D
:101918000A50146E0B50156E166A8E0E175E17AEAF
:1019280019D01750800A0D6EF10E800A0D5CD8B0E0
:1019380009D0000E096E000E0A6E000E0B6E000E26
:101948000C6E1200D8901632153214321332173E2C
:10195800F9D714D0170E17640FD0000E096E000EB9
:101968000A6E000E0B6E000E0C6E1200D890133625
:1019780014361536163617061766F8D71250D8B427
:1019880008D0161E151E141E136C000E14221522E4
:10199800162213C009F014C00AF015C00BF016C0C7
:1019A8000CF0120026C02AF02B6A2C6A25342A363D
:1019B80001E32B802A50316E316607D0000E246E69
:1019C800000E256E000E266E120029C02AF02B6A22
:1019D8002C6A28342A3601E32B802A50326E32666C
:1019E80007D0000E246E000E256E000E266E120023
:1019F800000E2E6E000E2F6E000E306E3250890FC4
:101A0800315E26C032F02950321A800E3216258EE9
:101A1800FF0E2416FF0E2516000E2616288EFF0E22
:101A28002716FF0E2816000E29162A6E180E2D6E80
:101A38002A50D8902E362F3630362750245C28501E
:101A4800255829502658D8A007D02750245E28505A
:101A5800255A2950265A2E80D890243625362636DF
:101A68002D2EE7D72EC001F02FC002F030C003F0B2
:101A780031C004F032C005F07DEC0FF001C024F055
:101A880002C025F003C026F01200E8CF80F0010163
:101A980020EE0CF00101C551D9260101C651DA2208
:101AA800010EDF6E010120EE0AF00101C551D926B1
:101AB8000101C651DA22000EDF6E000100018051DB
:101AC800D8B43DD0C7AA21D0010120EE0DF0010104
:101AD800C551D9260101C651DA22050EDF6E010172
:101AE80020EE0FF00101C551D9260101C651DA22B5
:101AF800DF2A010120EE0EF00101C551D9260101AE
:101B0800C651DA22050EDF6E1200C7A40CD00101FF
:101B180020EE0DF00101C551D9260101C651DA2286
:101B2800080EDF6E1200010120EE0DF00101C55113
:101B3800D9260101C651DA22070EDF6E1200010113
:101B480020EE0DF00101C551D9260101C651DA2256
:101B5800060EDF6E12009EAA4ED020EE06F05E50F2
:101B6800D9265F50DA22DF501B6E1B50010DF3504F
:101B78005E24D96EF4505F20DA6E70EC16F0DF6EDA
:101B880020EE06F05E50D9265F50DA22DF2AC90E11
:101B9800545C000E5558D8A00CD020EE06F05E50CC
:101BA800D9265F50DA22010EDF6E000E556E000E48
:101BB800546E20EE06F05E50D9265F50DA22060EEB
:101BC800DF6219D01B6E1F0E176E1B505FC019F015
:101BD8005EC018F020EE06F05E50D9265F50DA227B
:101BE800DF503EEC16F020EE06F05E50D9265F502E
:101BF800DA22000EDF6E56A61200AB98AB881B6E79
:101C08001E0E176E1B50000E196E000E186E000E79
:101C18003EEC16F012000DC012F0136A20EE41F0EF
:101C28000B50D9260C50DA22DF50146E14500D0DCB
:101C3800F3500B24156EF4500C20166E15C0D9FF06
:101C480016C0DAFFDF50D8B402D0FF0E120020EE23
:101C580001F01550D9261650DA220DC0DFFF20EE0C
:101C680002F01550D9261650DA220EC0DFFF030EF7
:101C78001524016E000E1620026E10C004F00FC06D
:101C880003F012C005F013C006F06DEC15F020EE5D
:101C980041F00B50D9260C50DA2210EE41F00B50CF
:101CA800E1260C50E222E750116E010E1124016E5C
:101CB800026A000E0222000E046E050E036E1FEC6F
:101CC80010F00150DF6E15C0D9FF16C0DAFF010E03
:101CD800DF6E010E1200E8CF04F120EE0DF05E5029
:101CE800D9265F50DA22000EDF6E35D020EE0DF0D7
:101CF8005E50D9265F50DA22DF500101026F0101E0
:101D08000251010DF350010101010025D96EF45073
:101D1800010101010121DA6E10EE0DF05E50E1269D
:101D28005F50E222E7500101036F01010351010DE9
:101D3800070EF326000EF422F3505E24E16EF450F1
:101D48005F20E26EDFCFE7FF20EE0DF05E50D92670
:101D58005F50DA22DF2A20EE0DF05E50D9265F5060
:101D6800DA22DF500101026F010101010451010172
:101D7800025DD8A0BBD720EE0EF05E50D9265F508A
:101D8800DA22000EDF6E9D881200E8CF8BF000018A
:101D980000018651D8B419D0000100018751D8B488
:101DA80014D086C058F087C059F00001886F000E23
:101DB80000010001DD6F000188510001886F000EED
:101DC80000010001DE6F00018851000100018B5104
:101DD800D8B409D0000100018551D8B404D000015D
:101DE800886F000E03D00001886F010E000100010A
:101DF800DF6F00018851000E00010001816F7F0E26
:101E08000001806FCCEC16F0FF0E00010001816F1D
:101E18007F0E0001806FC3EC16F08BC089F085C07F
:101E28008AF00001000E00010001816F0001890E97
:101E380000010001806F020E23EC0FF01200E8CFC2
:101E480084F020EE0DF05E50D9265F50DA22000EA5
:101E5800DF6E35D020EE0DF05E50D9265F50DA22C5
:101E6800DF500001826F00018251010DF350000123
:101E780000018025D96EF450000100018121DA6E3D
:101E880010EE0DF05E50E1265F50E222E7500001AF
:101E9800836F00018351010D070EF326000EF42213
:101EA800F3505E24E16EF4505F20E26EDFCFE7FF6F
:101EB80020EE0DF05E50D9265F50DA22DF2A20EEA0
:101EC8000DF05E50D9265F50DA22DF500001826F94
:101ED8000001000184510001825DD8A0BBD720EE2B
:101EE8000EF05E50D9265F50DA22000EDF6E9D8814
:101EF80012000450D8B405D0015002100310D8A421
:101F08000CD0000E016E000E026E000E036E120061
:101F1800042AD890033202320132000E0114066EF0
:101F2800000E0214076EFE0E0314086E065007100A
:101F38000810D8B40CD0ECD7042A010E0126000EE4
:101F48000222000E0322D890033202320132000E20
:101F58000114066E000E0214076EFF0E0314086EBD
:101F6800065007100810D8B406D0E6D70406D89053
:101F780001360236033602AEF9D704A0029ED89085
:101F88000432045003120550D8A4038E01C001F096
:101F980002C002F003C003F01200E8CF05F020EE03
:101FA8000DF05E50D9265F50DA22000EDF6E2DD07C
:101FB80020EE0DF05E50D9265F50DA22DF50036E16
:101FC8000350010DF3500124D96EF4500220DA6E4B
:101FD80010EE0DF05E50E1265F50E222E750046EED
:101FE8000450010D070EF326000EF422F3505E2470
:101FF800E16EF4505F20E26EDFCFE7FF20EE0DF0D8
:102008005E50D9265F50DA22DF2A20EE0DF05E50AE
:10201800D9265F50DA22DF50036E0550035CD8A042
:10202800C7D720EE0EF05E50D9265F50DA22000E98
:10203800DF6E9D881200056E000E076E0550025077
:10204800800AF36E800EF35C000ED8B4015CD8B041
:1020580008D0016C021ED8B0022A056E010E076E68
:1020680005500450800AF36E800EF35C000ED8B45D
:10207800035CD8B004D0036C041ED8B0042A045002
:102088000310D8B41AD0056E010E066E055004D0A0
:10209800D89003360436062A04AEFAD70350015CFA
:1020A80004500258D8A004D00350015E0450025ACC
:1020B800D89004320332062EF1D70750D8B404D092
:1020C800016C021ED8B0022A01C001F002C002F061
:1020D800120002EE00F0C90EEE6AE806FDE101EE1C
:1020E80066F05F0EEE6AE806FDE100EED0F0100E35
:1020F800EE6AE806FDE1596A586A576A566A556AEF
:10210800546ADA0EF66E2D0EF76E000EF86E0900A0
:10211800F5CFC7F10900F5CFC8F1C40EF66E2D0E44
:10212800F76E000EF86E00EEE0F010EE06F0090013
:10213800F5CFEEFFE550E150FAE1D60EF66E2D0E22
:10214800F76E000EF86E00EE5AF010EE04F009007B
:10215800F5CFEEFFE550E150FAE1000EF86E000110
:10216800BEEF04F0E8CF05F1000EAC6E000EAB6ECA
:102178000101010105B1AC880101010105A302D0EB
:10218800AC8CAB8C0101010105B5AC8E01010101DC
:1021980005A702D0AB8801D0AB8A0101010105B9BE
:1021A800AC849E980101010105BBAB8601010101C8
:1021B80005AD02D09D8A01D09D9A9E9A0101010128
:1021C80005AF02D09D8801D09D9800C1AFFF0101E5
:1021D80001C102F102C103F10101046B01010351C4
:1021E800B06EAC8AAB8E949C948EACA81200ACBE38
:1021F8001200948C120003AE16D001C007F002C082
:1022080008F003C009F0071E081E091E072A000E61
:1022180008220922000E0724016E000E0820026E13
:10222800800E0920036E06AE16D004C007F005C064
:1022380008F006C009F0071E081E091E072A000E2E
:1022480008220922000E0724046E000E0820056EDD
:10225800800E0920066E000E011A000E021A800E6A
:10226800031A000E041A000E051A800E061A0450EE
:10227800015C0550025806500358D8B002D0D890D7
:102288001200D88012000101010103510211D8B4D3
:102298003AD00101046F010E01010101056F01012E
:1022A800045109D0010101010101D8900237033717
:1022B80001010101052B0101010103AFF3D7010160
:1022C8000101025101010101005D010101010351F8
:1022D800010101010159D8A00CD0010101010251ED
:1022E80001010101005F0101010103510101010127
:1022F800015B010101010101D8900333023301019F
:102308000101052FDCD700C100F101C101F1120064
:1023180009EC15F001010101055101010411D8B4BE
:1023280012000101066F010E00010001DC6F0101BE
:1023380006510201020E01010101016F0201860E20
:1023480001010101006FC4EC15F00009D8B409D0EF
:102358000101066F000E00010001DC6F010106514A
:1023680012000101010E01010101016F0101820E3C
:1023780001010101006FC4EC15F00009D8B409D0BF
:102388000101066F000E00010001DC6F010106511A
:1023980012000A0E8BEC16F0CCD7E8CF04F1000E31
:1023A800C26E000EC06E01010101D89000313C0BD5
:1023B800C26E00C102F10101023BF00E0217300E9D
:1023C800010102170101010101510F0B0101021165
:1023D800C16E04C102F10101D89002370101D89001
:1023E8000237380E0101021704C103F10101033B52
:1023F8000F0E0317070E0101031701010101045114
:10240800800B0101031101010211C06E01010101DC
:1024180000AF03D09E9C9D8CF28CC2801200E8CF46
:102428000CF00750D8B413D00850D8B410D007C057
:1024380058F008C059F0096E000E00010001DD6F68
:102448000950096E000E00010001DE6F09500C50A2
:10245800D8B406D00650D8B403D0096E000E02D006
:10246800096E010E00010001DF6F0950000E026EB7
:102478007F0E016EBAEC16F0FF0E026E7F0E016E33
:10248800B1EC16F00CC00AF006C00BF0000E026E9C
:102498000A0E016E020ED1EC0FF01200010120EEBF
:1024A80041F001010051D92601010151DA22000E43
:1024B800DF6E010120EE42F001010051D926010131
:1024C8000151DA22000EDF6E0101026F000E0101D8
:1024D8000101036F01010251040E010101010365AD
:1024E80001D012000101010103510D0DF35001014A
:1024F80001010025D96EF450010101010121DA6EB4
:10250800000EDF6E01010101032B040E0101010120
:102518000365E8D71200E9CFC4F0EACFC5F0E1CFF0
:10252800C6F0E2CFC7F0D9CFC8F0DACFC9F0F3CF01
:10253800CAF0F4CFCBF0F6CFCCF0F7CFCDF0F8CF90
:10254800CEF0F5CFCFF09EA603D09E96E5EC16F020
:102558003DEC13F0CFC0F5FFCEC0F8FFCDC0F7FFBC
:10256800CCC0F6FFCBC0F4FFCAC0F3FFC9C0DAFF86
:10257800C8C0D9FFC7C0E2FFC6C0E1FFC5C0EAFFB7
:10258800C4C0E9FFC3C0FBFFC2C0FAFF11001AC1F3
:10259800D9FF1BC1DAFFDE2A000EDD221AC1D9FFDE
:1025A8001BC1DAFF0101DECF00F10101DDCF01F12E
:1025B800000E01010101036F0A0E0101026F47ECD1
:1025C80011F0010101010051090A01010111D8A40A
:1025D80012000101226F140E01010101166F0101A1
:1025E8002251010101011BC118F1010101011AC1A8
:1025F80017F1020EA9EC15F001010101236F120079
:102608000101046F000E00010001DC6F010104519B
:102618000101010E01010101016F0101820E010199
:102628000101006F52EC12F00201020E01010101DA
:10263800016F0201860E01010101006F52EC12F0D8
:102648000201020E01010101016F0201430E0101A5
:102658000101006F52EC12F00201020E01010101AA
:10266800016F0201000E01010101006F52EC12F02E
:10267800120000010001DC6701D01200E6EC14F042
:1026880000010001835100018211D8A41200D5EC89
:1026980016F000010001815100018011D8B4120028
:1026A8000201020E00010001816F0201860E000185
:1026B8000001806FFAEC15F00009D8A4120001019E
:1026C800010E00010001816F0101820E000100016D
:1026D800806FFAEC15F00009D8B4E8EC16F0120097
:1026E8000101010101C1C6F10101010100C1C5F1EA
:1026F800010120EE0AF00101C551D9260101C65198
:10270800DA22000EDF6E010120EE0CF00101C55146
:10271800D9260101C651DA22000EDF6E010120EE32
:102728000DF00101C551D9260101C651DA22050E65
:10273800DF6E010120EE0FF00101C551D92601011C
:10274800C651DA22000EDF6E1200ACA2120020EE93
:102758000EF05E50D9265F50DA22DF50016E20EE6F
:102768000DF05E50D9265F50DA22DF50015CD8B0F8
:102778001ED020EE0EF05E50D9265F50DA22DF50D0
:10278800016E0150010D070EF326000EF422F350DE
:102798005E24D96EF4505F20DA6EDF50AD6E20EE05
:1027A8000EF05E50D9265F50DA22DF2A12009D987B
:1027B80012000101010103C109F10101010102C176
:1027C80008F10101010101C107F10101010100C185
:1027D80006F112D008C1D9FF09C1DAFF06C1E1FF2D
:1027E80007C1E2FFDFCFE7FF01010101084B092B19
:1027F80001010101064B072B010101010407D8A0C3
:10280800050701010429D8B40529D8B41200E2D774
:10281800FF0E026E7F0E016EB1EC16F00001000192
:10282800DD2B585000010001DD5DD8A012005CC00E
:1028380010F05DC011F00D6EC00E066E0D500E6EDC
:10284800000E076E0E500F6E000E086E0F50C00E71
:1028580013EC12F0595000010001DE5DD8A01200FF
:102868000D6E010E00010001DF6F0D501200000E09
:10287800026E7F0E016EBAEC16F000010001DE2B2D
:10288800595000010001DE5DD8A012005AC010F0B6
:102898005BC011F00D6E400E066E0D500E6E000EF0
:1028A800076E0E500F6E000E086E0F50400E13ECA0
:1028B80012F0585000010001DD5DD8A012000D6E25
:1028C800010E00010001DF6F0D5012000001000130
:1028D80083C089F00001000182C088F00001000176
:1028E80081C087F00001000180C086F012D088C046
:1028F800D9FF89C0DAFF86C0E1FF87C0E2FFDFCFDA
:10290800E7FF00010001884B892B00010001864B7D
:10291800872B000100018407D8A0850700018429BE
:10292800D8B48529D8B41200E2D70C6E000E0D6E0B
:102938000C500A50800AF36E800EF35C000ED8B477
:10294800095CD8B008D0096C0A1ED8B00A2A0C6EE7
:10295800010E0D6E0C5009C001F00AC002F0036AA6
:102968000C6E8E0E046E0C500DC005F07DEC0FF051
:1029780001C009F002C00AF003C00BF01200F2AC6B
:1029880008D0000E01010101036F000E0101026F62
:102998001200A8EC16F0010101010151010100111A
:1029A800D8B408D0000E01010101036F000E010127
:1029B800026F1200000E01010101036F010E0101F7
:1029C800026F1200F2AC08D0000E00010001836F04
:1029D800000E0001826F1200D5EC16F00001000114
:1029E800815100018011D8B408D0000E0001000107
:1029F800836F000E0001826F1200000E00010001BB
:102A0800836F010E0001826F1200C3EC14F0010104
:102A18000101035101010211D8A411D0A8EC16F04C
:102A280001010101015101010011D8A408D0000ED3
:102A380001010101056F010E0101046F1200000E72
:102A480001010101056F000E0101046F1200E8CFBA
:102A58001CF10101010E010101010B6F0101820E40
:102A6800010101010A6F1CC10CF10101010119C129
:102A78000EF10101010118C10DF1010101011BC194
:102A880010F1010101011AC10FF1D0EC07F0120099
:102A9800E8CF1CF10201020E010101010B6F0201D6
:102AA800860E010101010A6F1CC10CF1010101012F
:102AB80019C10EF10101010118C10DF10101010156
:102AC8001BC110F1010101011AC10FF1D0EC07F08F
:102AD800120004C00AF003C009F002C008F001C0E7
:102AE80007F00ED009C0D9FF0AC0DAFF07C0E1FF1E
:102AF80008C0E2FFDFCFE7FF094A0A2A074A082A87
:102B08000506D8A006060528D8B40628D8B41200A9
:102B1800E9D7E8CF00F10101010100517E0BCD6E2C
:102B28000101010100AD02D0CD8E01D0CD9E000E75
:102B3800CF6E000ECE6E9E900101010100AF02D053
:102B48009D8001D09D90CD801200E8CF19F102013F
:102B5800020E010101010B6F0201000E01010101CA
:102B68000A6F19C10CF116C10DF10101010118C15B
:102B78000FF10101010117C10EF11EEC09F012005D
:102B8800010120EE42F001010051D9260101015155
:102B9800DA22DF500101026F010102510D0DF350DD
:102BA800010101010025D96EF45001010101012143
:102BB800DA6EDF501200E8CF99F00201020E000130
:102BC80000018B6F0201860E000100018A6F99C017
:102BD8008CF096C08DF00001000198C08FF00001C4
:102BE800000197C08EF0B4EC09F01200000120EE4D
:102BF80042F000018051D92600018151DA22DF50CC
:102C08000001826F000182510D0DF3500001000197
:102C18008025D96EF450000100018121DA6EDF5061
:102C28001200E8CF00F10101010100517F0BD56EC0
:102C3800000ED76E000ED66EF2940101010100AFAE
:102C480002D0F28A01D0F29AD58E1200E8CF00F1B4
:102C58009486948800C1C8FF000EC76E000EC66E29
:102C6800000EC56E0E0EC612C78E94869488C58057
:102C7800C68A1200E8CF1AF00101010E0C6E01019C
:102C8800820E0B6E1AC00DF017C00EF019C010F0AE
:102C980018C00FF00FEC0EF01200E8CF01F1C2CF10
:102CA80000F1C30E0101001701010101D8900131A3
:102CB8003C0B01010011C26E1200010101C15FF05D
:102CC800010100C15EF020EE06F05E50D9265F508B
:102CD800DA22000EDF6E1200F20E5616ABAC03D0ED
:102CE8005690ABB05680ABB45684ABB25686AECFD6
:102CF80001F001501200E8CF02F0C2CF01F0C30E7C
:102D08000116D89002303C0B0110C26E1200E8CFB9
:102D180000F1FA0E00F0E82EFDD701010101002FA5
:102D2800F8D712000101010107C109F101010101F0
:102D380006C108F1120000C1D9FF01C1DAFF000E77
:102D4800DE6E000EDD6E1200000EF2AE010E010105
:102D58000101006F0101016B120001C003F002C004
:102D680004F004C0CFFF03C0CEFF120001C003F07F
:102D780002C004F004C0D7FF03C0D6FF120080C011
:102D880082F081C083F083C0CFFF82C0CEFF1200E3
:102D980080C082F081C083F083C0D7FF82C0D6FF95
:102DA8001200000EF2AE010E00010001806F00015A
:102DB800816B1200D08EF28EF28C1200040000009B
:102DC80000006EEC00F01200D38E030012004040A9
:042DD800C0C0010274
:067FF80080F4C5FFFFF15B
:00000001FF
