:0400000063EF00F0BA
:0C000800FACFB1F0FBCFB2F0D5EF0CF056
:10001800D8CF1CF0E8CF1DF0E0CF1EF0FACF1FF0CC
:10002800FBCF20F0E9CF21F0EACF22F0E1CF23F097
:10003800E2CF24F0D9CF25F0DACF26F0F3CF27F09E
:10004800F4CF28F0F6CF29F0F7CF2AF0F8CF2BF02D
:10005800F5CF2CF09EAC03D09E9CEFEC10F09EA048
:1000680003D09E906FEC11F09EB8B0EC0EF09EAAF3
:1000780003D09E9AEFEC09F02CC0F5FF2BC0F8FFD7
:100088002AC0F7FF29C0F6FF28C0F4FF27C0F3FFF6
:1000980026C0DAFF25C0D9FF24C0E2FF23C0E1FF54
:1000A80022C0EAFF21C0E9FF20C0FBFF1FC0FAFF02
:1000B8001EC0E0FF1DC0E8FF1CC0D8FF10004BEFBA
:1000C8000CF000019A6F000E00010001B06F0001F2
:1000D8009A5100019A6F000E00010001A96F0001FA
:1000E8009A5100019A6F000E00010001AF6F0001E4
:1000F8009A5100019A6F000E00010001AC6F0001D7
:100108009A5100019A6F000E00010001AA6F0001C8
:100118009A51C6AC29D0C69C000120EE0DF0000112
:10012800C951D9260001CA51DA22050EDF6E000135
:100138009A6F010E00010001AA6F00019A51000197
:1001480020EE0FF00001C951D9260001CA51DA2268
:10015800DF2A000120EE0EF00001C951D926000166
:10016800CA51DA22040EDF6EC7A00AD0C9CFABF09D
:1001780000019A6F010E00010001B06F00019A5151
:1001880000010001AA67CED1B7D1C7A6CBD1000123
:100198000001B05189EC09F0000120EE0DF00001DA
:1001A800C951D9260001CA51DA22080EDF62BAD134
:1001B80000019A6F000E00010001B06F00019A5112
:1001C80000019A6F010E00010001AC6F87D1C7A82A
:1001D80030D0000120EE0CF00001C951D9260001F1
:1001E800CA51DA22DF2A00010001B051D8B479D10E
:1001F800C7BA09D000019A6F010E00010001AF6F64
:1002080000019A516ED1000120EE0FF00001C95192
:10021800D9260001CA51DA22DF2A000120EE0EF0A9
:100228000001C951D9260001CA51DA22060EDF6E33
:1002380058D100010001B051D8B474D1000120EEAA
:100248000CF00001C951D9260001CA51DA22DF2A6F
:10025800C7BA19D0C7B40BD0000120EE0DF00001C9
:10026800C951D9260001CA51DA22070E76D00001F9
:1002780020EE0DF00001C951D9260001CA51DA2239
:10028800080EDF6E1DD1000120EE0FF00001C951EC
:10029800D9260001CA51DA22DF2A000120EE0DF02A
:1002A8000001C951D9260001CA51DA22050EDF6EB4
:1002B800000120EE0EF00001C951D9260001CA51F3
:1002C800DA22060E4AD0000120EE1BF00001C951C7
:1002D800D9260001CA51DA22DF5000019A6F0001C5
:1002E80020EE1AF00001C951D9260001CA51DA22BC
:1002F800DF5000019A5DD8B0F4D0000120EE1BF069
:100308000001C951D9260001CA51DA22DF50000183
:100318009A6F00019A51010D100EF326000EF42277
:10032800F35000010001C925D96EF4500001000105
:10033800CA21DA6EDF50C96E000120EE1BF0000101
:10034800C951D9260001CA51DA22DF2A00019A6F61
:10035800010E00010001A96FC1D0DF6EE3D0C7A86C
:1003680062D0000120EE0CF00001C951D92600012D
:10037800CA51DA22DF2A00010001B051D8B44AD0AC
:10038800C7AA27D0000120EE0AF00001C951D926DA
:100398000001CA51DA22DF5000019A6F00019A5118
:1003A800010DF35000010001C925D96EF450000178
:1003B8000001CA21DA6E0001ABC0DFFF000120EEA8
:1003C8000AF00001C951D9260001CA51DA22DF2AF0
:1003D80021D0000120EE0FF00001C951D9260001FB
:1003E800CA51DA22DF2A000120EE0EF00001C951BD
:1003F800D9260001CA51DA22060EDF6E000120EE6E
:100408000DF00001C951D9260001CA51DA22050EA2
:10041800DF6E67D000019A6F010E00010001AF6F17
:1004280000019A515ED000010001B051D8B47AD0D1
:10043800000120EE0CF00001C951D9260001CA5173
:10044800DA22DF2AC7AA27D0000120EE0AF000012D
:10045800C951D9260001CA51DA22DF5000019A6F2A
:1004680000019A51010DF35000010001C925D96E10
:10047800F45000010001CA21DA6E0001ABC0DFFFB1
:10048800000120EE0AF00001C951D9260001CA5125
:10049800DA22DF2A47D0C7A4B6D6000120EE0DF035
:1004A8000001C951D9260001CA51DA22080EDF6EAF
:1004B80000019A6F010E00010001AF6F00019A510F
:1004C80000019A6F010E00010001AC6F00019A5102
:1004D80000019A6F000E00010001B06F00019A51EF
:1004E80021D0000120EE0DF00001C951D9260001EC
:1004F800CA51DA22050E31D7000120EE0DF00001B5
:10050800C951D9260001CA51DA22DF50050AD8B4E8
:100518003CD6030AD8B45BD6010AD8B420D70F0A50
:10052800D8B4D1D600010001B06705D000010001A0
:10053800A951D8B402D0C6A8C688000120EE0AF096
:100548000001C951D9260001CA51DA22080EDF6418
:1005580024D000010001AF6720D0000120EE0DF08B
:100568000001C951D9260001CA51DA22050EDF6EF1
:10057800000120EE0FF00001C951D9260001CA512F
:10058800DA22DF2A000120EE0EF00001C951D92637
:100598000001CA51DA22070EDF6E00010001AF51D7
:1005A800D8B448D0000120EE0CF00001C951D9267A
:1005B8000001CA51DA22000110EE0AF00001C95107
:1005C800E1260001CA51E222E75000019A6F0001BA
:1005D8009A51010DF35000010001C925E16EF45054
:1005E80000010001CA21E26EDFCFE7FF00019A6F28
:1005F800280E00010001966F00019A5100010001C8
:10060800CAC098F000010001C9C097F0000120EEAF
:100618000AF00001C951D9260001CA51DA22DF5077
:1006280000019B6F00019B297DEC10F0000120EE7A
:100638000AF04BD0000120EE0FF00001C951D92675
:100648000001CA51DA22DF50D8B447D0000120EEA9
:100658000FF00001C951D9260001CA51DA22DF5032
:1006680000010001A66F000120EE0EF00001C95143
:10067800D9260001CA51DA22DF5000010001A76F14
:10068800000120EE0CF00001C951D9260001CA5121
:10069800DA22DF5000010001A86F00019A6F290ECD
:1006A80000010001966F00019A510001000E00013F
:1006B8000001986F0001A60E00010001976F030E5C
:1006C8007DEC10F0000120EE0FF00001C951D92691
:1006D8000001CA51DA22000EDF6E00010001AC51A0
:1006E800D8B41200000E00010001AE6F000E000128
:1006F800AD6FAA0EC9C0D9FFCAC0DAFFDF6220D029
:10070800000E00010001AE6F050E0001AD6F20EE76
:10071800BFF010EE9CF0050EDECFE6FFE82EFCD70A
:100728000001000E00010001816F00019C0E000114
:100738000001806F00010001AD517BEC08F056D03C
:10074800BA0EC9C0D9FFCAC0DAFFDF622ED0000EC8
:1007580000010001AE6F050E0001AD6F000120EE33
:1007680002F00001C951D9260001CA51DA22DF502E
:1007780000010001856F000120EE03F00001C9515E
:10078800D9260001CA51DA22DF5000010001866F24
:10079800000120EE01F00001C951D9260001CA511B
:1007A800DA22DF500CEC10F021D0BB0EC9C0D9FF03
:1007B800CAC0DAFFDF621AD020EEC4F010EEA1F052
:1007C800050EDECFE6FFE82EFCD7CBC0A2F0000175
:1007D800000E00010001816F0001A10E000100015F
:1007E800806F00010001AD517BEC08F000019A6FA9
:1007F800000E00010001AC6F00019A511200820E38
:10080800D36E9B9C0101010E01010101876F01015B
:10081800C00E01010101866F10EC11F00101010EFB
:1008280001010101876F0101CD0E01010101866FF0
:1008380046EC0EF00101010E01010101876F010173
:10084800BC0E01010101866F42EC11F00FEC0EF0B5
:100858009368000E8A6E000E806E000E896E0F0E71
:10086800926EEF0EB3EC10F0870E2BEC10F094683C
:100878009F9C9D8C9F90F1849F9A9F989F86BE0E07
:10088800C8EC10F09D86000E01010101876F260E4D
:100898000101866FFC0E02EC0CF0AB8E94687BECC9
:1008A80011F00101AA6F0C0E01010101866F01010F
:1008B800AA510101AB6F0B0E01010101876F010104
:1008C800AB51530E18EC0DF08F0E00EC11F0EAC18D
:1008D800ACF1EBC1ADF15AEC0DF00101010E0101D3
:1008E80001019F6F0101BE0E010101019E6F01010F
:1008F800010E01010101A16F0101AF0E010101010A
:10090800A06F0A0ECBEC0FF001010101BF6F0101CE
:100918000101BFBF4DD03CD00101010E0101010111
:10092800876F0101BA0E01010101866F0101010102
:10093800BEC188F101010101896B01010101BF51AB
:10094800010101018A6F01018B6B01018ABF8B07CD
:100958000101010E010101018D6F0101AF0E0101BD
:1009680001018C6F39EC11F023D0AFC1AEF120D06A
:100978000101010E01010101876F0101AF0E0101A3
:100988000101866F01010101BF51AFEC0AF010D0DF
:1009980001010101BE510A0AD8B4BED7220AD8B44F
:1009A800E4D7010AD8B4E1D7040AD8B4E1D7030AD6
:1009B8000101010E010101019F6F0101BE0E01013C
:1009C80001019E6F0101010E01010101A16F0101E9
:1009D800AF0E01010101A06F0A0EAAEC0FF0010190
:1009E8000101BF6F01010101BFBF75D772D00101BD
:1009F800010E01010101A16F0101BC0E01010101FC
:100A0800A06F01010101BEC1A2F101010101A36BA7
:100A180001010101BF5101010101A46F0101A56B91
:100A28000101A4BFA5070101010E01010101A76F82
:100A38000101AF0E01010101A66FD6EC0DF04BD7F5
:100A480001010101AF51BA0AD8A41ED00101AA6F51
:100A5800050E01010101866F0101AA510101010E74
:100A680001010101886F0101AF0E01010101876FCA
:100A78000101AB6FBE0E01010101896F0101AB518C
:100A8800050E29EC06F023D001010101AF51AA0A95
:100A9800D8A41DD00101AA6F050E01010101866FBE
:100AA8000101AA510101010E01010101886F010133
:100AB800AF0E01010101876F0101AB6F9E0E0101AD
:100AC8000101896F0101AB51010E29EC06F08A94EE
:100AD80002D701010101BE510B0AD8B488D7150A03
:100AE800D8B4AED7010AD8B4ABD7F5D6010120EEF9
:100AF80042F001019051D92601019151DA22DF50CB
:100B080001010101996F0101010199510D0DF35086
:100B1800010101019025010101019C6FF4500101BF
:100B28000101912101019D6F010E9CC1D9FF9DC159
:100B3800DAFFDF6288D0010120EE01F001019C514B
:100B4800D92601019D51DA22DF5001010101925D90
:100B5800D8B002D0FD0E1200010120EE01F0010113
:100B68009C51D92601019D51DA22DF500101976F6E
:100B780001019751010101019A6F01019B6B01016C
:100B8800010196C187F10101010195C186F1030EAA
:100B9800010101019C250101976F000E010101016E
:100BA8009D210101986F97C188F198C189F19AC177
:100BB8008AF19BC18BF1E4EC0EF0010120EE42F0CA
:100BC80001019051D92601019151DA22010110EE5B
:100BD80042F001019051E12601019151E222E750D2
:100BE8000101976F010E0101972501010101866F2F
:100BF80001010101876B000E8723000E010101012D
:100C0800896F050E0101886FF4EC07F001010101FD
:100C18008651DF6E010120EE02F001019C51D926B8
:100C280001019D51DA2293C1E1FF94C1E2FFDFCFB8
:100C3800E7FF9CC1D9FF9DC1DAFF000EDF6E0101FD
:100C480001019A511200FC0E1200E8CF8CF100014C
:100C580020EE1AF00001C951D9260001CA51DA2242
:100C6800000EDF6E42D0000120EE1AF00001C951DB
:100C7800D9260001CA51DA22DF5001018A6F010129
:100C88008A51010DF350010101018725D96EF450F5
:100C9800010101018821DA6E000110EE1AF000014D
:100CA800C951E1260001CA51E222E75001018B6FC8
:100CB80001018B51010D100EF326000EF422F350A2
:100CC80000010001C925E16EF45000010001CA21AC
:100CD800E26EDFCFE7FF000120EE1AF00001C951F4
:100CE800D9260001CA51DA22DF2A000120EE1AF0C3
:100CF8000001C951D9260001CA51DA22DF50010189
:100D08008A6F010101018C5101018A5DD8A0ABD71E
:100D1800000120EE1CF00001C951D9260001CA517A
:100D2800DA22010189C1DFFF000120EE1AF000017B
:100D3800C951D9260001CA51DA2201018CC1DFFF4D
:100D4800000120EE0AF00001C951D9260001CA515C
:100D5800DA22010186C1DFFF000120EE0DF000015B
:100D6800C951D9260001CA51DA220A0EDF6E0001E4
:100D780020EE1BF00001C951D9260001CA51DA2220
:100D8800000EDF6EC58012000101010192C197F1CA
:100D980001010101986B010120EE41F00101905120
:100DA800D92601019151DA22DF5001010101996F21
:100DB8000101010199510D0DF35001010101902527
:100DC800010101019A6FF450010101019121010112
:100DD8009B6F9AC1D9FF9BC1DAFFDF50D8B402D00C
:100DE800FF0E1200010120EE01F001019A51D926EF
:100DF80001019B51DA22010192C1DFFF010120EEBE
:100E080002F001019A51D92601019B51DA22010110
:100E180093C1DFFF030E010101019A2501010101C0
:100E2800866F000E010101019B210101876F0101FD
:100E3800010195C189F10101010194C188F197C1AE
:100E48008AF198C18BF1E4EC0EF0010120EE41F03B
:100E580001019051D92601019151DA22010110EEC8
:100E680041F001019051E12601019151E222E75040
:100E78000101966F010E0101962501010101866F9E
:100E880001010101876B000E8723000E010101019A
:100E9800896F050E0101886FF4EC07F0010101016B
:100EA8008651DF6E9AC1D9FF9BC1DAFF010EDF6E52
:100EB800010E1200000100018CC091F00001000138
:100EC800926B000120EE41F000018A51D926000101
:100ED8008B51DA22DF5000010001936F00010001FD
:100EE80093510D0DF350000100018A250001000106
:100EF800946FF450000100018B210001956F94C09C
:100F0800D9FF95C0DAFFDF50D8B402D0FF0E120027
:100F1800000120EE01F000019451D92600019551FD
:100F2800DA2200018CC0DFFF000120EE02F0000190
:100F38009451D92600019551DA2200018DC0DFFFB6
:100F4800030E00010001942500010001806F000ECE
:100F58000001000195210001816F000100018FC08F
:100F680083F0000100018EC082F091C084F092C02D
:100F780085F013EC0FF0000120EE41F000018A51DA
:100F8800D92600018B51DA22000110EE41F0000150
:100F98008A51E12600018B51E222E7500001906F4F
:100FA800010E0001902500010001806F0001000181
:100FB800816B000E8123000E00010001836F050E76
:100FC8000001826F02EC09F0000100018051DF6E20
:100FD80094C0D9FF95C0DAFF010EDF6E010E120032
:100FE80001018A6F000E010101018C6F01018A5114
:100FF800010101018751800AF36E800EF35C000E37
:10100800D8B4865DD8B00FD001010101866D010109
:10101800871FD8B0872B01018A6F010E01010101DA
:101028008C6F01018A51010101018951800AF36E17
:10103800800EF35C000ED8B4885DD8B007D00101EB
:101048000101886D0101891FD8B0892B01010101B7
:1010580089518811D8B43AD001018A6F010E010173
:1010680001018B6F01018A5109D0010101010101C0
:10107800D89088378937010101018B2B01010101C3
:1010880089AFF3D701010101885101010101865D92
:10109800010101018951010101018759D8A00CD032
:1010A80001010101885101010101865F010101016E
:1010B800895101010101875B010101010101D890FA
:1010C80089338833010101018B2FDCD7010101012C
:1010D8008C51D8B407D001010101866D0101871F29
:1010E800D8B0872B86C186F187C187F11200E8CF77
:1010F80084F0000120EE1AF00001C951D926000140
:10110800CA51DA22000EDF6E42D0000120EE1AF03A
:101118000001C951D9260001CA51DA22DF50000165
:10112800826F00018251010DF350000100018025FA
:10113800D96EF450000100018121DA6E000110EE31
:101148001AF00001C951E1260001CA51E222E75014
:101158000001836F00018351010D100EF326000E6C
:10116800F422F35000010001C925E16EF45000019A
:101178000001CA21E26EDFCFE7FF000120EE1AF07E
:101188000001C951D9260001CA51DA22DF2A00011B
:1011980020EE1AF00001C951D9260001CA51DA22FD
:1011A800DF500001826F0001000184510001825D5F
:1011B800D8A0ABD7000120EE1AF00001C951D926FA
:1011C8000001CA51DA22000184C0DFFF000120EECD
:1011D8001BF00001C951D9260001CA51DA22010EBB
:1011E800DF6E000120EE10F00001C951D926000180
:1011F800CA51DA22DF50C96EC68812000001846F16
:10120800000E00010001866F0001845100010001F9
:101218008151800AF36E800EF35C000ED8B4805DB5
:10122800D8B00FD000010001806D0001811FD8B037
:10123800812B0001846F010E00010001866F0001FF
:101248008451000100018351800AF36E800EF35C23
:10125800000ED8B4825DD8B007D000010001826DBD
:101268000001831FD8B0832B000100018351821134
:10127800D8B43AD00001846F010E00010001856FD7
:101288000001845109D0000100010001D890823783
:10129800833700010001852B0001000183AFF3D7DC
:1012A80000010001825100010001805D0001000180
:1012B8008351000100018159D8A00CD00001000120
:1012C800825100010001805F00010001835100018B
:1012D8000001815B000100010001D8908333823353
:1012E80000010001852FDCD7000100018651D8B428
:1012F80007D000010001806D0001811FD8B0812B4B
:1013080080C080F081C081F01200E8CF80F0000139
:1013180020EE0CF00001C951D9260001CA51DA2289
:10132800010EDF6E000120EE0AF00001C951D92636
:101338000001CA51DA22000EDF6E0001000180515F
:10134800D8B43DD0C7AA21D0000120EE0DF000018D
:10135800C951D9260001CA51DA22050EDF6E0001F3
:1013680020EE0FF00001C951D9260001CA51DA2236
:10137800DF2A000120EE0EF00001C951D926000134
:10138800CA51DA22050EDF6E1200C7A40CD0000184
:1013980020EE0DF00001C951D9260001CA51DA2208
:1013A800080EDF6E1200000120EE0DF00001C95199
:1013B800D9260001CA51DA22070EDF6E1200000199
:1013C80020EE0DF00001C951D9260001CA51DA22D8
:1013D800060EDF6E12009EAA4ED020EE05F0575082
:1013E800D9265850DA22DF501B6E1B50010DF350DE
:1013F8005724D96EF4505820DA6E1FEC11F0DF6EC6
:1014080020EE05F05750D9265850DA22DF2AC90EA7
:10141800495C000E4A58D8A00CD020EE05F0575071
:10142800D9265850DA22010EDF6E000E4A6E000EE1
:10143800496E20EE05F05750D9265850DA22050E8D
:10144800DF6219D01B6E1F0E176E1B5058C019F0A3
:1014580057C018F020EE05F05750D9265850DA2218
:10146800DF50DCEC10F020EE05F05750D92658502C
:10147800DA22000EDF6E4EA61200AB98AB881B6E08
:101488001E0E176E1B50000E196E000E186E000E01
:10149800DCEC10F012000DC012F0136A20EE41F0DF
:1014A8000B50D9260C50DA22DF50146E14500D0D53
:1014B800F3500B24156EF4500C20166E15C0D9FF8E
:1014C80016C0DAFFDF50D8B402D0FF0E120020EEAB
:1014D80001F01550D9261650DA220DC0DFFF20EE94
:1014E80002F01550D9261650DA220EC0DFFF030E7F
:1014F8001524016E000E1620026E10C004F00FC0F5
:1015080003F012C005F013C006F0ECEC0FF020EE6B
:1015180041F00B50D9260C50DA2210EE41F00B5056
:10152800E1260C50E222E750116E010E1124016EE3
:10153800026A000E0222000E046E050E036EB4EC61
:101548000BF00150DF6E15C0D9FF16C0DAFF010E8F
:10155800DF6E010E1200E8CF8AF120EE0BF0575033
:10156800D9265850DA22000EDF6E35D020EE0BF067
:101578005750D9265850DA22DF500101886F0101EF
:101588008851010DF350010101018625D96EF450EF
:10159800010101018721DA6E10EE0BF05750E126A8
:1015A8005850E222E7500101896F01018951010D6C
:1015B800060EF326000EF422F3505724E16EF45081
:1015C8005820E26EDFCFE7FF20EE0BF05750D92608
:1015D8005850DA22DF2A20EE0BF05750D9265850FF
:1015E800DA22DF500101886F010101018A510101EE
:1015F800885DD8A0BBD720EE0CF05750D92658509C
:10160800DA22000EDF6E9D881200E8CF84F020EE0B
:101618000BF05750D9265850DA22000EDF6E35D01D
:1016280020EE0BF05750D9265850DA22DF5000012F
:10163800826F00018251010DF350000100018025E5
:10164800D96EF450000100018121DA6E10EE0BF022
:101658005750E1265850E222E7500001836F0001FD
:101668008351010D060EF326000EF422F350572481
:10167800E16EF4505820E26EDFCFE7FF20EE0BF06A
:101688005750D9265850DA22DF2A20EE0BF057504F
:10169800D9265850DA22DF500001826F000100017C
:1016A80084510001825DD8A0BBD720EE0CF05750C2
:1016B800D9265850DA22000EDF6E9D881200000EDF
:1016C80000010001816F000E0001806F5DEC11F0D8
:1016D80000010001CB2B4F5000010001CB5DD8A0C9
:1016E800120020EE52F010EE8EF0050EDECFE6FF6F
:1016F800E82EFCD7CBC08FF000010001CB51170BAF
:1017080000010001906F0001000E00010001816FCF
:1017180000018E0E00010001806F050E7BEC08F0C1
:1017280000018A6F000E00010001CB6F00018A5191
:101738004BC08CF04CC08DF000018A6F000E000188
:101748000001856F00018A5100018B6F000E0001B6
:101758000001866F00018B51000E0CEC10F0120096
:10176800056E000E076E05500250800AF36E800E5B
:10177800F35C000ED8B4015CD8B008D0016C021E2E
:10178800D8B0022A056E010E076E05500450800A73
:10179800F36E800EF35C000ED8B4035CD8B004D0AE
:1017A800036C041ED8B0042A04500310D8B41AD00D
:1017B800056E010E066E055004D0D8900336043627
:1017C800062A04AEFAD70350015C04500258D8A088
:1017D80004D00350015E0450025AD89004320332F8
:1017E800062EF1D70750D8B404D0016C021ED8B029
:1017F800022A01C001F002C002F01200E8CF8BF10A
:10180800000EAC6E000EAB6E010101018BB1AC880D
:10181800010101018BA302D0AC8CAB8C0101010149
:101828008BB5AC8E010101018BA702D0AB8801D02A
:10183800AB8A010101018BB9AC849E9801010101B9
:101848008BBBAB86010101018BAD02D09D8A01D013
:101858009D9A9E9A010101018BAF02D09D8801D00B
:101868009D9886C1AFFF010187C188F188C189F1C0
:1018780001018A6B01018951B06EAC8AAB8E949CD0
:10188800948EACA81200ACBE1200948C120002EE2A
:1018980000F0860EEE6AE806FDE101EE00F0860E25
:1018A800EE6AE806FDE10001CB6B00EE2DF0250E97
:1018B800EE6AE806FDE10F0EF66E230EF76E000ED7
:1018C800F86E0900F5CFEAF10900F5CFEBF1EC0E5F
:1018D800F66E220EF76E000EF86E00EEBFF010EEF8
:1018E8000AF00900F5CFEEFFE550E150FAE10A0EE3
:1018F800F66E230EF76E000EF86E00EE52F010EE44
:1019080005F00900F5CFEEFFE550E150FAE1000ED1
:10191800F86E000103EF04F00101010189518811FB
:10192800D8B43AD001018A6F010E010101018B6F11
:1019380001018A5109D0010101010101D8908837BC
:101948008937010101018B2B0101010189AFF3D70F
:1019580001010101885101010101865D01010101B7
:101968008951010101018759D8A00CD00101010159
:10197800885101010101865F0101010189510101BD
:101988000101875B010101010101D8908933883386
:10199800010101018B2FDCD786C186F187C187F150
:1019A8001200E9CFB3F0EACFB4F0E1CFB5F0E2CF5F
:1019B800B6F0D9CFB7F0DACFB8F0F3CFB9F0F4CFAB
:1019C800BAF0F6CFBBF0F7CFBCF0F8CFBDF0F5CF4B
:1019D800BEF09EA603D09E967FEC11F0F2A405D02F
:1019E800F294808063EC0BF080907BEC0EF0BEC02C
:1019F800F5FFBDC0F8FFBCC0F7FFBBC0F6FFBAC01B
:101A0800F4FFB9C0F3FFB8C0DAFFB7C0D9FFB6C05A
:101A1800E2FFB5C0E1FFB4C0EAFFB3C0E9FFB2C05E
:101A2800FBFFB1C0FAFF1100E8CF8AF1000EC26EC9
:101A3800000EC06E01010101D89086313C0BC26EC8
:101A480086C188F10101883BF00E8817300E01012C
:101A580088170101010187510F0B01018811C16E1F
:101A68008AC188F10101D89088370101D890883758
:101A7800380E010188178AC189F10101893B0F0ECF
:101A88008917070E01018917010101018A51800B8D
:101A98000101891101018811C06E0101010186AFA0
:101AA80003D09E9C9D8CF28CC280120088EC0FF0B3
:101AB800010101018B5101018A11D8B41200010101
:101AC8008C6F010E4D6E01018C510101010E010157
:101AD8000101876F0101000E01010101866F62ECAF
:101AE80010F00009D8B407D001018C6F000E4D6EBC
:101AF80001018C5112000101010E01010101876FE2
:101B08000101430E01010101866F62EC10F000092A
:101B1800D8B407D001018C6F000E4D6E01018C51B5
:101B280012000A0E2EEC11F0D0D7010120EE41F080
:101B380001018651D92601018751DA22000EDF6E94
:101B4800010120EE42F001018651D9260101875199
:101B5800DA22000EDF6E0101886F000E010101011B
:101B6800896F01018851040E01010101896501D0C5
:101B780012000101010189510D0DF350010101010C
:101B88008625D96EF450010101018721DA6E000E15
:101B9800DF6E01010101892B040E01010101896534
:101BA800E8D71200A0C1D9FFA1C1DAFFDE2A000ED2
:101BB800DD22A0C1D9FFA1C1DAFF0101DECF86F184
:101BC8000101DDCF87F1000E01010101896F0A0EC5
:101BD8000101886F90EC0CF0010101018651090A9E
:101BE80001018711D8A412000101A86F140E010188
:101BF80001019C6F0101A85101010101A1C19EF1E0
:101C080001010101A0C19DF1020E47EC10F0010194
:101C18000101A96F120001018A6F000E4D6E0101CA
:101C28008A510101010E01010101876F0101430E73
:101C380001010101866F99EC0DF00101010E01010E
:101C48000101876F0101000E01010101866F99EC06
:101C58000DF00201020E01010101876F0201430E1E
:101C680001010101866F99EC0DF00201020E0101DC
:101C78000101876F0201000E01010101866F99ECD5
:101C88000DF012000101000187C1CAF00101000135
:101C980086C1C9F0000120EE0AF00001C951D92619
:101CA8000001CA51DA22000EDF6E000120EE0CF0AE
:101CB8000001C951D9260001CA51DA22000EDF6E8F
:101CC800000120EE0DF00001C951D9260001CA51CA
:101CD800DA22050EDF6E000120EE0FF00001C95177
:101CE800D9260001CA51DA22000EDF6E12004D66B5
:101CF80001D0120065EC0FF00001000183510001D2
:101D08008211D8A4120066EC11F000010001815183
:101D180000018011D8B412000101010E0001000178
:101D2800816F0101000E00010001806F98EC10F036
:101D38000009D8A412000101010E00010001816F01
:101D48000101430E00010001806F98EC10F00009BA
:101D5800D8B482EC11F01200ACA2120020EE0CF004
:101D68005750D9265850DA22DF50016E20EE0BF07A
:101D78005750D9265850DA22DF50015CD8B01ED00F
:101D880020EE0CF05750D9265850DA22DF50016E59
:101D98000150010D060EF326000EF422F3505724CD
:101DA800D96EF4505820DA6EDF50AD6E20EE0CF08C
:101DB8005750D9265850DA22DF2A12009D9812006F
:101DC8000101010189C18FF10101010188C18EF171
:101DD8000101010187C18DF10101010186C18CF169
:101DE80012D08EC1D9FF8FC1DAFF8CC1E1FF8DC13E
:101DF800E2FFDFCFE7FF010101018E4B8F2B0101CD
:101E080001018C4B8D2B010101018A07D8A08B079A
:101E180001018A29D8B48B29D8B41200E2D700016D
:101E2800000183C089F00001000182C088F0000130
:101E3800000181C087F00001000180C086F012D047
:101E480088C0D9FF89C0DAFF86C0E1FF87C0E2FFFA
:101E5800DFCFE7FF00010001884B892B000100015B
:101E6800864B872B000100018407D8A08507000155
:101E78008429D8B48529D8B41200E2D7F2AC08D0A6
:101E8800000E01010101896F000E0101886F120027
:101E98004BEC11F001010101875101018611D8B401
:101EA80008D0000E01010101896F000E0101886F41
:101EB8001200000E01010101896F010E0101886FF6
:101EC8001200F2AC08D0000E00010001836F000E72
:101ED8000001826F120066EC11F0000100018151CF
:101EE80000018011D8B408D0000E00010001836FF2
:101EF800000E0001826F1200000E00010001836FC6
:101F0800010E0001826F120042EC0FF00101010185
:101F1800895101018811D8A411D04BEC11F00101AD
:101F28000101875101018611D8A408D0000E0101D2
:101F380001018B6F010E01018A6F1200000E010171
:101F480001018B6F000E01018A6F1200E8CFA2F128
:101F58000101010E01010101916F0101430E01010F
:101F68000101906FA2C192F1010101019FC194F199
:101F7800010101019EC193F101010101A1C196F185
:101F880001010101A0C195F17AEC05F01200E8CF3A
:101F9800A2F10101010E01010101916F0101000E81
:101FA80001010101906FA2C192F1010101019FC1DC
:101FB80094F1010101019EC193F101010101A1C147
:101FC80096F101010101A0C195F17AEC05F012002A
:101FD80004C00AF003C009F002C008F001C007F00D
:101FE8000ED009C0D9FF0AC0DAFF07C0E1FF08C058
:101FF800E2FFDFCFE7FF094A0A2A074A082A05064F
:10200800D8A006060528D8B40628D8B41200E9D7FF
:10201800E8CF87F086C04FF0000E00010001816F05
:10202800000E0001806F5DEC11F087C088F085C05C
:1020380089F00001000E00010001816F0001880E87
:1020480000010001806F020E09EC0BF01200E8CFCE
:1020580086F10101010186517E0BCD6E010101015E
:1020680086AD02D0CD8E01D0CD9E000ECF6E000E73
:10207800CE6E9E900101010186AF02D09D8001D0F5
:102088009D90CD801200E8CF9FF10201020E010160
:102098000101916F0201000E01010101906F9FC1C2
:1020A80092F19CC193F1010101019EC195F10101D9
:1020B80001019DC194F1C8EC06F01200010120EE67
:1020C80042F001018651D92601018751DA22DF50F9
:1020D8000101886F010188510D0DF35001010101C3
:1020E8008625D96EF450010101018721DA6EDF508F
:1020F8001200E8CF99F00101010E000100018B6F79
:102108000101000E000100018A6F99C08CF096C091
:102118008DF00001000198C08FF00001000197C008
:102128008EF05EEC07F01200000120EE42F0000194
:102138008051D92600018151DA22DF500001826FD7
:10214800000182510D0DF350000100018025D96E68
:10215800F450000100018121DA6EDF501200E8CF4F
:1021680086F10101010186517F0BD56E000ED76EF5
:10217800000ED66EF2940101010186AF02D0F28AF8
:1021880001D0F29AD58E1200E8CF86F19486948811
:1021980086C1C8FF000EC76E000EC66E000EC56E63
:1021A8000E0EC612C78E94869488C580C68A120001
:1021B800E8CF1AF00101010E0C6E0101430E0B6EFF
:1021C8001AC00DF017C00EF019C010F018C00FF0AB
:1021D8004FEC0AF012001B0E2D5CD8B002D02D284F
:1021E8002D6E2D50010D2D0EF324D96E000EF42006
:1021F800DA6EC4CFDFFF1200E8CF87F1C2CF86F1D5
:10220800C30E0101861701010101D89087313C0BEB
:1022180001018611C26E1200010187C158F0010147
:1022280086C157F020EE05F05750D9265850DA22CB
:10223800000EDF6E1200F20E4E16ABAC03D04E90BD
:10224800ABB04E80ABB44E84ABB24E86AECF01F08D
:1022580001501200E8CF86F1FA0E00F0E82EFDD703
:1022680001010101862FF8D71200010101018DC17A
:102278008FF1010101018CC18EF1120086C1D9FFD5
:1022880087C1DAFF000EDE6E000EDD6E1200000E52
:10229800F2AE010E01010101866F0101876B120088
:1022A80001C003F002C004F004C0CFFF03C0CEFF9A
:1022B800120080C082F081C083F083C0D7FF82C043
:1022C800D6FF1200000EF2AE010E00010001806F71
:1022D8000001816B1200000E026E000E016E54ECBC
:1022E80011F0120001010203060400000000D08E64
:1022F800F28EF28C120065EC00F01200D38E03000F
:0A23080012000400000000010200B2
:067FF80080F4C5FFFFF15B
:00000001FF
