:0400000063EF00F0BA
:0C000800FACFB3F0FBCFB4F02FEF0CF0F8
:10001800D8CF1CF0E8CF1DF0E0CF1EF0FACF1FF0CC
:10002800FBCF20F0E9CF21F0EACF22F0E1CF23F097
:10003800E2CF24F0D9CF25F0DACF26F0F3CF27F09E
:10004800F4CF28F0F6CF29F0F7CF2AF0F8CF2BF02D
:10005800F5CF2CF09EAC03D09E9C60EC10F09EA0D7
:1000680003D09E90D7EC10F09EB80CEC0EF09EAA30
:1000780003D09E9AE5EC09F02CC0F5FF2BC0F8FFE1
:100088002AC0F7FF29C0F6FF28C0F4FF27C0F3FFF6
:1000980026C0DAFF25C0D9FF24C0E2FF23C0E1FF54
:1000A80022C0EAFF21C0E9FF20C0FBFF1FC0FAFF02
:1000B8001EC0E0FF1DC0E8FF1CC0D8FF100069EF9C
:1000C8000DF000019A6F000E00010001B26F0001EF
:1000D8009A5100019A6F000E00010001AB6F0001F8
:1000E8009A5100019A6F000E00010001B16F0001E2
:1000F8009A5100019A6F000E00010001AE6F0001D5
:100108009A5100019A6F000E00010001AC6F0001C6
:100118009A51C6AC29D0C69C000120EE0DF0000112
:10012800CD51D9260001CE51DA22050EDF6E00012D
:100138009A6F010E00010001AC6F00019A51000195
:1001480020EE0FF00001CD51D9260001CE51DA2260
:10015800DF2A000120EE0EF00001CD51D926000162
:10016800CE51DA22040EDF6EC7A00AD0C9CFADF097
:1001780000019A6F010E00010001B26F00019A514F
:1001880000010001AC67CED1B7D1C7A6CBD1000121
:100198000001B25181EC09F0000120EE0DF00001E0
:1001A800CD51D9260001CE51DA22080EDF62BAD12C
:1001B80000019A6F000E00010001B26F00019A5110
:1001C80000019A6F010E00010001AE6F87D1C7A828
:1001D80030D0000120EE0CF00001CD51D9260001ED
:1001E800CE51DA22DF2A00010001B251D8B479D108
:1001F800C7BA09D000019A6F010E00010001B16F62
:1002080000019A516ED1000120EE0FF00001CD518E
:10021800D9260001CE51DA22DF2A000120EE0EF0A5
:100228000001CD51D9260001CE51DA22060EDF6E2B
:1002380058D100010001B251D8B474D1000120EEA8
:100248000CF00001CD51D9260001CE51DA22DF2A67
:10025800C7BA19D0C7B40BD0000120EE0DF00001C9
:10026800CD51D9260001CE51DA22070E76D00001F1
:1002780020EE0DF00001CD51D9260001CE51DA2231
:10028800080EDF6E1DD1000120EE0FF00001CD51E8
:10029800D9260001CE51DA22DF2A000120EE0DF026
:1002A8000001CD51D9260001CE51DA22050EDF6EAC
:1002B800000120EE0EF00001CD51D9260001CE51EB
:1002C800DA22060E4AD0000120EE1BF00001CD51C3
:1002D800D9260001CE51DA22DF5000019A6F0001C1
:1002E80020EE1AF00001CD51D9260001CE51DA22B4
:1002F800DF5000019A5DD8B0F4D0000120EE1BF069
:100308000001CD51D9260001CE51DA22DF5000017B
:100318009A6F00019A51010D100EF326000EF42277
:10032800F35000010001CD25D96EF4500001000101
:10033800CE21DA6EDF50C96E000120EE1BF00001FD
:10034800CD51D9260001CE51DA22DF2A00019A6F59
:10035800010E00010001AB6FC1D0DF6EE3D0C7A86A
:1003680062D0000120EE0CF00001CD51D926000129
:10037800CE51DA22DF2A00010001B251D8B44AD0A6
:10038800C7AA27D0000120EE0AF00001CD51D926D6
:100398000001CE51DA22DF5000019A6F00019A5114
:1003A800010DF35000010001CD25D96EF450000174
:1003B8000001CE21DA6E0001ADC0DFFF000120EEA2
:1003C8000AF00001CD51D9260001CE51DA22DF2AE8
:1003D80021D0000120EE0FF00001CD51D9260001F7
:1003E800CE51DA22DF2A000120EE0EF00001CD51B5
:1003F800D9260001CE51DA22060EDF6E000120EE6A
:100408000DF00001CD51D9260001CE51DA22050E9A
:10041800DF6E67D000019A6F010E00010001B16F15
:1004280000019A515ED000010001B251D8B47AD0CF
:10043800000120EE0CF00001CD51D9260001CE516B
:10044800DA22DF2AC7AA27D0000120EE0AF000012D
:10045800CD51D9260001CE51DA22DF5000019A6F22
:1004680000019A51010DF35000010001CD25D96E0C
:10047800F45000010001CE21DA6E0001ADC0DFFFAB
:10048800000120EE0AF00001CD51D9260001CE511D
:10049800DA22DF2A47D0C7A4B6D6000120EE0DF035
:1004A8000001CD51D9260001CE51DA22080EDF6EA7
:1004B80000019A6F010E00010001B16F00019A510D
:1004C80000019A6F010E00010001AE6F00019A5100
:1004D80000019A6F000E00010001B26F00019A51ED
:1004E80021D0000120EE0DF00001CD51D9260001E8
:1004F800CE51DA22050E31D7000120EE0DF00001B1
:10050800CD51D9260001CE51DA22DF50050AD8B4E0
:100518003CD6030AD8B45BD6010AD8B420D70F0A50
:10052800D8B4D1D600010001B26705D0000100019E
:10053800AB51D8B402D0C6A8C688000120EE0AF094
:100548000001CD51D9260001CE51DA22080EDF6410
:1005580024D000010001B16720D0000120EE0DF089
:100568000001CD51D9260001CE51DA22050EDF6EE9
:10057800000120EE0FF00001CD51D9260001CE5127
:10058800DA22DF2A000120EE0EF00001CD51D92633
:100598000001CE51DA22070EDF6E00010001B151D1
:1005A800D8B448D0000120EE0CF00001CD51D92676
:1005B8000001CE51DA22000110EE0AF00001CD51FF
:1005C800E1260001CE51E222E75000019A6F0001B6
:1005D8009A51010DF35000010001CD25E16EF45050
:1005E80000010001CE21E26EDFCFE7FF00019A6F24
:1005F800280E00010001966F00019A5100010001C8
:10060800CEC098F000010001CDC097F0000120EEA7
:100618000AF00001CD51D9260001CE51DA22DF506F
:1006280000019B6F00019B29E1EC0FF0000120EE17
:100638000AF04BD0000120EE0FF00001CD51D92671
:100648000001CE51DA22DF50D8B447D0000120EEA5
:100658000FF00001CD51D9260001CE51DA22DF502A
:1006680000010001A86F000120EE0EF00001CD513D
:10067800D9260001CE51DA22DF5000010001A96F0E
:10068800000120EE0CF00001CD51D9260001CE5119
:10069800DA22DF5000010001AA6F00019A6F290ECB
:1006A80000010001966F00019A510001000E00013F
:1006B8000001986F0001A80E00010001976F030E5A
:1006C800E1EC0FF0000120EE0FF00001CD51D9262A
:1006D8000001CE51DA22000EDF6E00010001AE519A
:1006E800D8B41200000E00010001B06F000E000126
:1006F800AF6FAA0ECDC0D9FFCEC0DAFFDF621CD023
:10070800000E00010001B06F050E0001AF6F20EE72
:10071800C1F010EE9CF0050EDECFE6FFE82EFCD708
:100728000001000E2E6E00019C0E2D6E00010001CE
:10073800AF518CEC08F059D0BA0ECDC0D9FFCEC05D
:10074800DAFFDF6252D0000E00010001B06F050E23
:100758000001AF6F20EEC6F010EEA1F0050EDECF5F
:10076800E6FFE82EFCD70001000E2E6E0001A10E58
:100778002D6E00010001AF518CEC08F0CBC0A6F043
:10078800CCC0A7F0000120EE01F00001CD51D92620
:100798000001CE51DA22FF0EDF620AD00001000EFE
:1007A8002E6E0001A60E2D6E020EFFEC0AF01DD073
:1007B800000120EE01F00001CD51D9260001CE51F3
:1007C800DA22DF50D8A411D000019A6F000E000180
:1007D8000001A66F00019A510001000E2E6E000163
:1007E800A60E2D6E010EFFEC0AF000019A6F000EA6
:1007F80000010001AE6F00019A511200820ED36E03
:100808009B9C0101010E01010101876F0101C20ECC
:1008180001010101866F81EC10F00101010E010157
:100828000101876F0101CF0E01010101866FD7EC2D
:100838000DF00101010E01010101876F0101BE0EDA
:1008480001010101866FB3EC10F0A0EC0DF0936884
:10085800000E8A6E000E806E000E896E0F0E926E6C
:100868008080EF0E12EC10F08090850E8FEC0FF068
:100878009F9C9D8C9F90F1849F9A9F989F86BE0E07
:1008880027EC10F09D86000E01010101876F260EEE
:100898000101866FFC0EA1EC0BF0AB8E9468EAECBC
:1008A80010F00101AA6F0C0E01010101866F010110
:1008B800AA510101AB6F0B0E01010101876F010104
:1008C800AB51530E72EC0CF08F0E71EC10F0ECC1C2
:1008D800ACF1EDC1ADF1EEC1BCF1EFC1BDF101016B
:1008E800010E01010101876F0101BC0E0101010127
:1008F800866F020EA5EC0AF0B4EC0CF00101010EB3
:10090800010101019F6F0101C00E010101019E6FEC
:100918000101010E01010101A16F0101AF0E0101E9
:100928000101A06F0A0E2EEC0FF001010101C16F49
:1009380001010101C1BF4DD03CD00101010E0101EF
:100948000101876F0101BA0E01010101866F0101E2
:100958000101C0C188F101010101896B0101010197
:10096800C151010101018A6F01018B6B01018ABF2D
:100978008B070101010E010101018D6F0101AF0E0D
:10098800010101018C6FAAEC10F023D0AFC1AEF1C8
:1009980020D00101010E01010101876F0101AF0E95
:1009A80001010101866F01010101C151A5EC0AF0A5
:1009B80010D001010101C0510A0AD8B4BED7220AD9
:1009C800D8B4E4D7010AD8B4E1D7040AD8B4E1D737
:1009D800030A0101010E010101019F6F0101C00E0F
:1009E800010101019E6F0101010E01010101A16FC9
:1009F8000101AF0E01010101A06F0A0E0DEC0FF00D
:100A080001010101C16F01010101C1BF75D772D098
:100A18000101010E01010101A16F0101BE0E0101D9
:100A28000101A06F01010101C0C1A2F10101010191
:100A3800A36B01010101C15101010101A46F010171
:100A4800A56B0101A4BFA5070101010E0101010168
:100A5800A76F0101AF0E01010101A66F30EC0DF087
:100A68004BD701010101AF51BA0AD8A41ED0010128
:100A7800AA6F050E01010101866F0101AA5101014A
:100A8800010E01010101886F0101AF0E0101010191
:100A9800876F0101AB6FBE0E01010101896F010172
:100AA800AB51050E3AEC06F023D001010101AF511C
:100AB800AA0AD8A41DD00101AA6F050E01010101DF
:100AC800866F0101AA510101010E01010101886F20
:100AD8000101AF0E01010101876F0101AB6F9E0E8D
:100AE80001010101896F0101AB51010E3AEC06F0D9
:100AF8008A9402D701010101C0510B0AD8B488D7E2
:100B0800150AD8B4AED7010AD8B4ABD7F5D60101C7
:100B180020EE42F001019051D92601019151DA22CB
:100B2800DF5001010101996F0101010199510D0D7A
:100B3800F350010101019025010101019C6FF4505E
:100B480001010101912101019D6F010E9CC1D9FF95
:100B58009DC1DAFFDF6288D0010120EE01F00101BA
:100B68009C51D92601019D51DA22DF500101010172
:100B7800925DD8B002D0FD0E1200010120EE01F006
:100B880001019C51D92601019D51DA22DF50010152
:100B9800976F01019751010101019A6F01019B6B48
:100BA8000101010196C187F10101010195C186F199
:100BB800030E010101019C250101976F000E01013F
:100BC80001019D210101986F97C188F198C189F1B0
:100BD8009AC18AF19BC18BF140EC0EF0010120EE25
:100BE80042F001019051D92601019151DA22010107
:100BF80010EE42F001019051E12601019151E222EB
:100C0800E7500101976F010E0101972501010101CC
:100C1800866F01010101876B000E8723000E010119
:100C28000101896F050E0101886F05EC08F00101CB
:100C380001018651DF6E010120EE02F001019C5195
:100C4800D92601019D51DA2293C1E1FF94C1E2FF47
:100C5800DFCFE7FF9CC1D9FF9DC1DAFF000EDF6E31
:100C6800010101019A511200FC0E1200E8CF8CF12B
:100C7800000120EE1AF00001CD51D9260001CE5115
:100C8800DA22000EDF6E42D0000120EE1AF00001D9
:100C9800CD51D9260001CE51DA22DF5001018A6FE9
:100CA80001018A51010DF350010101018725D96E17
:100CB800F450010101018821DA6E000110EE1AF0EA
:100CC8000001CD51E1260001CE51E222E750010199
:100CD8008B6F01018B51010D100EF326000EF422CB
:100CE800F35000010001CD25E16EF4500001000130
:100CF800CE21E26EDFCFE7FF000120EE1AF00001FF
:100D0800CD51D9260001CE51DA22DF2A000120EE8A
:100D18001AF00001CD51D9260001CE51DA22DF5058
:100D280001018A6F010101018C5101018A5DD8A07E
:100D3800ABD7000120EE1CF00001CD51D9260001EF
:100D4800CE51DA22010189C1DFFF000120EE1AF03D
:100D58000001CD51D9260001CE51DA2201018CC102
:100D6800DFFF000120EE0AF00001CD51D926000175
:100D7800CE51DA22010186C1DFFF000120EE0DF01D
:100D88000001CD51D9260001CE51DA220A0EDF6EBC
:100D9800000120EE1BF00001CD51D9260001CE51F3
:100DA800DA22000EDF6EC58012000101010192C136
:100DB80097F101010101986B010120EE41F0010159
:100DC8009051D92601019151DA22DF500101010128
:100DD800996F0101010199510D0DF35001010101B4
:100DE8009025010101019A6FF4500101010191213F
:100DF80001019B6F9AC1D9FF9BC1DAFFDF50D8B4BC
:100E080002D0FF0E1200010120EE01F001019A51FB
:100E1800D92601019B51DA22010192C1DFFF0101AC
:100E280020EE02F001019A51D92601019B51DA22E4
:100E3800010193C1DFFF030E010101019A250101A0
:100E48000101866F000E010101019B210101876FDD
:100E58000101010195C189F10101010194C188F1E4
:100E680097C18AF198C18BF140EC0EF0010120EE98
:100E780041F001019051D92601019151DA22010175
:100E880010EE41F001019051E12601019151E22259
:100E9800E7500101966F010E01019625010101013C
:100EA800866F01010101876B000E8723000E010187
:100EB8000101896F050E0101886F05EC08F0010139
:100EC80001018651DF6E9AC1D9FF9BC1DAFF010E7D
:100ED800DF6E010E1200000100018CC091F00001CC
:100EE8000001926B000120EE41F000018A51D926E1
:100EF80000018B51DA22DF5000010001936F0001DD
:100F0800000193510D0DF350000100018A250001E5
:100F18000001946FF450000100018B210001956FCE
:100F280094C0D9FF95C0DAFFDF50D8B402D0FF0EC5
:100F38001200000120EE01F000019451D9260001B1
:100F48009551DA2200018CC0DFFF000120EE02F08B
:100F580000019451D92600019551DA2200018DC073
:100F6800DFFF030E00010001942500010001806FDE
:100F7800000E0001000195210001816F00010001B0
:100F88008FC083F0000100018EC082F091C084F010
:100F980092C085F06FEC0EF0000120EE41F00001E8
:100FA8008A51D92600018B51DA22000110EE41F056
:100FB80000018A51E12600018B51E222E75000012D
:100FC800906F010E0001902500010001806F000163
:100FD8000001816B000E8123000E00010001836F68
:100FE800050E0001826F0CEC09F000010001805130
:100FF800DF6E94C0D9FF95C0DAFF010EDF6E010ED7
:10100800120001018A6F000E010101018C6F0101BC
:101018008A51010101018751800AF36E800EF35C49
:10102800000ED8B4865DD8B00FD001010101866DDD
:101038000101871FD8B0872B01018A6F010E0101BA
:1010480001018C6F01018A51010101018951800A56
:10105800F36E800EF35C000ED8B4885DD8B007D06C
:1010680001010101886D0101891FD8B0892B010197
:10107800010189518811D8B43AD001018A6F010E53
:10108800010101018B6F01018A5109D001010101A0
:101098000101D89088378937010101018B2B0101A3
:1010A800010189AFF3D70101010188510101010153
:1010B800865D010101018951010101018759D8A00B
:1010C8000CD001010101885101010101865F010174
:1010D8000101895101010101875B01010101010140
:1010E800D89089338833010101018B2FDCD70101A6
:1010F80001018C51D8B407D001010101866D0101AD
:10110800871FD8B0872B86C186F187C187F1120067
:10111800E8CF2FF0000120EE1AF00001CD51D926BA
:101128000001CE51DA22000EDF6E3ED0000120EE23
:101138001AF00001CD51D9260001CE51DA22DF5034
:101148000001806F00018051010DF3502D24D96EEC
:10115800F4502E20DA6E000110EE1AF00001CD5185
:10116800E1260001CE51E222E7500001816F000123
:101178008151010D100EF326000EF422F3500001E8
:101188000001CD25E16EF45000010001CE21E26E90
:10119800DFCFE7FF000120EE1AF00001CD51D9267C
:1011A8000001CE51DA22DF2A000120EE1AF00001F8
:1011B800CD51D9260001CE51DA22DF500001806FCF
:1011C8002F500001805DD8A0B1D7000120EE1AF0A1
:1011D8000001CD51D9260001CE51DA222FC0DFFF00
:1011E800000120EE1BF00001CD51D9260001CE519F
:1011F800DA22010EDF6E000120EE10F00001CD5161
:10120800D9260001CE51DA22DF50C96EC6881200F5
:101218002D6E000E2F6E2D50000100018151800AA5
:10122800F36E800EF35C000ED8B4805DD8B00BD09E
:1012380000010001806D0001811FD8B0812B2D6E47
:10124800010E2F6E2D50000100018351800AF36EAC
:10125800800EF35C000ED8B4825DD8B007D00001D0
:101268000001826D0001831FD8B0832B00010001AB
:1012780083518211D8B432D02D6E010E2E6E2D50AE
:1012880007D0000100010001D890823783372E2A49
:101298000001000183AFF5D7000100018251000170
:1012A8000001805D000100018351000100018159A6
:1012B800D8A00CD000010001825100010001805F1C
:1012C80000010001835100010001815B0001000160
:1012D8000001D890833382332E2EDED72F50D8B416
:1012E80007D000010001806D0001811FD8B0812B5B
:1012F80080C080F081C081F01200E8CF2DF000019D
:1013080020EE0CF00001CD51D9260001CE51DA2291
:10131800010EDF6E000120EE0AF00001CD51D92642
:101328000001CE51DA22000EDF6E2D50D8B43DD028
:10133800C7AA21D0000120EE0DF00001CD51D92619
:101348000001CE51DA22050EDF6E000120EE0FF00B
:101358000001CD51D9260001CE51DA22DF2A000141
:1013680020EE0EF00001CD51D9260001CE51DA222F
:10137800050EDF6E1200C7A40CD0000120EE0DF0A0
:101388000001CD51D9260001CE51DA22080EDF6EB8
:101398001200000120EE0DF00001CD51D926000108
:1013A800CE51DA22070EDF6E1200000120EE0DF09A
:1013B8000001CD51D9260001CE51DA22060EDF6E8A
:1013C80012009EAA4ED020EE05F05250D926535056
:1013D800DA22DF501B6E1B50010DF3505224D96ED8
:1013E800F4505320DA6E90EC10F0DF6E20EE05F02A
:1013F8005250D9265350DA22DF2AC90E4C5C000E0F
:101408004D58D8A00CD020EE05F05250D926535094
:10141800DA22010EDF6E000E4D6E000E4C6E20EECD
:1014280005F05250D9265350DA22050EDF6219D042
:101438001B6E1F0E176E1B5053C019F052C018F0C8
:1014480020EE05F05250D9265350DA22DF503BECFB
:1014580010F020EE05F05250D9265350DA22000E33
:10146800DF6E51A61200AB98AB881B6E1E0E176E6E
:101478001B50000E196E000E186E000E3BEC10F09B
:1014880012000DC012F0136A20EE41F00B50D9265D
:101498000C50DA22DF50146E14500D0DF3500B244B
:1014A800156EF4500C20166E15C0D9FF16C0DAFF61
:1014B800DF50D8B402D0FF0E120020EE01F0155014
:1014C800D9261650DA220DC0DFFF20EE02F01550A3
:1014D800D9261650DA220EC0DFFF030E1524016E3E
:1014E800000E1620026E10C004F00FC003F012C0E8
:1014F80005F013C006F04FEC0FF020EE41F00B5052
:10150800D9260C50DA2210EE41F00B50E1260C508F
:10151800E222E750116E010E1124016E026A000EDC
:101528000222000E046E050E036E53EC0BF0015000
:10153800DF6E15C0D9FF16C0DAFF010EDF6E010E8F
:101548001200E8CF8AF120EE0BF05250D926535002
:10155800DA22000EDF6E35D020EE0BF05250D9267D
:101568005350DA22DF500101886F01018851010DC3
:10157800F350010101018625D96EF45001010101E2
:101588008721DA6E10EE0BF05250E1265350E2221A
:10159800E7500101896F01018951010D060EF326FB
:1015A800000EF422F3505224E16EF4505320E26E00
:1015B800DFCFE7FF20EE0BF05250D9265350DA2246
:1015C800DF2A20EE0BF05250D9265350DA22DF5092
:1015D8000101886F010101018A510101885DD8A0CC
:1015E800BBD720EE0CF05250D9265350DA22000E09
:1015F800DF6E9D881200E8CF2FF020EE0BF05250DE
:10160800D9265350DA22000EDF6E31D020EE0BF0CF
:101618005250D9265350DA22DF500001806F000162
:101628008051010DF3502D24D96EF4502E20DA6E1E
:1016380010EE0BF05250E1265350E222E750000121
:10164800816F00018151010D060EF326000EF42270
:10165800F3505224E16EF4505320E26EDFCFE7FFDF
:1016680020EE0BF05250D9265350DA22DF2A20EE12
:101678000BF05250D9265350DA22DF500001806F08
:101688002F500001805DD8A0C1D720EE0CF0525039
:10169800D9265350DA22000EDF6E9D881200056E9F
:1016A800000E076E05500250800AF36E800EF35C40
:1016B800000ED8B4015CD8B008D0016C021ED8B0B6
:1016C800022A056E010E076E05500450800AF36E5B
:1016D800800EF35C000ED8B4035CD8B004D0036C61
:1016E800041ED8B0042A04500310D8B41AD0056ECA
:1016F800010E066E055004D0D89003360436062A2B
:1017080004AEFAD70350015C04500258D8A004D0A4
:101718000350015E0450025AD89004320332062E58
:10172800F1D70750D8B404D0016C021ED8B0022AF1
:1017380001C001F002C002F01200E8CF8BF1000EE8
:10174800AC6E000EAB6E010101018BB1AC880101DA
:1017580001018BA302D0AC8CAB8C010101018BB5CC
:10176800AC8E010101018BA702D0AB8801D0AB8AF6
:10177800010101018BB9AC849E98010101018BBB69
:10178800AB86010101018BAD02D09D8A01D09D9AE3
:101798009E9A010101018BAF02D09D8801D09D98CE
:1017A80086C1AFFF010187C188F188C189F10101B4
:1017B8008A6B01018951B06EAC8AAB8E949C948E71
:1017C800ACA81200ACBE1200948C120001010101F9
:1017D80089518811D8B43AD001018A6F010E0101EC
:1017E80001018B6F01018A5109D001010101010139
:1017F800D89088378937010101018B2B010101013C
:1018080089AFF3D701010101885101010101865D0A
:10181800010101018951010101018759D8A00CD0AA
:1018280001010101885101010101865F01010101E6
:10183800895101010101875B010101010101D89072
:1018480089338833010101018B2FDCD786C186F1EA
:1018580087C187F11200E9CFB5F0EACFB6F0E1CF42
:10186800B7F0E2CFB8F0D9CFB9F0DACFBAF0F3CF0A
:10187800BBF0F4CFBCF0F6CFBDF0F7CFBEF0F8CF99
:10188800BFF0F5CFC0F09EA603D09E96EEEC10F008
:10189800F2A405D0F2948080FCEC0FF080909EECCE
:1018A8000EF0C0C0F5FFBFC0F8FFBEC0F7FFBDC057
:1018B800F6FFBCC0F4FFBBC0F3FFBAC0DAFFB9C083
:1018C800D9FFB8C0E2FFB7C0E1FFB6C0EAFFB5C0B4
:1018D800E9FFB4C0FBFFB3C0FAFF1100E8CF8AF1FB
:1018E800000EC26E000EC06E01010101D890863153
:1018F8003C0BC26E86C188F10101883BF00E881747
:10190800300E010188170101010187510F0B0101F8
:101918008811C16E8AC188F10101D8908837010108
:10192800D8908837380E010188178AC189F10101DA
:10193800893B0F0E8917070E010189170101010163
:101948008A51800B0101891101018811C06E0101C2
:10195800010186AF03D09E9C9D8CF28CC280120040
:10196800EBEC0EF0010101018B5101018A11D8B491
:10197800120001018C6F010E506E01018C510101A2
:10198800010E01010101876F0101000E0101010132
:10199800866FC6EC0FF00009D8B407D001018C6F30
:1019A800000E506E01018C5112000101010E01015F
:1019B8000101876F0101430E01010101866FC6EC29
:1019C8000FF00009D8B407D001018C6F000E506EDB
:1019D80001018C5112000A0E9FEC10F0D0D70101C2
:1019E80020EE41F001018651D92601018751DA2202
:1019F800000EDF6E010120EE42F001018651D9266A
:101A080001018751DA22000EDF6E0101886F000E96
:101A180001010101896F01018851040E01010101D1
:101A2800896501D012000101010189510D0DF350A2
:101A3800010101018625D96EF450010101018721B8
:101A4800DA6E000EDF6E01010101892B040E01011F
:101A580001018965E8D71200A0C1D9FFA1C1DAFF49
:101A6800DE2A000EDD22A0C1D9FFA1C1DAFF0101E3
:101A7800DECF86F10101DDCF87F1000E0101010102
:101A8800896F0A0E0101886FEAEC0BF00101010170
:101A98008651090A01018711D8A412000101A86F13
:101AA800140E010101019C6F0101A85101010101FE
:101AB800A1C19EF101010101A0C19DF1020EABEC93
:101AC8000FF001010101A96F120002EE00F0860E6D
:101AD800EE6AE806FDE101EE00F0860EEE6AE80621
:101AE800FDE100EE30F0220EEE6AE806FDE1E80EB8
:101AF800F66E210EF76E000EF86E01EEECF010EEA9
:101B080004F00900F5CFEEFFE550E150FAE1BC0E14
:101B1800F66E210EF76E000EF86E00EEC1F010EEB4
:101B28000CF00900F5CFEEFFE550E150FAE1000EA8
:101B3800F86E000102EF04F001018A6F000E506E8A
:101B480001018A510101010E01010101876F0101A3
:101B5800430E01010101866FF3EC0CF00101010E47
:101B680001010101876F0101000E01010101866F6A
:101B7800F3EC0CF00201020E01010101876F020172
:101B8800430E01010101866FF3EC0CF00201020E15
:101B980001010101876F0201000E01010101866F39
:101BA800F3EC0CF012000101000187C1CEF0010135
:101BB800000186C1CDF0000120EE0AF00001CD51F0
:101BC800D9260001CE51DA22000EDF6E000120EE88
:101BD8000CF00001CD51D9260001CE51DA22000EB9
:101BE800DF6E000120EE0DF00001CD51D926000175
:101BF800CE51DA22050EDF6E000120EE0FF0000153
:101C0800CD51D9260001CE51DA22000EDF6E120026
:101C1800ACA2120020EE0CF05250D9265350DA2212
:101C2800DF50016E20EE0BF05250D9265350DA22C5
:101C3800DF50015CD8B01ED020EE0CF05250D926EF
:101C48005350DA22DF50016E0150010D060EF326C3
:101C5800000EF422F3505224D96EF4505320DA6E59
:101C6800DF50AD6E20EE0CF05250D9265350DA22D8
:101C7800DF2A12009D9812000101010189C18FF12C
:101C88000101010188C18EF10101010187C18DF1B6
:101C98000101010186C18CF112D08EC1D9FF8FC11B
:101CA800DAFF8CC1E1FF8DC1E2FFDFCFE7FF010161
:101CB80001018E4B8F2B010101018C4B8D2B0101F2
:101CC80001018A07D8A08B0701018A29D8B48B297A
:101CD800D8B41200E2D70001000183C089F00001E6
:101CE800000182C088F00001000181C087F0000176
:101CF800000180C086F012D088C0D9FF89C0DAFF01
:101D080086C0E1FF87C0E2FFDFCFE7FF00010001E7
:101D1800884B892B00010001864B872B00010001AD
:101D28008407D8A0850700018429D8B48529D8B4A8
:101D38001200E2D7506601D012006FEC0FF00001DC
:101D48000001815100018011D8A41200E4EC10F0C8
:101D58002E502D10D8B412000101010E2E6E010173
:101D6800000E2D6E4EEC10F00009D8A412000101EF
:101D7800010E2E6E0101430E2D6E4EEC10F000097F
:101D8800D8B4F1EC10F01200F2AC08D0000E01014A
:101D98000101896F000E0101886F1200BCEC10F080
:101DA80001010101875101018611D8B408D0000E44
:101DB80001010101896F000E0101886F1200000EF8
:101DC80001010101896F010E0101886F1200C8EC41
:101DD8000EF001010101895101018811D8A411D027
:101DE800BCEC10F001010101875101018611D8A452
:101DF80008D0000E010101018B6F010E01018A6FED
:101E08001200000E010101018B6F000E01018A6FA3
:101E18001200E8CFA2F10101010E01010101916F49
:101E28000101430E01010101906FA2C192F101016C
:101E380001019FC194F1010101019EC193F10101CA
:101E48000101A1C196F101010101A0C195F18BEC3D
:101E580005F01200E8CFA2F10101010E0101010114
:101E6800916F0101000E01010101906FA2C192F171
:101E7800010101019FC194F1010101019EC193F18A
:101E880001010101A1C196F101010101A0C195F172
:101E98008BEC05F0120004C00AF003C009F002C080
:101EA80008F001C007F00ED009C0D9FF0AC0DAFF58
:101EB80007C0E1FF08C0E2FFDFCFE7FF094A0A2AAF
:101EC800074A082A0506D8A006060528D8B4062811
:101ED800D8B41200E9D7F2AC08D0000E0001000116
:101EE800816F000E0001806F1200E4EC10F02E509C
:101EF8002D10D8B408D0000E00010001816F000E2B
:101F08000001806F1200000E00010001816F010EB8
:101F18000001806F1200E8CF86F1010101018651AE
:101F28007E0BCD6E0101010186AD02D0CD8E01D0B0
:101F3800CD9E000ECF6E000ECE6E9E900101010167
:101F480086AF02D09D8001D09D90CD801200E8CF51
:101F58009FF10201020E01010101916F0201000EC1
:101F680001010101906F9FC192F19CC193F10101A0
:101F780001019EC195F1010101019DC194F1D9ECC6
:101F880006F01200010120EE42F001018651D92627
:101F980001018751DA22DF500101886F0101885160
:101FA8000D0DF350010101018625D96EF450010190
:101FB80001018721DA6EDF501200E8CF99F00101A4
:101FC800010E000100018B6F0101000E00010001EC
:101FD8008A6F99C08CF096C08DF00001000198C0FE
:101FE8008FF00001000197C08EF06FEC07F012002F
:101FF800000E2E6E000E2D6ECEEC10F04C4A4D2ABF
:102008004EC082F04FC083F00001000E2E6E00011A
:10201800820E2D6E020EFFEC0AF01200E8CF86F158
:102028000101010186517F0BD56E000ED76E000E9F
:10203800D66EF2940101010186AF02D0F28A01D076
:10204800F29AD58E1200E8CF86F19486948886C1DC
:10205800C8FF000EC76E000EC66E000EC56E0E0ECF
:10206800C612C78E94869488C580C68A1200E8CFA7
:102078001AF00101010E0C6E0101430E0B6E1AC01D
:102088000DF017C00EF019C010F018C00FF045EC95
:102098000AF0120020EE42F02D50D9262E50DA22F6
:1020A800DF502F6E2F500D0DF3502D24D96EF450A4
:1020B8002E20DA6EDF5012001B0E305CD8B002D032
:1020C8003028306E3050010D300EF324D96E000EDA
:1020D800F420DA6EC4CFDFFF1200E8CF87F1C2CF59
:1020E80086F1C30E0101861701010101D8908731DD
:1020F8003C0B01018611C26E1200010187C153F029
:10210800010186C152F020EE05F05250D9265350F5
:10211800DA22000EDF6E1200F20E5116ABAC03D0BD
:102128005190ABB05180ABB45184ABB25186AECFB5
:1021380001F001501200E8CF86F1FA0E00F0E82E07
:10214800FDD701010101862FF8D712000101010115
:102158008DC18FF1010101018CC18EF1120086C180
:10216800D9FF87C1DAFF000EDE6E000EDD6E1200A9
:10217800000EF2AE010E01010101866F0101876BAD
:10218800120001C003F002C004F004C0CFFF03C076
:10219800CEFF12002DC080F02EC081F081C0D7FF85
:1021A80080C0D6FF1200000E026E000E016EC5EC54
:1021B80010F01200010102030603040400009F1F2F
:1021C800000EF2AE010E2D6E2E6A1200D08EF28E27
:1021D800F28C120065EC00F01200D38E030012009E
:0421E80001029F1F32
:067FF80080F4C5FFFFF15B
:00000001FF
